{
  "address": "0x6E823303Ff9416Fa500915A5D56b32e2c3158e45",
  "abi": [
    {
      "inputs": [
        {
          "internalType": "string",
          "name": "name_",
          "type": "string"
        },
        {
          "internalType": "string",
          "name": "symbol_",
          "type": "string"
        },
        {
          "internalType": "string",
          "name": "contractURI_",
          "type": "string"
        },
        {
          "internalType": "address",
          "name": "admin",
          "type": "address"
        }
      ],
      "stateMutability": "nonpayable",
      "type": "constructor"
    },
    {
      "inputs": [],
      "name": "AccessControlBadConfirmation",
      "type": "error"
    },
    {
      "inputs": [
        {
          "internalType": "address",
          "name": "account",
          "type": "address"
        },
        {
          "internalType": "bytes32",
          "name": "neededRole",
          "type": "bytes32"
        }
      ],
      "name": "AccessControlUnauthorizedAccount",
      "type": "error"
    },
    {
      "inputs": [
        {
          "internalType": "address",
          "name": "target",
          "type": "address"
        }
      ],
      "name": "AddressEmptyCode",
      "type": "error"
    },
    {
      "inputs": [],
      "name": "CharterNoPendingDisclosure",
      "type": "error"
    },
    {
      "inputs": [],
      "name": "CharterNoSupply",
      "type": "error"
    },
    {
      "inputs": [
        {
          "internalType": "address",
          "name": "caller",
          "type": "address"
        }
      ],
      "name": "CharterNotModule",
      "type": "error"
    },
    {
      "inputs": [],
      "name": "CheckpointUnorderedInsertion",
      "type": "error"
    },
    {
      "inputs": [],
      "name": "ECDSAInvalidSignature",
      "type": "error"
    },
    {
      "inputs": [
        {
          "internalType": "uint256",
          "name": "length",
          "type": "uint256"
        }
      ],
      "name": "ECDSAInvalidSignatureLength",
      "type": "error"
    },
    {
      "inputs": [
        {
          "internalType": "bytes32",
          "name": "s",
          "type": "bytes32"
        }
      ],
      "name": "ECDSAInvalidSignatureS",
      "type": "error"
    },
    {
      "inputs": [
        {
          "internalType": "uint256",
          "name": "timepoint",
          "type": "uint256"
        },
        {
          "internalType": "uint48",
          "name": "clock",
          "type": "uint48"
        }
      ],
      "name": "ERC5805FutureLookup",
      "type": "error"
    },
    {
      "inputs": [],
      "name": "ERC6372InconsistentClock",
      "type": "error"
    },
    {
      "inputs": [
        {
          "internalType": "address",
          "name": "receiver",
          "type": "address"
        }
      ],
      "name": "ERC7984InvalidReceiver",
      "type": "error"
    },
    {
      "inputs": [
        {
          "internalType": "address",
          "name": "sender",
          "type": "address"
        }
      ],
      "name": "ERC7984InvalidSender",
      "type": "error"
    },
    {
      "inputs": [],
      "name": "ERC7984RwaSelfRecoveryNotAllowed",
      "type": "error"
    },
    {
      "inputs": [
        {
          "internalType": "address",
          "name": "caller",
          "type": "address"
        }
      ],
      "name": "ERC7984UnauthorizedCaller",
      "type": "error"
    },
    {
      "inputs": [
        {
          "internalType": "address",
          "name": "holder",
          "type": "address"
        },
        {
          "internalType": "address",
          "name": "spender",
          "type": "address"
        }
      ],
      "name": "ERC7984UnauthorizedSpender",
      "type": "error"
    },
    {
      "inputs": [
        {
          "internalType": "euint64",
          "name": "amount",
          "type": "bytes32"
        },
        {
          "internalType": "address",
          "name": "user",
          "type": "address"
        }
      ],
      "name": "ERC7984UnauthorizedUseOfEncryptedAmount",
      "type": "error"
    },
    {
      "inputs": [],
      "name": "EnforcedPause",
      "type": "error"
    },
    {
      "inputs": [],
      "name": "ExpectedPause",
      "type": "error"
    },
    {
      "inputs": [],
      "name": "FailedCall",
      "type": "error"
    },
    {
      "inputs": [
        {
          "internalType": "bytes32",
          "name": "handle",
          "type": "bytes32"
        },
        {
          "internalType": "address",
          "name": "account",
          "type": "address"
        }
      ],
      "name": "HandleAccessManagerNotAllowed",
      "type": "error"
    },
    {
      "inputs": [
        {
          "internalType": "address",
          "name": "account",
          "type": "address"
        },
        {
          "internalType": "uint256",
          "name": "currentNonce",
          "type": "uint256"
        }
      ],
      "name": "InvalidAccountNonce",
      "type": "error"
    },
    {
      "inputs": [],
      "name": "InvalidKMSSignatures",
      "type": "error"
    },
    {
      "inputs": [],
      "name": "InvalidShortString",
      "type": "error"
    },
    {
      "inputs": [
        {
          "internalType": "uint8",
          "name": "bits",
          "type": "uint8"
        },
        {
          "internalType": "uint256",
          "name": "value",
          "type": "uint256"
        }
      ],
      "name": "SafeCastOverflowedUintDowncast",
      "type": "error"
    },
    {
      "inputs": [
        {
          "internalType": "bytes32",
          "name": "handle",
          "type": "bytes32"
        },
        {
          "internalType": "address",
          "name": "sender",
          "type": "address"
        }
      ],
      "name": "SenderNotAllowedToUseHandle",
      "type": "error"
    },
    {
      "inputs": [
        {
          "internalType": "string",
          "name": "str",
          "type": "string"
        }
      ],
      "name": "StringTooLong",
      "type": "error"
    },
    {
      "inputs": [],
      "name": "Unauthorized",
      "type": "error"
    },
    {
      "inputs": [
        {
          "internalType": "address",
          "name": "account",
          "type": "address"
        }
      ],
      "name": "UserRestricted",
      "type": "error"
    },
    {
      "inputs": [
        {
          "internalType": "uint256",
          "name": "expiry",
          "type": "uint256"
        }
      ],
      "name": "VotesExpiredSignature",
      "type": "error"
    },
    {
      "inputs": [],
      "name": "ZamaProtocolUnsupported",
      "type": "error"
    },
    {
      "anonymous": false,
      "inputs": [
        {
          "indexed": true,
          "internalType": "euint64",
          "name": "encryptedAmount",
          "type": "bytes32"
        },
        {
          "indexed": true,
          "internalType": "address",
          "name": "requester",
          "type": "address"
        }
      ],
      "name": "AmountDiscloseRequested",
      "type": "event"
    },
    {
      "anonymous": false,
      "inputs": [
        {
          "indexed": true,
          "internalType": "euint64",
          "name": "encryptedAmount",
          "type": "bytes32"
        },
        {
          "indexed": false,
          "internalType": "uint64",
          "name": "amount",
          "type": "uint64"
        }
      ],
      "name": "AmountDisclosed",
      "type": "event"
    },
    {
      "anonymous": false,
      "inputs": [
        {
          "indexed": true,
          "internalType": "address",
          "name": "from",
          "type": "address"
        },
        {
          "indexed": true,
          "internalType": "address",
          "name": "to",
          "type": "address"
        },
        {
          "indexed": true,
          "internalType": "euint64",
          "name": "amount",
          "type": "bytes32"
        }
      ],
      "name": "ConfidentialTransfer",
      "type": "event"
    },
    {
      "anonymous": false,
      "inputs": [
        {
          "indexed": true,
          "internalType": "address",
          "name": "delegator",
          "type": "address"
        },
        {
          "indexed": true,
          "internalType": "address",
          "name": "fromDelegate",
          "type": "address"
        },
        {
          "indexed": true,
          "internalType": "address",
          "name": "toDelegate",
          "type": "address"
        }
      ],
      "name": "DelegateChanged",
      "type": "event"
    },
    {
      "anonymous": false,
      "inputs": [
        {
          "indexed": true,
          "internalType": "address",
          "name": "delegate",
          "type": "address"
        },
        {
          "indexed": false,
          "internalType": "euint64",
          "name": "previousVotes",
          "type": "bytes32"
        },
        {
          "indexed": false,
          "internalType": "euint64",
          "name": "newVotes",
          "type": "bytes32"
        }
      ],
      "name": "DelegateVotesChanged",
      "type": "event"
    },
    {
      "anonymous": false,
      "inputs": [],
      "name": "EIP712DomainChanged",
      "type": "event"
    },
    {
      "anonymous": false,
      "inputs": [
        {
          "indexed": false,
          "internalType": "address",
          "name": "account",
          "type": "address"
        },
        {
          "indexed": false,
          "internalType": "address",
          "name": "oldObserver",
          "type": "address"
        },
        {
          "indexed": false,
          "internalType": "address",
          "name": "newObserver",
          "type": "address"
        }
      ],
      "name": "ERC7984ObserverAccessObserverSet",
      "type": "event"
    },
    {
      "anonymous": false,
      "inputs": [
        {
          "indexed": true,
          "internalType": "address",
          "name": "module",
          "type": "address"
        },
        {
          "indexed": false,
          "internalType": "bool",
          "name": "enabled",
          "type": "bool"
        }
      ],
      "name": "ModuleSet",
      "type": "event"
    },
    {
      "anonymous": false,
      "inputs": [
        {
          "indexed": true,
          "internalType": "address",
          "name": "holder",
          "type": "address"
        },
        {
          "indexed": true,
          "internalType": "address",
          "name": "operator",
          "type": "address"
        },
        {
          "indexed": false,
          "internalType": "uint48",
          "name": "until",
          "type": "uint48"
        }
      ],
      "name": "OperatorSet",
      "type": "event"
    },
    {
      "anonymous": false,
      "inputs": [
        {
          "indexed": false,
          "internalType": "address",
          "name": "account",
          "type": "address"
        }
      ],
      "name": "Paused",
      "type": "event"
    },
    {
      "anonymous": false,
      "inputs": [
        {
          "indexed": false,
          "internalType": "bytes32[]",
          "name": "handlesList",
          "type": "bytes32[]"
        },
        {
          "indexed": false,
          "internalType": "bytes",
          "name": "abiEncodedCleartexts",
          "type": "bytes"
        }
      ],
      "name": "PublicDecryptionVerified",
      "type": "event"
    },
    {
      "anonymous": false,
      "inputs": [
        {
          "indexed": true,
          "internalType": "bytes32",
          "name": "role",
          "type": "bytes32"
        },
        {
          "indexed": true,
          "internalType": "bytes32",
          "name": "previousAdminRole",
          "type": "bytes32"
        },
        {
          "indexed": true,
          "internalType": "bytes32",
          "name": "newAdminRole",
          "type": "bytes32"
        }
      ],
      "name": "RoleAdminChanged",
      "type": "event"
    },
    {
      "anonymous": false,
      "inputs": [
        {
          "indexed": true,
          "internalType": "bytes32",
          "name": "role",
          "type": "bytes32"
        },
        {
          "indexed": true,
          "internalType": "address",
          "name": "account",
          "type": "address"
        },
        {
          "indexed": true,
          "internalType": "address",
          "name": "sender",
          "type": "address"
        }
      ],
      "name": "RoleGranted",
      "type": "event"
    },
    {
      "anonymous": false,
      "inputs": [
        {
          "indexed": true,
          "internalType": "bytes32",
          "name": "role",
          "type": "bytes32"
        },
        {
          "indexed": true,
          "internalType": "address",
          "name": "account",
          "type": "address"
        },
        {
          "indexed": true,
          "internalType": "address",
          "name": "sender",
          "type": "address"
        }
      ],
      "name": "RoleRevoked",
      "type": "event"
    },
    {
      "anonymous": false,
      "inputs": [
        {
          "indexed": false,
          "internalType": "uint64",
          "name": "totalShares",
          "type": "uint64"
        },
        {
          "indexed": false,
          "internalType": "uint48",
          "name": "recordTimepoint",
          "type": "uint48"
        }
      ],
      "name": "SupplyDisclosed",
      "type": "event"
    },
    {
      "anonymous": false,
      "inputs": [
        {
          "indexed": false,
          "internalType": "euint64",
          "name": "supplyHandle",
          "type": "bytes32"
        }
      ],
      "name": "SupplyDisclosureRequested",
      "type": "event"
    },
    {
      "anonymous": false,
      "inputs": [
        {
          "indexed": true,
          "internalType": "address",
          "name": "account",
          "type": "address"
        },
        {
          "indexed": false,
          "internalType": "euint64",
          "name": "encryptedAmount",
          "type": "bytes32"
        }
      ],
      "name": "TokensFrozen",
      "type": "event"
    },
    {
      "anonymous": false,
      "inputs": [
        {
          "indexed": true,
          "internalType": "address",
          "name": "lostAccount",
          "type": "address"
        },
        {
          "indexed": true,
          "internalType": "address",
          "name": "newAccount",
          "type": "address"
        },
        {
          "indexed": false,
          "internalType": "euint64",
          "name": "amount",
          "type": "bytes32"
        }
      ],
      "name": "TokensRecovered",
      "type": "event"
    },
    {
      "anonymous": false,
      "inputs": [
        {
          "indexed": false,
          "internalType": "address",
          "name": "account",
          "type": "address"
        }
      ],
      "name": "Unpaused",
      "type": "event"
    },
    {
      "anonymous": false,
      "inputs": [
        {
          "indexed": true,
          "internalType": "address",
          "name": "account",
          "type": "address"
        },
        {
          "indexed": false,
          "internalType": "enum ERC7984Restricted.Restriction",
          "name": "restriction",
          "type": "uint8"
        }
      ],
      "name": "UserRestrictionUpdated",
      "type": "event"
    },
    {
      "inputs": [],
      "name": "AGENT_ROLE",
      "outputs": [
        {
          "internalType": "bytes32",
          "name": "",
          "type": "bytes32"
        }
      ],
      "stateMutability": "view",
      "type": "function"
    },
    {
      "inputs": [],
      "name": "CLOCK_MODE",
      "outputs": [
        {
          "internalType": "string",
          "name": "",
          "type": "string"
        }
      ],
      "stateMutability": "view",
      "type": "function"
    },
    {
      "inputs": [],
      "name": "DEFAULT_ADMIN_ROLE",
      "outputs": [
        {
          "internalType": "bytes32",
          "name": "",
          "type": "bytes32"
        }
      ],
      "stateMutability": "view",
      "type": "function"
    },
    {
      "inputs": [
        {
          "internalType": "address",
          "name": "account",
          "type": "address"
        }
      ],
      "name": "addAgent",
      "outputs": [],
      "stateMutability": "nonpayable",
      "type": "function"
    },
    {
      "inputs": [
        {
          "internalType": "address",
          "name": "account",
          "type": "address"
        }
      ],
      "name": "allowBalanceAccess",
      "outputs": [
        {
          "internalType": "euint64",
          "name": "balance",
          "type": "bytes32"
        }
      ],
      "stateMutability": "nonpayable",
      "type": "function"
    },
    {
      "inputs": [
        {
          "internalType": "address",
          "name": "account",
          "type": "address"
        }
      ],
      "name": "blockUser",
      "outputs": [],
      "stateMutability": "nonpayable",
      "type": "function"
    },
    {
      "inputs": [
        {
          "internalType": "address",
          "name": "account",
          "type": "address"
        }
      ],
      "name": "canTransact",
      "outputs": [
        {
          "internalType": "bool",
          "name": "",
          "type": "bool"
        }
      ],
      "stateMutability": "view",
      "type": "function"
    },
    {
      "inputs": [],
      "name": "clock",
      "outputs": [
        {
          "internalType": "uint48",
          "name": "",
          "type": "uint48"
        }
      ],
      "stateMutability": "view",
      "type": "function"
    },
    {
      "inputs": [
        {
          "internalType": "address",
          "name": "account",
          "type": "address"
        }
      ],
      "name": "confidentialAvailable",
      "outputs": [
        {
          "internalType": "euint64",
          "name": "",
          "type": "bytes32"
        }
      ],
      "stateMutability": "nonpayable",
      "type": "function"
    },
    {
      "inputs": [
        {
          "internalType": "address",
          "name": "account",
          "type": "address"
        }
      ],
      "name": "confidentialBalanceOf",
      "outputs": [
        {
          "internalType": "euint64",
          "name": "",
          "type": "bytes32"
        }
      ],
      "stateMutability": "view",
      "type": "function"
    },
    {
      "inputs": [
        {
          "internalType": "address",
          "name": "account",
          "type": "address"
        },
        {
          "internalType": "euint64",
          "name": "encryptedAmount",
          "type": "bytes32"
        }
      ],
      "name": "confidentialBurn",
      "outputs": [
        {
          "internalType": "euint64",
          "name": "",
          "type": "bytes32"
        }
      ],
      "stateMutability": "nonpayable",
      "type": "function"
    },
    {
      "inputs": [
        {
          "internalType": "address",
          "name": "account",
          "type": "address"
        },
        {
          "internalType": "externalEuint64",
          "name": "encryptedAmount",
          "type": "bytes32"
        },
        {
          "internalType": "bytes",
          "name": "inputProof",
          "type": "bytes"
        }
      ],
      "name": "confidentialBurn",
      "outputs": [
        {
          "internalType": "euint64",
          "name": "",
          "type": "bytes32"
        }
      ],
      "stateMutability": "nonpayable",
      "type": "function"
    },
    {
      "inputs": [
        {
          "internalType": "address",
          "name": "account",
          "type": "address"
        }
      ],
      "name": "confidentialFrozen",
      "outputs": [
        {
          "internalType": "euint64",
          "name": "",
          "type": "bytes32"
        }
      ],
      "stateMutability": "view",
      "type": "function"
    },
    {
      "inputs": [
        {
          "internalType": "address",
          "name": "to",
          "type": "address"
        },
        {
          "internalType": "externalEuint64",
          "name": "encryptedAmount",
          "type": "bytes32"
        },
        {
          "internalType": "bytes",
          "name": "inputProof",
          "type": "bytes"
        }
      ],
      "name": "confidentialMint",
      "outputs": [
        {
          "internalType": "euint64",
          "name": "",
          "type": "bytes32"
        }
      ],
      "stateMutability": "nonpayable",
      "type": "function"
    },
    {
      "inputs": [
        {
          "internalType": "address",
          "name": "to",
          "type": "address"
        },
        {
          "internalType": "euint64",
          "name": "encryptedAmount",
          "type": "bytes32"
        }
      ],
      "name": "confidentialMint",
      "outputs": [
        {
          "internalType": "euint64",
          "name": "",
          "type": "bytes32"
        }
      ],
      "stateMutability": "nonpayable",
      "type": "function"
    },
    {
      "inputs": [],
      "name": "confidentialProtocolId",
      "outputs": [
        {
          "internalType": "uint256",
          "name": "",
          "type": "uint256"
        }
      ],
      "stateMutability": "view",
      "type": "function"
    },
    {
      "inputs": [],
      "name": "confidentialTotalSupply",
      "outputs": [
        {
          "internalType": "euint64",
          "name": "",
          "type": "bytes32"
        }
      ],
      "stateMutability": "view",
      "type": "function"
    },
    {
      "inputs": [
        {
          "internalType": "address",
          "name": "to",
          "type": "address"
        },
        {
          "internalType": "externalEuint64",
          "name": "encryptedAmount",
          "type": "bytes32"
        },
        {
          "internalType": "bytes",
          "name": "inputProof",
          "type": "bytes"
        }
      ],
      "name": "confidentialTransfer",
      "outputs": [
        {
          "internalType": "euint64",
          "name": "",
          "type": "bytes32"
        }
      ],
      "stateMutability": "nonpayable",
      "type": "function"
    },
    {
      "inputs": [
        {
          "internalType": "address",
          "name": "to",
          "type": "address"
        },
        {
          "internalType": "euint64",
          "name": "amount",
          "type": "bytes32"
        }
      ],
      "name": "confidentialTransfer",
      "outputs": [
        {
          "internalType": "euint64",
          "name": "",
          "type": "bytes32"
        }
      ],
      "stateMutability": "nonpayable",
      "type": "function"
    },
    {
      "inputs": [
        {
          "internalType": "address",
          "name": "to",
          "type": "address"
        },
        {
          "internalType": "euint64",
          "name": "amount",
          "type": "bytes32"
        },
        {
          "internalType": "bytes",
          "name": "data",
          "type": "bytes"
        }
      ],
      "name": "confidentialTransferAndCall",
      "outputs": [
        {
          "internalType": "euint64",
          "name": "",
          "type": "bytes32"
        }
      ],
      "stateMutability": "nonpayable",
      "type": "function"
    },
    {
      "inputs": [
        {
          "internalType": "address",
          "name": "to",
          "type": "address"
        },
        {
          "internalType": "externalEuint64",
          "name": "encryptedAmount",
          "type": "bytes32"
        },
        {
          "internalType": "bytes",
          "name": "inputProof",
          "type": "bytes"
        },
        {
          "internalType": "bytes",
          "name": "data",
          "type": "bytes"
        }
      ],
      "name": "confidentialTransferAndCall",
      "outputs": [
        {
          "internalType": "euint64",
          "name": "",
          "type": "bytes32"
        }
      ],
      "stateMutability": "nonpayable",
      "type": "function"
    },
    {
      "inputs": [
        {
          "internalType": "address",
          "name": "from",
          "type": "address"
        },
        {
          "internalType": "address",
          "name": "to",
          "type": "address"
        },
        {
          "internalType": "externalEuint64",
          "name": "encryptedAmount",
          "type": "bytes32"
        },
        {
          "internalType": "bytes",
          "name": "inputProof",
          "type": "bytes"
        }
      ],
      "name": "confidentialTransferFrom",
      "outputs": [
        {
          "internalType": "euint64",
          "name": "",
          "type": "bytes32"
        }
      ],
      "stateMutability": "nonpayable",
      "type": "function"
    },
    {
      "inputs": [
        {
          "internalType": "address",
          "name": "from",
          "type": "address"
        },
        {
          "internalType": "address",
          "name": "to",
          "type": "address"
        },
        {
          "internalType": "euint64",
          "name": "amount",
          "type": "bytes32"
        }
      ],
      "name": "confidentialTransferFrom",
      "outputs": [
        {
          "internalType": "euint64",
          "name": "",
          "type": "bytes32"
        }
      ],
      "stateMutability": "nonpayable",
      "type": "function"
    },
    {
      "inputs": [
        {
          "internalType": "address",
          "name": "from",
          "type": "address"
        },
        {
          "internalType": "address",
          "name": "to",
          "type": "address"
        },
        {
          "internalType": "externalEuint64",
          "name": "encryptedAmount",
          "type": "bytes32"
        },
        {
          "internalType": "bytes",
          "name": "inputProof",
          "type": "bytes"
        },
        {
          "internalType": "bytes",
          "name": "data",
          "type": "bytes"
        }
      ],
      "name": "confidentialTransferFromAndCall",
      "outputs": [
        {
          "internalType": "euint64",
          "name": "",
          "type": "bytes32"
        }
      ],
      "stateMutability": "nonpayable",
      "type": "function"
    },
    {
      "inputs": [
        {
          "internalType": "address",
          "name": "from",
          "type": "address"
        },
        {
          "internalType": "address",
          "name": "to",
          "type": "address"
        },
        {
          "internalType": "euint64",
          "name": "amount",
          "type": "bytes32"
        },
        {
          "internalType": "bytes",
          "name": "data",
          "type": "bytes"
        }
      ],
      "name": "confidentialTransferFromAndCall",
      "outputs": [
        {
          "internalType": "euint64",
          "name": "",
          "type": "bytes32"
        }
      ],
      "stateMutability": "nonpayable",
      "type": "function"
    },
    {
      "inputs": [],
      "name": "contractURI",
      "outputs": [
        {
          "internalType": "string",
          "name": "",
          "type": "string"
        }
      ],
      "stateMutability": "view",
      "type": "function"
    },
    {
      "inputs": [],
      "name": "decimals",
      "outputs": [
        {
          "internalType": "uint8",
          "name": "",
          "type": "uint8"
        }
      ],
      "stateMutability": "pure",
      "type": "function"
    },
    {
      "inputs": [
        {
          "internalType": "address",
          "name": "delegatee",
          "type": "address"
        }
      ],
      "name": "delegate",
      "outputs": [],
      "stateMutability": "nonpayable",
      "type": "function"
    },
    {
      "inputs": [
        {
          "internalType": "address",
          "name": "delegatee",
          "type": "address"
        },
        {
          "internalType": "uint256",
          "name": "nonce",
          "type": "uint256"
        },
        {
          "internalType": "uint256",
          "name": "expiry",
          "type": "uint256"
        },
        {
          "internalType": "uint8",
          "name": "v",
          "type": "uint8"
        },
        {
          "internalType": "bytes32",
          "name": "r",
          "type": "bytes32"
        },
        {
          "internalType": "bytes32",
          "name": "s",
          "type": "bytes32"
        }
      ],
      "name": "delegateBySig",
      "outputs": [],
      "stateMutability": "nonpayable",
      "type": "function"
    },
    {
      "inputs": [
        {
          "internalType": "address",
          "name": "account",
          "type": "address"
        }
      ],
      "name": "delegates",
      "outputs": [
        {
          "internalType": "address",
          "name": "",
          "type": "address"
        }
      ],
      "stateMutability": "view",
      "type": "function"
    },
    {
      "inputs": [
        {
          "internalType": "euint64",
          "name": "encryptedAmount",
          "type": "bytes32"
        },
        {
          "internalType": "uint64",
          "name": "cleartextAmount",
          "type": "uint64"
        },
        {
          "internalType": "bytes",
          "name": "decryptionProof",
          "type": "bytes"
        }
      ],
      "name": "discloseEncryptedAmount",
      "outputs": [],
      "stateMutability": "nonpayable",
      "type": "function"
    },
    {
      "inputs": [],
      "name": "eip712Domain",
      "outputs": [
        {
          "internalType": "bytes1",
          "name": "fields",
          "type": "bytes1"
        },
        {
          "internalType": "string",
          "name": "name",
          "type": "string"
        },
        {
          "internalType": "string",
          "name": "version",
          "type": "string"
        },
        {
          "internalType": "uint256",
          "name": "chainId",
          "type": "uint256"
        },
        {
          "internalType": "address",
          "name": "verifyingContract",
          "type": "address"
        },
        {
          "internalType": "bytes32",
          "name": "salt",
          "type": "bytes32"
        },
        {
          "internalType": "uint256[]",
          "name": "extensions",
          "type": "uint256[]"
        }
      ],
      "stateMutability": "view",
      "type": "function"
    },
    {
      "inputs": [
        {
          "internalType": "uint64",
          "name": "clearSupply",
          "type": "uint64"
        },
        {
          "internalType": "bytes",
          "name": "decryptionProof",
          "type": "bytes"
        }
      ],
      "name": "finalizeSupplyDisclosure",
      "outputs": [],
      "stateMutability": "nonpayable",
      "type": "function"
    },
    {
      "inputs": [
        {
          "internalType": "address",
          "name": "from",
          "type": "address"
        },
        {
          "internalType": "address",
          "name": "to",
          "type": "address"
        },
        {
          "internalType": "euint64",
          "name": "encryptedAmount",
          "type": "bytes32"
        }
      ],
      "name": "forceConfidentialTransferFrom",
      "outputs": [
        {
          "internalType": "euint64",
          "name": "",
          "type": "bytes32"
        }
      ],
      "stateMutability": "nonpayable",
      "type": "function"
    },
    {
      "inputs": [
        {
          "internalType": "address",
          "name": "from",
          "type": "address"
        },
        {
          "internalType": "address",
          "name": "to",
          "type": "address"
        },
        {
          "internalType": "externalEuint64",
          "name": "encryptedAmount",
          "type": "bytes32"
        },
        {
          "internalType": "bytes",
          "name": "inputProof",
          "type": "bytes"
        }
      ],
      "name": "forceConfidentialTransferFrom",
      "outputs": [
        {
          "internalType": "euint64",
          "name": "",
          "type": "bytes32"
        }
      ],
      "stateMutability": "nonpayable",
      "type": "function"
    },
    {
      "inputs": [
        {
          "internalType": "bytes32",
          "name": "handle",
          "type": "bytes32"
        },
        {
          "internalType": "address",
          "name": "account",
          "type": "address"
        },
        {
          "internalType": "bool",
          "name": "persistent",
          "type": "bool"
        }
      ],
      "name": "getHandleAllowance",
      "outputs": [],
      "stateMutability": "nonpayable",
      "type": "function"
    },
    {
      "inputs": [
        {
          "internalType": "uint256",
          "name": "timepoint",
          "type": "uint256"
        }
      ],
      "name": "getPastTotalSupply",
      "outputs": [
        {
          "internalType": "euint64",
          "name": "",
          "type": "bytes32"
        }
      ],
      "stateMutability": "view",
      "type": "function"
    },
    {
      "inputs": [
        {
          "internalType": "address",
          "name": "account",
          "type": "address"
        },
        {
          "internalType": "uint256",
          "name": "timepoint",
          "type": "uint256"
        }
      ],
      "name": "getPastVotes",
      "outputs": [
        {
          "internalType": "euint64",
          "name": "",
          "type": "bytes32"
        }
      ],
      "stateMutability": "view",
      "type": "function"
    },
    {
      "inputs": [
        {
          "internalType": "address",
          "name": "account",
          "type": "address"
        }
      ],
      "name": "getRestriction",
      "outputs": [
        {
          "internalType": "enum ERC7984Restricted.Restriction",
          "name": "",
          "type": "uint8"
        }
      ],
      "stateMutability": "view",
      "type": "function"
    },
    {
      "inputs": [
        {
          "internalType": "bytes32",
          "name": "role",
          "type": "bytes32"
        }
      ],
      "name": "getRoleAdmin",
      "outputs": [
        {
          "internalType": "bytes32",
          "name": "",
          "type": "bytes32"
        }
      ],
      "stateMutability": "view",
      "type": "function"
    },
    {
      "inputs": [
        {
          "internalType": "address",
          "name": "account",
          "type": "address"
        }
      ],
      "name": "getVotes",
      "outputs": [
        {
          "internalType": "euint64",
          "name": "",
          "type": "bytes32"
        }
      ],
      "stateMutability": "view",
      "type": "function"
    },
    {
      "inputs": [
        {
          "internalType": "bytes32",
          "name": "role",
          "type": "bytes32"
        },
        {
          "internalType": "address",
          "name": "account",
          "type": "address"
        }
      ],
      "name": "grantRole",
      "outputs": [],
      "stateMutability": "nonpayable",
      "type": "function"
    },
    {
      "inputs": [
        {
          "internalType": "bytes32",
          "name": "role",
          "type": "bytes32"
        },
        {
          "internalType": "address",
          "name": "account",
          "type": "address"
        }
      ],
      "name": "hasRole",
      "outputs": [
        {
          "internalType": "bool",
          "name": "",
          "type": "bool"
        }
      ],
      "stateMutability": "view",
      "type": "function"
    },
    {
      "inputs": [
        {
          "internalType": "address",
          "name": "account",
          "type": "address"
        }
      ],
      "name": "isAdmin",
      "outputs": [
        {
          "internalType": "bool",
          "name": "",
          "type": "bool"
        }
      ],
      "stateMutability": "view",
      "type": "function"
    },
    {
      "inputs": [
        {
          "internalType": "address",
          "name": "account",
          "type": "address"
        }
      ],
      "name": "isAgent",
      "outputs": [
        {
          "internalType": "bool",
          "name": "",
          "type": "bool"
        }
      ],
      "stateMutability": "view",
      "type": "function"
    },
    {
      "inputs": [
        {
          "internalType": "address",
          "name": "module",
          "type": "address"
        }
      ],
      "name": "isModule",
      "outputs": [
        {
          "internalType": "bool",
          "name": "",
          "type": "bool"
        }
      ],
      "stateMutability": "view",
      "type": "function"
    },
    {
      "inputs": [
        {
          "internalType": "address",
          "name": "holder",
          "type": "address"
        },
        {
          "internalType": "address",
          "name": "spender",
          "type": "address"
        }
      ],
      "name": "isOperator",
      "outputs": [
        {
          "internalType": "bool",
          "name": "",
          "type": "bool"
        }
      ],
      "stateMutability": "view",
      "type": "function"
    },
    {
      "inputs": [
        {
          "internalType": "bytes[]",
          "name": "data",
          "type": "bytes[]"
        }
      ],
      "name": "multicall",
      "outputs": [
        {
          "internalType": "bytes[]",
          "name": "results",
          "type": "bytes[]"
        }
      ],
      "stateMutability": "nonpayable",
      "type": "function"
    },
    {
      "inputs": [],
      "name": "name",
      "outputs": [
        {
          "internalType": "string",
          "name": "",
          "type": "string"
        }
      ],
      "stateMutability": "view",
      "type": "function"
    },
    {
      "inputs": [
        {
          "internalType": "address",
          "name": "owner",
          "type": "address"
        }
      ],
      "name": "nonces",
      "outputs": [
        {
          "internalType": "uint256",
          "name": "",
          "type": "uint256"
        }
      ],
      "stateMutability": "view",
      "type": "function"
    },
    {
      "inputs": [
        {
          "internalType": "address",
          "name": "account",
          "type": "address"
        }
      ],
      "name": "observer",
      "outputs": [
        {
          "internalType": "address",
          "name": "",
          "type": "address"
        }
      ],
      "stateMutability": "view",
      "type": "function"
    },
    {
      "inputs": [],
      "name": "pause",
      "outputs": [],
      "stateMutability": "nonpayable",
      "type": "function"
    },
    {
      "inputs": [],
      "name": "paused",
      "outputs": [
        {
          "internalType": "bool",
          "name": "",
          "type": "bool"
        }
      ],
      "stateMutability": "view",
      "type": "function"
    },
    {
      "inputs": [],
      "name": "recordTimepoint",
      "outputs": [
        {
          "internalType": "uint48",
          "name": "",
          "type": "uint48"
        }
      ],
      "stateMutability": "view",
      "type": "function"
    },
    {
      "inputs": [
        {
          "internalType": "address",
          "name": "lostAccount",
          "type": "address"
        },
        {
          "internalType": "address",
          "name": "newAccount",
          "type": "address"
        }
      ],
      "name": "recoverAddress",
      "outputs": [
        {
          "internalType": "euint64",
          "name": "",
          "type": "bytes32"
        }
      ],
      "stateMutability": "nonpayable",
      "type": "function"
    },
    {
      "inputs": [
        {
          "internalType": "address",
          "name": "account",
          "type": "address"
        }
      ],
      "name": "removeAgent",
      "outputs": [],
      "stateMutability": "nonpayable",
      "type": "function"
    },
    {
      "inputs": [
        {
          "internalType": "bytes32",
          "name": "role",
          "type": "bytes32"
        },
        {
          "internalType": "address",
          "name": "callerConfirmation",
          "type": "address"
        }
      ],
      "name": "renounceRole",
      "outputs": [],
      "stateMutability": "nonpayable",
      "type": "function"
    },
    {
      "inputs": [
        {
          "internalType": "euint64",
          "name": "encryptedAmount",
          "type": "bytes32"
        }
      ],
      "name": "requestDiscloseEncryptedAmount",
      "outputs": [],
      "stateMutability": "nonpayable",
      "type": "function"
    },
    {
      "inputs": [],
      "name": "requestSupplyDisclosure",
      "outputs": [],
      "stateMutability": "nonpayable",
      "type": "function"
    },
    {
      "inputs": [
        {
          "internalType": "bytes32",
          "name": "role",
          "type": "bytes32"
        },
        {
          "internalType": "address",
          "name": "account",
          "type": "address"
        }
      ],
      "name": "revokeRole",
      "outputs": [],
      "stateMutability": "nonpayable",
      "type": "function"
    },
    {
      "inputs": [
        {
          "internalType": "address",
          "name": "account",
          "type": "address"
        },
        {
          "internalType": "externalEuint64",
          "name": "encryptedAmount",
          "type": "bytes32"
        },
        {
          "internalType": "bytes",
          "name": "inputProof",
          "type": "bytes"
        }
      ],
      "name": "setConfidentialFrozen",
      "outputs": [],
      "stateMutability": "nonpayable",
      "type": "function"
    },
    {
      "inputs": [
        {
          "internalType": "address",
          "name": "account",
          "type": "address"
        },
        {
          "internalType": "euint64",
          "name": "encryptedAmount",
          "type": "bytes32"
        }
      ],
      "name": "setConfidentialFrozen",
      "outputs": [],
      "stateMutability": "nonpayable",
      "type": "function"
    },
    {
      "inputs": [
        {
          "internalType": "address",
          "name": "module",
          "type": "address"
        },
        {
          "internalType": "bool",
          "name": "enabled",
          "type": "bool"
        }
      ],
      "name": "setModule",
      "outputs": [],
      "stateMutability": "nonpayable",
      "type": "function"
    },
    {
      "inputs": [
        {
          "internalType": "address",
          "name": "account",
          "type": "address"
        },
        {
          "internalType": "address",
          "name": "newObserver",
          "type": "address"
        }
      ],
      "name": "setObserver",
      "outputs": [],
      "stateMutability": "nonpayable",
      "type": "function"
    },
    {
      "inputs": [
        {
          "internalType": "address",
          "name": "operator",
          "type": "address"
        },
        {
          "internalType": "uint48",
          "name": "until",
          "type": "uint48"
        }
      ],
      "name": "setOperator",
      "outputs": [],
      "stateMutability": "nonpayable",
      "type": "function"
    },
    {
      "inputs": [
        {
          "internalType": "bytes4",
          "name": "interfaceId",
          "type": "bytes4"
        }
      ],
      "name": "supportsInterface",
      "outputs": [
        {
          "internalType": "bool",
          "name": "",
          "type": "bool"
        }
      ],
      "stateMutability": "view",
      "type": "function"
    },
    {
      "inputs": [],
      "name": "symbol",
      "outputs": [
        {
          "internalType": "string",
          "name": "",
          "type": "string"
        }
      ],
      "stateMutability": "view",
      "type": "function"
    },
    {
      "inputs": [],
      "name": "totalSharesOnRecord",
      "outputs": [
        {
          "internalType": "uint64",
          "name": "",
          "type": "uint64"
        }
      ],
      "stateMutability": "view",
      "type": "function"
    },
    {
      "inputs": [
        {
          "internalType": "address",
          "name": "account",
          "type": "address"
        }
      ],
      "name": "unblockUser",
      "outputs": [],
      "stateMutability": "nonpayable",
      "type": "function"
    },
    {
      "inputs": [],
      "name": "unpause",
      "outputs": [],
      "stateMutability": "nonpayable",
      "type": "function"
    }
  ],
  "transactionHash": "0x3db35cb106da48d30c71aeccc8eedb07869bb166ca7e05fd344f7679ff3315bc",
  "args": [
    "Charter Demo Corp",
    "CDC-S",
    "",
    "0x04045Ca68BEF611adBD76e58C028cEFf4a3d640D"
  ],
  "numDeployments": 1,
  "solcInputHash": "9da5f7ffb0cc5be599c3afab81487467",
  "bytecode": "0x610160604052348015610010575f5ffd5b5060405161536c38038061536c83398101604081905261002f91610563565b6040805180820190915260018152603160f81b60208201528490828286866101016100586101f4565b80517f9e7b61f58c47dc699ac88507c4f5bb9f121c03808c5676a8078fe583e464970080546001600160a01b03199081166001600160a01b039384161790915560208301517f9e7b61f58c47dc699ac88507c4f5bb9f121c03808c5676a8078fe583e46497018054831691841691909117905560408301517f9e7b61f58c47dc699ac88507c4f5bb9f121c03808c5676a8078fe583e46497028054909216921691909117905550565b600361010d8482610696565b50600461011a8382610696565b5060056101278282610696565b5061013892505f91508390506103a3565b50610146905082600c610450565b6101205261015581600d610450565b61014052815160208084019190912060e052815190820120610100524660a0526101e160e05161010051604080517f8b73c3c69bb8fe3d512ecc4cf759cc79239f7b179b0ffacaa9a75d522b39400f60208201529081019290925260608201524660808201523060a08201525f9060c00160405160208183030381529060405280519060200120905090565b60805250503060c052506107a892505050565b604080516060810182525f80825260208201819052918101919091524660010361028d575060408051606080820183525f8083526020808401829052928401528251908101835273ca2e8f1f656cd25c01f05d0b243ab1ecd4a8ffb6815273d82385dada1ae3e969447f20a3164f6213100e75918101919091527377627828a55156b04ac0dc0eb30467f1a552bb039181019190915290565b4662aa36a70361030c575060408051606080820183525f8083526020808401829052928401528251908101835273f0ffdc93b7e186bc2f8cb3daa75d86d1930a433d81527392c920834ec8941d2c77d188936e1f7a6f49c1279181019190915273be0e383937d564d7ff0bc3b46c51f0bf8d5c311a9181019190915290565b46617a690361038a575060408051606080820183525f808352602080840182905292840152825190810183527350157cffd6bbfa2dece204a89ec419c23ef5755d815273e3a9105a3a932253a70f126eb1e3b589c643dd249181019190915273901f8942346f7ab3a01f6d7613119bca447bb0309181019190915290565b6040516373cac13b60e01b815260040160405180910390fd5b5f8281526009602090815260408083206001600160a01b038516845290915281205460ff16610447575f8381526009602090815260408083206001600160a01b03861684529091529020805460ff191660011790556103ff3390565b6001600160a01b0316826001600160a01b0316847f2f8788117e7eff1d82e926ec794901d17c78024a50270940304540a733656f0d60405160405180910390a450600161044a565b505f5b92915050565b5f60208351101561046b5761046483610480565b905061044a565b816104768482610696565b5060ff905061044a565b5f5f829050601f815111156104b3578260405163305a27a960e01b81526004016104aa9190610750565b60405180910390fd5b80516104be82610785565b179392505050565b634e487b7160e01b5f52604160045260245ffd5b5f82601f8301126104e9575f5ffd5b81516001600160401b03811115610502576105026104c6565b604051601f8201601f19908116603f011681016001600160401b0381118282101715610530576105306104c6565b604052818152838201602001851015610547575f5ffd5b8160208501602083015e5f918101602001919091529392505050565b5f5f5f5f60808587031215610576575f5ffd5b84516001600160401b0381111561058b575f5ffd5b610597878288016104da565b602087015190955090506001600160401b038111156105b4575f5ffd5b6105c0878288016104da565b604087015190945090506001600160401b038111156105dd575f5ffd5b6105e9878288016104da565b606087015190935090506001600160a01b0381168114610607575f5ffd5b939692955090935050565b600181811c9082168061062657607f821691505b60208210810361064457634e487b7160e01b5f52602260045260245ffd5b50919050565b601f82111561069157805f5260205f20601f840160051c8101602085101561066f5750805b601f840160051c820191505b8181101561068e575f815560010161067b565b50505b505050565b81516001600160401b038111156106af576106af6104c6565b6106c3816106bd8454610612565b8461064a565b6020601f8211600181146106f5575f83156106de5750848201515b5f19600385901b1c1916600184901b17845561068e565b5f84815260208120601f198516915b828110156107245787850151825560209485019460019092019101610704565b508482101561074157868401515f19600387901b60f8161c191681555b50505050600190811b01905550565b602081525f82518060208401528060208501604085015e5f604082850101526040601f19601f83011684010191505092915050565b80516020808301519190811015610644575f1960209190910360031b1b16919050565b60805160a05160c05160e051610100516101205161014051614b736107f95f395f61259501525f61256801525f61338401525f61335c01525f6132b701525f6132e101525f61330b0152614b735ff3fe608060405234801561000f575f5ffd5b506004361061045a575f3560e01c80635c19a95c11610243578063a26772c411610148578063d4febb96116100c3578063de64211911610093578063e8a3d48511610079578063e8a3d48514610a36578063eb3155b514610a3e578063f9c9fdec14610a51575f5ffd5b8063de64211914610a10578063e064b9bb14610a23575f5ffd5b8063d4febb96146109c4578063d547741f146109d7578063d60e1113146109ea578063d8061806146109fd575f5ffd5b8063b1af281e11610118578063c3cda520116100fe578063c3cda52014610973578063c7b8a75e14610986578063cb2ca1cd14610999575f5ffd5b8063b1af281e1461094d578063b6363cf214610960575f5ffd5b8063a26772c4146108f4578063ac9650d814610907578063acf0279f14610927578063b1662d581461093a575f5ffd5b80638927b030116101d857806395d89b41116101a85780639ab24eb01161018e5780639ab24eb0146108c7578063a0c6b1ed146108da578063a217fddf146108ed575f5ffd5b806395d89b41146108ac57806397a6278e146108b4575f5ffd5b80638927b030146108515780638e539e8c1461085957806391d148541461086c57806391ddadf4146108a4575f5ffd5b80637ecebe00116102135780637ecebe00146107f35780638456cb591461081b57806384b0196e1461082357806384e798421461083e575f5ffd5b80635c19a95c146107985780635c975abb146107ab5780635e5cc6b8146107b35780636c9c3c85146107e0575f5ffd5b806332121eb31161036357806342f6e389116102de578063537d3c50116102ae5780635409522711610294578063540952271461073a578063587cde1e146107425780635bebed7e14610785575f5ffd5b8063537d3c501461071457806353a8221b14610727575f5ffd5b806342f6e3891461069f57806344fd6e40146106c15780634a57a6b2146106d45780634bf5d7e91461070c575f5ffd5b806339d319e5116103335780633da01325116103195780633da013251461067c5780633df11a791461068f5780633f4ba83a14610697575f5ffd5b806339d319e5146106565780633a46b1a814610669575f5ffd5b806332121eb3146105d3578063344ff1011461060857806334c457431461063057806336568abe14610643575f5ffd5b80631c29a51b116103f3578063248a9ca3116103c35780632f2ff15d116103a95780632f2ff15d1461059f5780632fb74e62146105b2578063313ce567146105c5575f5ffd5b8063248a9ca31461056a57806324d7806c1461058c575f5ffd5b80631c29a51b1461051d5780631cfefb0d146105305780631ffbb0641461054357806322459e1814610556575f5ffd5b806306fdde031161042e57806306fdde03146104cf5780630afb9e7e146104e457806316355b3b146104f75780631b4d3d0d1461050a575f5ffd5b8062e66feb1461045e57806301ffc9a71461047357806304f8b3f41461049b57806306d4a799146104bc575b5f5ffd5b61047161046c3660046141fd565b610a64565b005b610486610481366004614253565b610ac8565b60405190151581526020015b60405180910390f35b6104ae6104a936600461427a565b610ad8565b604051908152602001610492565b6104716104ca3660046142a0565b610ae2565b6104d7610b4d565b604051610492919061430b565b6104ae6104f236600461431d565b610bdd565b61047161050536600461431d565b610c52565b6104ae6105183660046141fd565b610cb5565b61047161052b366004614345565b610d2b565b6104ae61053e36600461427a565b610e61565b61048661055136600461427a565b610ed0565b6104ae5f516020614b275f395f51905f5281565b6104ae61057836600461436d565b5f9081526009602052604090206001015490565b61048661059a36600461427a565b610f0f565b6104716105ad366004614384565b610f4e565b6104ae6105c03660046141fd565b610f72565b6040515f8152602001610492565b6012546105f19068010000000000000000900465ffffffffffff1681565b60405165ffffffffffff9091168152602001610492565b6104ae61061636600461427a565b6001600160a01b03165f9081526020819052604090205490565b6104ae61063e3660046143a5565b610fc5565b610471610651366004614384565b61105d565b61047161066436600461427a565b611090565b6104ae61067736600461431d565b6110b2565b61047161068a36600461427a565b6110eb565b61047161110a565b61047161118e565b6104866106ad36600461427a565b60116020525f908152604090205460ff1681565b6104ae6106cf36600461443e565b6111ae565b6106ff6106e236600461427a565b6001600160a01b03165f9081526007602052604090205460ff1690565b604051610492919061448c565b6104d7611225565b6104ae6107223660046141fd565b61129d565b6104716107353660046144bd565b6112ea565b6104ae61145e565b61076d61075036600461427a565b6001600160a01b039081165f908152600e60205260409020541690565b6040516001600160a01b039091168152602001610492565b6104ae61079336600461431d565b61146c565b6104716107a636600461427a565b6114b7565b6104866114c1565b6012546107c79067ffffffffffffffff1681565b60405167ffffffffffffffff9091168152602001610492565b6104ae6107ee36600461450c565b6114ce565b6104ae61080136600461427a565b6001600160a01b03165f908152600b602052604090205490565b610471611541565b61082b61155f565b6040516104929796959493929190614576565b61047161084c36600461427a565b6115a1565b6104ae6115c1565b6104ae61086736600461436d565b6115ca565b61048661087a366004614384565b5f9182526009602090815260408084206001600160a01b0393909316845291905290205460ff1690565b6105f16115e7565b6104d76115f0565b6104716108c236600461427a565b6115ff565b6104ae6108d536600461427a565b61161f565b6104ae6108e83660046141fd565b61163f565b6104ae5f81565b6104ae610902366004614345565b61169f565b61091a61091536600461460c565b6117fc565b604051610492919061467d565b61048661093536600461427a565b6118e2565b6104716109483660046146e0565b6118ec565b61047161095b366004614715565b611954565b61048661096e366004614345565b611a4a565b610471610981366004614753565b611a9c565b6104ae61099436600461450c565b611b58565b61076d6109a736600461427a565b6001600160a01b039081165f908152600a60205260409020541690565b6104716109d23660046147ae565b611bef565b6104716109e5366004614384565b611bfa565b6104ae6109f836600461427a565b611c1e565b610471610a0b36600461436d565b611c3b565b6104ae610a1e3660046147e2565b611cb3565b6104ae610a3136600461450c565b611d03565b6104d7611d95565b6104ae610a4c36600461443e565b611da4565b6104ae610a5f36600461431d565b611e3c565b610a7a5f516020614b275f395f51905f52611e9d565b610ac284610abd8585858080601f0160208091040260200160405190810160405280939291908181526020018383808284375f92019190915250611ea792505050565b611f0d565b50505050565b5f610ad282611f6e565b92915050565b5f610ad282611f92565b335f9081526011602052604090205460ff1683839091610b2c5760405163772141a960e11b815260048101929092526001600160a01b031660248201526044015b60405180910390fd5b50508015610b4357610b3e8383611fba565b505050565b610b3e8383612025565b606060038054610b5c9061486b565b80601f0160208091040260200160405190810160405280929190818152602001828054610b889061486b565b8015610bd35780601f10610baa57610100808354040283529160200191610bd3565b820191905f5260205f20905b815481529060010190602001808311610bb657829003601f168201915b5050505050905090565b5f610bf45f516020614b275f395f51905f52611e9d565b610bfe823361206b565b82339091610c31576040516367cfe80560e01b815260048101929092526001600160a01b03166024820152604401610b23565b50505f610c3e8484612076565b9050610c4a81336120b7565b509392505050565b610c685f516020614b275f395f51905f52611e9d565b610c72813361206b565b81339091610ca5576040516367cfe80560e01b815260048101929092526001600160a01b03166024820152604401610b23565b5050610cb18282611f0d565b5050565b5f610ccc5f516020614b275f395f51905f52611e9d565b5f610d1586610d108787878080601f0160208091040260200160405190810160405280939291908181526020018383808284375f92019190915250611ea792505050565b6120da565b9050610d2181336120b7565b5095945050505050565b6001600160a01b038281165f818152600a602052604090205490911690331480610d6f5750336001600160a01b038216148015610d6f57506001600160a01b038216155b610d8b576040516282b42960e81b815260040160405180910390fd5b816001600160a01b0316816001600160a01b031614610b3e576001600160a01b03821615610ddf576001600160a01b0383165f908152602081905260409020548015610ddd57610ddb81846120b7565b505b505b6001600160a01b038381165f818152600a6020908152604091829020805473ffffffffffffffffffffffffffffffffffffffff19168786169081179091558251938452938516908301528101919091527fad4bc30e1189aef94c7b30a5e1268679357170a0797dccd08d578750ceee9b5a9060600160405180910390a1505050565b335f8181526011602052604081205490919060ff16610e9f57604051637829cb0960e01b81526001600160a01b039091166004820152602401610b23565b50506001600160a01b0381165f908152602081905260409020548015610ecb57610ec9813361211b565b505b919050565b6001600160a01b0381165f9081527f7538a7ab1fa765bf1b41674abec47596fc024c3caae16b632ff4f0fec743a9f1602052604081205460ff16610ad2565b6001600160a01b0381165f9081527fec8156718a8372b1db44bb411437d0870f3e3790d4a08526d024ce1b0b668f6b602052604081205460ff16610ad2565b5f82815260096020526040902060010154610f6881611e9d565b610ac28383612137565b5f610fbc3386610fb78787878080601f0160208091040260200160405190810160405280939291908181526020018383808284375f92019190915250611ea792505050565b6121e2565b95945050505050565b5f610fd08833611a4a565b8833909161100457604051630f3e596760e31b81526001600160a01b03928316600482015291166024820152604401610b23565b5050611051888861104a8989898080601f0160208091040260200160405190810160405280939291908181526020018383808284375f92019190915250611ea792505050565b8686612260565b98975050505050505050565b6001600160a01b03811633146110865760405163334bd91960e11b815260040160405180910390fd5b610b3e82826122c3565b6110a65f516020614b275f395f51905f52611e9d565b6110af81612348565b50565b5f6110e46110bf83612352565b6001600160a01b0385165f908152600f602052604090209065ffffffffffff166123a0565b9392505050565b6111015f516020614b275f395f51905f52611e9d565b6110af816123ab565b6111205f516020614b275f395f51905f52611e9d565b5f61112961145e565b9050806111495760405163f5a7175160e01b815260040160405180910390fd5b611152816123b6565b5060138190556040518181527f68a364cb57315e9a5abb5470c1bde3c91a0c515af056d8d3054d9a5ba8062b649060200160405180910390a150565b6111a45f516020614b275f395f51905f52611e9d565b6111ac6123d5565b565b5f6111c55f516020614b275f395f51905f52611e9d565b6111cf823361206b565b82339091611202576040516367cfe80560e01b815260048101929092526001600160a01b03166024820152604401610b23565b50505f6112108585856121e2565b905061121c81336120b7565b50949350505050565b606061122f612427565b65ffffffffffff1661123f6115e7565b65ffffffffffff1614611265576040516301bfc1c560e61b815260040160405180910390fd5b5060408051808201909152601d81527f6d6f64653d626c6f636b6e756d6265722666726f6d3d64656661756c74000000602082015290565b5f6112a8843361206b565b843390916112db576040516367cfe80560e01b815260048101929092526001600160a01b03166024820152604401610b23565b5050610fbc3386868686612260565b6013548061130b5760405163b42733ab60e01b815260040160405180910390fd5b6040805160018082528183019092525f916020808301908036833701905050905081815f8151811061133f5761133f6148b1565b6020026020010181815250506113b38186604051602001611370919067ffffffffffffffff91909116815260200190565b60408051601f198184030181526020601f8901819004810284018101909252878352919088908890819084018382808284375f9201919091525061243192505050565b6012805467ffffffffffffffff191667ffffffffffffffff87161790556113d86115e7565b601280546dffffffffffff000000000000000019166801000000000000000065ffffffffffff938416810291909117918290555f6013556040805167ffffffffffffffff8a1681529190920490921660208301527f7eade2a7e6949a6994d869be779709a280e9a57fed22fc6a61c73cccd99993ae910160405180910390a15050505050565b5f61146761249c565b905090565b5f611477823361206b565b823390916114aa576040516367cfe80560e01b815260048101929092526001600160a01b03166024820152604401610b23565b50506110e43384846121e2565b6110af33826124a6565b5f61146760085460ff1690565b5f6114e55f516020614b275f395f51905f52611e9d565b5f61152a8787610fb78888888080601f0160208091040260200160405190810160405280939291908181526020018383808284375f92019190915250611ea792505050565b905061153681336120b7565b509695505050505050565b6115575f516020614b275f395f51905f52611e9d565b6111ac612524565b5f6060805f5f5f6060611570612561565b61157861258e565b604080515f80825260208201909252600f60f81b9b939a50919850469750309650945092509050565b6115aa5f611e9d565b610cb15f516020614b275f395f51905f5282612137565b5f6114676125bb565b5f610ad26115d783612352565b60109065ffffffffffff166123a0565b5f611467612427565b606060048054610b5c9061486b565b6116085f611e9d565b610cb15f516020614b275f395f51905f52826122c3565b6001600160a01b0381165f908152600f60205260408120610ad2906125ef565b5f6116565f516020614b275f395f51905f52611e9d565b5f610d158661169a8787878080601f0160208091040260200160405190810160405280939291908181526020018383808284375f92019190915250611ea792505050565b612076565b5f6116b65f516020614b275f395f51905f52611e9d565b816001600160a01b0316836001600160a01b0316036116e85760405163a2349b2d60e01b815260040160405180910390fd5b6001600160a01b0383165f908152602081905260408120549061170a85611c1e565b9050801561171c5761171c855f611f0d565b5f6117288686856121e2565b905061173481336120b7565b5081156117685761175a85610abd61174b88611c1e565b61175585876125f9565b612627565b61176886610abd8484612671565b6001600160a01b0386165f9081526007602052604090205460ff16600181600281111561179757611797614478565b036117a5576117a5866123ab565b856001600160a01b0316876001600160a01b03167f9a7018cbbd81c1bbc35a236f23c1da911cc8cdc67540dcbe9d067c7a43d79397846040516117ea91815260200190565b60405180910390a35095945050505050565b604080515f8152602081019091526060908267ffffffffffffffff8111156118265761182661489d565b60405190808252806020026020018201604052801561185957816020015b60608152602001906001900390816118445790505b5091505f5b838110156118da576118b53086868481811061187c5761187c6148b1565b905060200281019061188e91906148ec565b856040516020016118a19392919061492f565b604051602081830303815290604052612689565b8382815181106118c7576118c76148b1565b602090810291909101015260010161185e565b505092915050565b5f610ad28261271a565b6118f55f611e9d565b6001600160a01b0382165f81815260116020908152604091829020805460ff191685151590811790915591519182527f96bf850214e832f3d463d74cdf933b2aa73175e078496bd11f5e8afaeb2bbb9c91015b60405180910390a25050565b6040805160018082528183019092525f916020808301908036833701905050905084815f81518110611988576119886148b1565b6020026020010181815250505f846040516020016119b6919067ffffffffffffffff91909116815260200190565b60408051601f198184030181526020601f87018190048102840181019092528583529250611a0291849184919088908890819084018382808284375f9201919091525061243192505050565b60405167ffffffffffffffff8616815286907f83bbbc07896439e5d950a6cead04cbc676180af7a61cecf43f5296475057f571906020015b60405180910390a2505050505050565b5f816001600160a01b0316836001600160a01b031614806110e45750506001600160a01b039182165f90815260016020908152604080832093909416825291909152205465ffffffffffff1642111590565b83421115611ac057604051632341d78760e11b815260048101859052602401610b23565b604080517fe48329057bfd03d55e49b547132e39cffd9c1820ad7b9d4c5307691425d15adf60208201526001600160a01b0388169181019190915260608101869052608081018590525f90611b3990611b319060a00160405160208183030381529060405280519060200120612751565b85858561277d565b9050611b4581876127a9565b611b4f81886124a6565b50505050505050565b5f611b63843361206b565b84339091611b96576040516367cfe80560e01b815260048101929092526001600160a01b03166024820152604401610b23565b5050611ba28633611a4a565b86339091611bd657604051630f3e596760e31b81526001600160a01b03928316600482015291166024820152604401610b23565b5050611be58686868686612260565b9695505050505050565b610cb13383836127fb565b5f82815260096020526040902060010154611c1481611e9d565b610ac283836122c3565b6001600160a01b0381165f90815260066020526040812054610ad2565b611c45813361206b565b81339091611c78576040516367cfe80560e01b815260048101929092526001600160a01b03166024820152604401610b23565b5050611c83816123b6565b50604051339082907f189c3bfae2e5ce7726b29d57bb6ed0f1a7ebcd153a863ff5ecb6cd998064c98c905f90a350565b5f611cf8338861104a8989898080601f0160208091040260200160405190810160405280939291908181526020018383808284375f92019190915250611ea792505050565b979650505050505050565b5f611d0e8633611a4a565b86339091611d4257604051630f3e596760e31b81526001600160a01b03928316600482015291166024820152604401610b23565b50505f611d898787610fb78888888080601f0160208091040260200160405190810160405280939291908181526020018383808284375f92019190915250611ea792505050565b9050611536813361211b565b606060058054610b5c9061486b565b5f611daf823361206b565b82339091611de2576040516367cfe80560e01b815260048101929092526001600160a01b03166024820152604401610b23565b5050611dee8433611a4a565b84339091611e2257604051630f3e596760e31b81526001600160a01b03928316600482015291166024820152604401610b23565b50505f611e308585856121e2565b905061121c813361211b565b5f611e535f516020614b275f395f51905f52611e9d565b611e5d823361206b565b82339091611e90576040516367cfe80560e01b815260048101929092526001600160a01b03166024820152604401610b23565b50505f610c3e84846120da565b6110af8133612872565b5f81515f14611ec357611ebc838360056128c6565b9050610ad2565b825f819003611edd57611ed55f6129c0565b915050610ad2565b611ee781336129d6565b611ebc57604051630276b5d960e01b815260048101829052336024820152604401610b23565b611f1681612a5a565b50611f2181836120b7565b506001600160a01b0382165f8181526006602052604090819020839055517f860c6cd6e548f4b1633f501f87411a56567b69fb0894294661dd6fbfd3dfef80906119489084815260200190565b5f6001600160e01b031982166372bf7dcb60e01b1480610ad25750610ad282612a76565b5f5f611f9d83612a9a565b9050611fa881612a5a565b50611fb381846120b7565b5092915050565b5f516020614b475f395f51905f528054604051635ca4b5b160e11b8152600481018590526001600160a01b0384811660248301529091169063b9496b62906044015b5f604051808303815f87803b158015612013575f5ffd5b505af1158015611b4f573d5f5f3e3d5ffd5b5f516020614b475f395f51905f528054604051630f8e573b60e21b8152600481018590526001600160a01b03848116602483015290911690633e395cec90604401611ffc565b5f6110e483836129d6565b5f806001600160a01b0384166120ab5760405163ee457ebf60e01b81526001600160a01b039091166004820152602401610b23565b506110e4835f84612ac4565b5f826120c9576120c65f6129c0565b92505b6120d38383611fba565b5090919050565b5f806001600160a01b03841661210f57604051638d51880160e01b81526001600160a01b039091166004820152602401610b23565b506110e45f8484612ac4565b5f8261212d5761212a5f6129c0565b92505b6120d38383612025565b5f8281526009602090815260408083206001600160a01b038516845290915281205460ff166121db575f8381526009602090815260408083206001600160a01b03861684529091529020805460ff191660011790556121933390565b6001600160a01b0316826001600160a01b0316847f2f8788117e7eff1d82e926ec794901d17c78024a50270940304540a733656f0d60405160405180910390a4506001610ad2565b505f610ad2565b5f806001600160a01b0385166122175760405163ee457ebf60e01b81526001600160a01b039091166004820152602401610b23565b505f6001600160a01b03841661224c57604051638d51880160e01b81526001600160a01b039091166004820152602401610b23565b50612258848484612ac4565b949350505050565b5f5f61226d8787876121e2565b90505f61227e338989858989612ad0565b90505f61229e888a612299856122935f6129c0565b88612bc7565b612ac4565b90506122aa8382612c06565b93506122b6843361211b565b5050505095945050505050565b5f8281526009602090815260408083206001600160a01b038516845290915281205460ff16156121db575f8381526009602090815260408083206001600160a01b0386168085529252808320805460ff1916905551339286917ff6391f5c32d9c69d2a47ea670b442974b53935d1edc7fd64eb21e047a839171b9190a4506001610ad2565b6110af815f612c34565b5f5f61235c6115e7565b90508065ffffffffffff16831061239757604051637669fc0f60e11b81526004810184905265ffffffffffff82166024820152604401610b23565b6110e483612ce9565b5f6110e48383612d1b565b6110af816001612c34565b5f816123c8576123c55f6129c0565b91505b6123d182612db9565b5090565b6123dd612e37565b6008805460ff191690557f5db9ee0a495bf2e6ff9c91a7834c1ba4fdd244a5e8aa4e537bd38aeae4b073aa335b6040516001600160a01b03909116815260200160405180910390a1565b5f61146743612ce9565b5f61243d848484612e5c565b90508061245d5760405163cf6c44e960e01b815260040160405180910390fd5b7fc6366bab028b8d033cb362cfd1f2f3457ef4e92fc738b6788b90d5a7846367a0848460405161248e92919061498c565b60405180910390a150505050565b5f61146760025490565b6001600160a01b038281165f818152600e6020526040808220805486861673ffffffffffffffffffffffffffffffffffffffff19821681179092559151919094169392849290917f3134e8a2e6d97e929a7e54011ea5485d7d196dd5f0ba4d4ef95803e8e3fc257f9190a4610b3e818361251f86612f00565b612f1d565b61252c613076565b6008805460ff191660011790557f62e78cea01bee320cd4e420270b5ea74000d11b0c9f74754ebdbfc544b05a25861240a3390565b60606114677f0000000000000000000000000000000000000000000000000000000000000000600c613099565b60606114677f0000000000000000000000000000000000000000000000000000000000000000600d613099565b5f466001036125ca5750600190565b4662aa36a7036125db575061271190565b46617a69036125ea57505f1990565b505f90565b5f610ad28261313b565b5f8261260b576126085f6129c0565b92505b8161261c576126195f6129c0565b91505b6110e483835f613165565b5f82612634575080610ad2565b81612640575081610ad2565b5f61264b8484613218565b905061225861265a8286613246565b8261266c67ffffffffffffffff6129c0565b612bc7565b5f5f61267d84846125f9565b90506122588482612c06565b60605f6126968484613274565b90508080156126b757505f3d11806126b757505f846001600160a01b03163b115b156126c457611ed5613287565b80156126ee57604051639996b31560e01b81526001600160a01b0385166004820152602401610b23565b3d15612701576126fc6132a0565b611fb3565b60405163d6bda27560e01b815260040160405180910390fd5b5f60016001600160a01b0383165f9081526007602052604090205460ff16600281111561274957612749614478565b141592915050565b5f610ad261275d6132ab565b8360405161190160f01b8152600281019290925260228201526042902090565b5f5f5f5f61278d888888886133d4565b92509250925061279d828261349c565b50909695505050505050565b6001600160a01b0382165f908152600b60205260409020805460018101909155818114610b3e576040516301d4b62360e61b81526001600160a01b038416600482015260248101829052604401610b23565b6001600160a01b038381165f81815260016020908152604080832094871680845294825291829020805465ffffffffffff191665ffffffffffff871690811790915591519182527f921a218a75d18e8ec5704851e6b234a85725b21a2521ce889622c35dedc1fa12910160405180910390a3505050565b5f8281526009602090815260408083206001600160a01b038516845290915290205460ff16610cb15760405163e2517d3f60e01b81526001600160a01b038216600482015260248101839052604401610b23565b5f516020614b075f395f51905f525460405163045fc19560e11b81525f915f516020614b475f395f51905f52916001600160a01b03909116906308bf832a906129199088903390899089906004016149c4565b6020604051808303815f875af1158015612935573d5f5f3e3d5ffd5b505050506040513d601f19601f8201168201806040525081019061295991906149fa565b8154604051630f8e573b60e21b8152600481018390523360248201529193506001600160a01b031690633e395cec906044015f604051808303815f87803b1580156129a2575f5ffd5b505af11580156129b4573d5f5f3e3d5ffd5b50505050509392505050565b5f610ad28267ffffffffffffffff166005613554565b5f805f516020614b475f395f51905f5280546040516382027b6d60e01b8152600481018790526001600160a01b0386811660248301529293509116906382027b6d90604401602060405180830381865afa158015612a36573d5f5f3e3d5ffd5b505050506040513d601f19601f820116820180604052508101906122589190614a11565b5f81612a6c57612a695f6129c0565b91505b6123d18230611fba565b5f6001600160e01b03198216637965db0b60e01b1480610ad25750610ad2826135e3565b6001600160a01b0381165f90815260208190526040812054610ad290612abf84611c1e565b612671565b5f612258848484613617565b5f6001600160a01b0385163b15612bbd576040516346083bfd60e01b81526001600160a01b038616906346083bfd90612b15908a908a90899089908990600401614a2c565b6020604051808303815f875af1925050508015612b4f575060408051601f3d908101601f19168201909252612b4c918101906149fa565b60015b612bb6573d808015612b7c576040519150601f19603f3d011682016040523d82523d5f602084013e612b81565b606091505b5080515f03612bae57604051638d51880160e01b81526001600160a01b0387166004820152602401610b23565b805181602001fd5b9050611be5565b612bb66001613630565b5f83612bd957612bd65f613630565b93505b82612bea57612be75f6129c0565b92505b81612bfb57612bf85f6129c0565b91505b61225884848461364b565b5f82612c1857612c155f6129c0565b92505b81612c2957612c265f6129c0565b91505b6110e483835f6136d8565b806002811115612c4657612c46614478565b6001600160a01b0383165f9081526007602052604090205460ff166002811115612c7257612c72614478565b14610cb1576001600160a01b0382165f908152600760205260409020805482919060ff19166001836002811115612cab57612cab614478565b0217905550816001600160a01b03167f6b9ca49164c347717e703176344ddbf5c05f7bd18ad63dd9e64b385b261bd4a182604051611948919061448c565b5f65ffffffffffff8211156123d1576040516306dfcc6560e41b81526030600482015260248101839052604401610b23565b81545f9081816005811115612d6e575f612d348461374f565b612d3e90856148d9565b5f88815260209020909150600282020154861015612d5e57809150612d6c565b612d69816001614a81565b92505b505b5f612d7b878785856138b4565b90508015612dad57612da487612d926001846148d9565b5f918252602090912060029091020190565b60010154611cf8565b5f979650505050505050565b6040805160018082528183019092525f516020614b475f395f51905f52915f91906020808301908036833701905050905082815f81518110612dfd57612dfd6148b1565b60209081029190910101528154604051637d6e912360e11b81526001600160a01b039091169063fadd224690611ffc908490600401614a94565b612e3f6114c1565b6111ac57604051638dfc202b60e01b815260040160405180910390fd5b7f9e7b61f58c47dc699ac88507c4f5bb9f121c03808c5676a8078fe583e4649702546040516378542ead60e01b81525f915f516020614b475f395f51905f52916001600160a01b03909116906378542ead90612ec090889088908890600401614aa6565b6020604051808303815f875af1158015612edc573d5f5f3e3d5ffd5b505050506040513d601f19601f82011682018060405250810190610fbc9190614a11565b6001600160a01b0381165f90815260208190526040812054610ad2565b5f826001600160a01b0316846001600160a01b031614158015612f3f57508115155b15610ac2576001600160a01b03841615612fe057506001600160a01b0383165f908152600f6020526040812090612f7f83612f79846125ef565b90612c06565b9050612f8a81612a5a565b505f612f9683836138fe565b60408051828152602081018590529192506001600160a01b038816917fe6b394e3516d0a313961eb80cd405f50443cde338bc1f7e961a362f4203bfef0910160405180910390a250505b6001600160a01b03831615610ac257506001600160a01b0382165f908152600f602052604081209061301b83613015846125ef565b90613218565b905061302681612a5a565b505f61303283836138fe565b60408051828152602081018590529192506001600160a01b038716917fe6b394e3516d0a313961eb80cd405f50443cde338bc1f7e961a362f4203bfef09101611a3a565b61308a5f356001600160e01b03191661391b565b1561309157565b6111ac61396b565b606060ff83146130ac57611ebc83613991565b8180546130b89061486b565b80601f01602080910402602001604051908101604052809291908181526020018280546130e49061486b565b801561312f5780601f106131065761010080835404028352916020019161312f565b820191905f5260205f20905b81548152906001019060200180831161311257829003601f168201915b50505050509050610ad2565b80545f90801561315d5761315483612d926001846148d9565b600101546110e4565b5f9392505050565b5f5f82156131785750600160f81b61317b565b505f5b5f516020614b075f395f51905f52546040516304559f7160e01b815260048101879052602481018690526001600160f81b0319831660448201525f516020614b475f395f51905f52916001600160a01b0316906304559f71906064015b6020604051808303815f875af11580156131f4573d5f5f3e3d5ffd5b505050506040513d601f19601f82011682018060405250810190611be591906149fa565b5f8261322a576132275f6129c0565b92505b8161323b576132385f6129c0565b91505b6110e483835f6139ce565b5f82613258576132555f6129c0565b92505b81613269576132665f6129c0565b91505b6110e483835f613a45565b5f5f5f835160208501865af49392505050565b6040513d81523d5f602083013e3d602001810160405290565b6040513d5f823e3d81fd5b5f306001600160a01b037f00000000000000000000000000000000000000000000000000000000000000001614801561330357507f000000000000000000000000000000000000000000000000000000000000000046145b1561332d57507f000000000000000000000000000000000000000000000000000000000000000090565b611467604080517f8b73c3c69bb8fe3d512ecc4cf759cc79239f7b179b0ffacaa9a75d522b39400f60208201527f0000000000000000000000000000000000000000000000000000000000000000918101919091527f000000000000000000000000000000000000000000000000000000000000000060608201524660808201523060a08201525f9060c00160405160208183030381529060405280519060200120905090565b5f80807f7fffffffffffffffffffffffffffffff5d576e7357a4501ddfe92f46681b20a084111561340d57505f91506003905082613492565b604080515f808252602082018084528a905260ff891692820192909252606081018790526080810186905260019060a0016020604051602081039080840390855afa15801561345e573d5f5f3e3d5ffd5b5050604051601f1901519150506001600160a01b03811661348957505f925060019150829050613492565b92505f91508190505b9450945094915050565b5f8260038111156134af576134af614478565b036134b8575050565b60018260038111156134cc576134cc614478565b036134ea5760405163f645eedf60e01b815260040160405180910390fd5b60028260038111156134fe576134fe614478565b0361351f5760405163fce698f760e01b815260048101829052602401610b23565b600382600381111561353357613533614478565b03610cb1576040516335e2f38360e21b815260048101829052602401610b23565b5f516020614b075f395f51905f5254604051639cd07acb60e01b81525f915f516020614b475f395f51905f52916001600160a01b0390911690639cd07acb906135a39087908790600401614ade565b6020604051808303815f875af11580156135bf573d5f5f3e3d5ffd5b505050506040513d601f19601f8201168201806040525081019061225891906149fa565b5f6001600160e01b031982166312563ca960e21b1480610ad257506301ffc9a760e01b6001600160e01b0319831614610ad2565b5f613623848484613abc565b90506110e4848483613b90565b5f610ad28261363f575f613642565b60015b60ff165f613554565b5f805f516020614b475f395f51905f526001810154604051637702dcff60e01b81526004810188905260248101879052604481018690529192506001600160a01b031690637702dcff906064016020604051808303815f875af11580156136b4573d5f5f3e3d5ffd5b505050506040513d601f19601f82011682018060405250810190610fbc91906149fa565b5f5f82156136eb5750600160f81b6136ee565b505f5b5f516020614b075f395f51905f52546040516303056db360e31b815260048101879052602481018690526001600160f81b0319831660448201525f516020614b475f395f51905f52916001600160a01b03169063182b6d98906064016131d8565b5f6001821161375c575090565b81600170010000000000000000000000000000000082106137825760809190911c9060401b5b68010000000000000000821061379d5760409190911c9060201b5b64010000000082106137b45760209190911c9060101b5b6201000082106137c95760109190911c9060081b5b61010082106137dd5760089190911c9060041b5b601082106137f05760049190911c9060021b5b600482106137fc5760011b5b600302600190811c9081858161381457613814614af2565b048201901c9050600181858161382c5761382c614af2565b048201901c9050600181858161384457613844614af2565b048201901c9050600181858161385c5761385c614af2565b048201901c9050600181858161387457613874614af2565b048201901c9050600181858161388c5761388c614af2565b048201901c90506138ab8185816138a5576138a5614af2565b04821190565b90039392505050565b5f5b81831015610c4a575f600283851804838516015f87815260209020909150859060028302015411156138ea578092506138f8565b6138f5816001614a81565b93505b506138b6565b5f5f61121c61390b6115e7565b859065ffffffffffff1685613bf7565b5f636c9c3c8560e01b6001600160e01b03198316148061394b5750630113f5b960e61b6001600160e01b03198316145b80610ad257506001600160e01b03198216632899dcb160e21b1492915050565b6139736114c1565b156111ac5760405163d93c066560e01b815260040160405180910390fd5b60605f61399d83613c14565b6040805160208082528183019092529192505f91906020820181803683375050509182525060208101929092525090565b5f5f82156139e15750600160f81b6139e4565b505f5b5f516020614b075f395f51905f525460405163022f65e760e31b815260048101879052602481018690526001600160f81b0319831660448201525f516020614b475f395f51905f52916001600160a01b03169063117b2f38906064016131d8565b5f5f8215613a585750600160f81b613a5b565b505f5b5f516020614b075f395f51905f5254604051631391547f60e01b815260048101879052602481018690526001600160f81b0319831660448201525f516020614b475f395f51905f52916001600160a01b031690631391547f906064016131d8565b5f613ac8848484613c3b565b6001600160a01b038581165f908152600a6020526040808220548784168352912054929350811691168115613b2b57613b1e613b18876001600160a01b03165f9081526020819052604090205490565b836120b7565b50613b2983836120b7565b505b6001600160a01b03811615613b8757613b61613b5b866001600160a01b03165f9081526020819052604090205490565b826120b7565b50816001600160a01b0316816001600160a01b031614613b8757613b8583826120b7565b505b50509392505050565b6001600160a01b0383161580613bad57506001600160a01b038216155b15613bc657613bc46010613bbf61145e565b6138fe565b505b6001600160a01b038381165f908152600e6020526040808220548584168352912054610b3e92918216911683612f1d565b5f808080613c06878787613c4f565b909890975095505050505050565b5f60ff8216601f811115610ad257604051632cd44ac360e21b815260040160405180910390fd5b5f613c44613076565b612258848484613c69565b5f80613c5c858585613c87565b915091505b935093915050565b5f613c7384613d6c565b613c7c83613d6c565b612258848484613d91565b82545f9081908015613d28575f613ca387612d926001856148d9565b805460018201549192509087821115613ccf57604051632520601d60e01b815260040160405180910390fd5b878203613ce25760018301879055613d1a565b6040805180820190915288815260208082018981528b5460018181018e555f8e81529390932093516002909102909301928355519101555b9450859350613c6192505050565b50506040805180820190915283815260208082018481528654600181810189555f898152938420945160029092029094019081559051920191909155905081613c61565b613d805f356001600160e01b03191661391b565b15613d885750565b6110af81613dd3565b5f6001600160a01b03841615613dc8575f613dab85612a9a565b9050613dc4613dba8483613deb565b8461266c5f6129c0565b9250505b612258848484613e19565b6001600160a01b038116156110af576110af81613fc5565b5f82613dfd57613dfa5f6129c0565b92505b81613e0e57613e0b5f6129c0565b91505b6110e483835f613ff9565b5f80806001600160a01b038616613e4f57613e3660025485614070565b9092509050613e4481612a5a565b506002819055613ea7565b6001600160a01b0386165f90815260208190526040902054613e7181866140ba565b9093509150613e7f82612a5a565b50613e8a82886120b7565b50506001600160a01b0386165f9081526020819052604090208190555b613eb5828561266c5f6129c0565b92506001600160a01b038516613ee757613ed160025484612c06565b9050613edc81612a5a565b506002819055613f3b565b6001600160a01b0385165f90815260208190526040902054613f099084613218565b9050613f1481612a5a565b50613f1f81866120b7565b506001600160a01b0385165f9081526020819052604090208190555b6001600160a01b03861615613f5657613f5483876120b7565b505b6001600160a01b03851615613f7157613f6f83866120b7565b505b613f7a83612a5a565b5082856001600160a01b0316876001600160a01b03167f67500e8d0ed826d2194f514dd0d8124f35648ab6e3fb5e6ed867134cffe661e960405160405180910390a450509392505050565b613fce816118e2565b8190610cb15760405163f2273d5760e01b81526001600160a01b039091166004820152602401610b23565b5f5f821561400c5750600160f81b61400f565b505f5b5f516020614b075f395f51905f5254604051631d44e90160e21b815260048101879052602481018690526001600160f81b0319831660448201525f516020614b475f395f51905f52916001600160a01b031690637513a404906064016131d8565b5f808361408b576140816001613630565b83915091506140b3565b5f6140968585613218565b90506140a28186613246565b92506140af838287612bc7565b9150505b9250929050565b5f80836140f657826140da576140d06001613630565b84915091506140b3565b6140e4835f61411f565b6140ed5f6129c0565b915091506140b3565b6141008484613246565b9150614116826141108686612c06565b86612bc7565b90509250929050565b5f826141315761412e5f6129c0565b92505b6110e48367ffffffffffffffff841660015f600160f81b5f516020614b075f395f51905f525460405163f77f3f1d60e01b815260048101879052602481018690526001600160f81b0319831660448201525f516020614b475f395f51905f52916001600160a01b03169063f77f3f1d906064016131d8565b80356001600160a01b0381168114610ecb575f5ffd5b5f5f83601f8401126141cf575f5ffd5b50813567ffffffffffffffff8111156141e6575f5ffd5b6020830191508360208285010111156140b3575f5ffd5b5f5f5f5f60608587031215614210575f5ffd5b614219856141a9565b935060208501359250604085013567ffffffffffffffff81111561423b575f5ffd5b614247878288016141bf565b95989497509550505050565b5f60208284031215614263575f5ffd5b81356001600160e01b0319811681146110e4575f5ffd5b5f6020828403121561428a575f5ffd5b6110e4826141a9565b80151581146110af575f5ffd5b5f5f5f606084860312156142b2575f5ffd5b833592506142c2602085016141a9565b915060408401356142d281614293565b809150509250925092565b5f81518084528060208401602086015e5f602082860101526020601f19601f83011685010191505092915050565b602081525f6110e460208301846142dd565b5f5f6040838503121561432e575f5ffd5b614337836141a9565b946020939093013593505050565b5f5f60408385031215614356575f5ffd5b61435f836141a9565b9150614116602084016141a9565b5f6020828403121561437d575f5ffd5b5035919050565b5f5f60408385031215614395575f5ffd5b82359150614116602084016141a9565b5f5f5f5f5f5f5f60a0888a0312156143bb575f5ffd5b6143c4886141a9565b96506143d2602089016141a9565b955060408801359450606088013567ffffffffffffffff8111156143f4575f5ffd5b6144008a828b016141bf565b909550935050608088013567ffffffffffffffff81111561441f575f5ffd5b61442b8a828b016141bf565b989b979a50959850939692959293505050565b5f5f5f60608486031215614450575f5ffd5b614459846141a9565b9250614467602085016141a9565b929592945050506040919091013590565b634e487b7160e01b5f52602160045260245ffd5b60208101600383106144a0576144a0614478565b91905290565b803567ffffffffffffffff81168114610ecb575f5ffd5b5f5f5f604084860312156144cf575f5ffd5b6144d8846144a6565b9250602084013567ffffffffffffffff8111156144f3575f5ffd5b6144ff868287016141bf565b9497909650939450505050565b5f5f5f5f5f60808688031215614520575f5ffd5b614529866141a9565b9450614537602087016141a9565b935060408601359250606086013567ffffffffffffffff811115614559575f5ffd5b614565888289016141bf565b969995985093965092949392505050565b60ff60f81b8816815260e060208201525f61459460e08301896142dd565b82810360408401526145a681896142dd565b606084018890526001600160a01b038716608085015260a0840186905283810360c0850152845180825260208087019350909101905f5b818110156145fb5783518352602093840193909201916001016145dd565b50909b9a5050505050505050505050565b5f5f6020838503121561461d575f5ffd5b823567ffffffffffffffff811115614633575f5ffd5b8301601f81018513614643575f5ffd5b803567ffffffffffffffff811115614659575f5ffd5b8560208260051b840101111561466d575f5ffd5b6020919091019590945092505050565b5f602082016020835280845180835260408501915060408160051b8601019250602086015f5b828110156146d457603f198786030184526146bf8583516142dd565b945060209384019391909101906001016146a3565b50929695505050505050565b5f5f604083850312156146f1575f5ffd5b6146fa836141a9565b9150602083013561470a81614293565b809150509250929050565b5f5f5f5f60608587031215614728575f5ffd5b84359350614738602086016144a6565b9250604085013567ffffffffffffffff81111561423b575f5ffd5b5f5f5f5f5f5f60c08789031215614768575f5ffd5b614771876141a9565b95506020870135945060408701359350606087013560ff81168114614794575f5ffd5b9598949750929560808101359460a0909101359350915050565b5f5f604083850312156147bf575f5ffd5b6147c8836141a9565b9150602083013565ffffffffffff8116811461470a575f5ffd5b5f5f5f5f5f5f608087890312156147f7575f5ffd5b614800876141a9565b955060208701359450604087013567ffffffffffffffff811115614822575f5ffd5b61482e89828a016141bf565b909550935050606087013567ffffffffffffffff81111561484d575f5ffd5b61485989828a016141bf565b979a9699509497509295939492505050565b600181811c9082168061487f57607f821691505b602082108103610ec957634e487b7160e01b5f52602260045260245ffd5b634e487b7160e01b5f52604160045260245ffd5b634e487b7160e01b5f52603260045260245ffd5b634e487b7160e01b5f52601160045260245ffd5b81810381811115610ad257610ad26148c5565b5f5f8335601e19843603018112614901575f5ffd5b83018035915067ffffffffffffffff82111561491b575f5ffd5b6020019150368190038213156140b3575f5ffd5b828482375f8382015f815283518060208601835e5f910190815295945050505050565b5f8151808452602084019350602083015f5b82811015614982578151865260209586019590910190600101614964565b5093949350505050565b604081525f61499e6040830185614952565b8281036020840152610fbc81856142dd565b605481106149c0576149c0614478565b9052565b8481526001600160a01b0384166020820152608060408201525f6149eb60808301856142dd565b9050610fbc60608301846149b0565b5f60208284031215614a0a575f5ffd5b5051919050565b5f60208284031215614a21575f5ffd5b81516110e481614293565b6001600160a01b03861681526001600160a01b038516602082015283604082015260806060820152816080820152818360a08301375f81830160a090810191909152601f909201601f19160101949350505050565b80820180821115610ad257610ad26148c5565b602081525f6110e46020830184614952565b606081525f614ab86060830186614952565b8281036020840152614aca81866142dd565b90508281036040840152611be581856142dd565b828152604081016110e460208301846149b0565b634e487b7160e01b5f52601260045260245ffdfe9e7b61f58c47dc699ac88507c4f5bb9f121c03808c5676a8078fe583e4649701cab5a0bfe0b79d2c4b1c2e02599fa044d115b7511f9659307cb42769509677099e7b61f58c47dc699ac88507c4f5bb9f121c03808c5676a8078fe583e4649700a164736f6c634300081b000a",
  "devdoc": {
    "errors": {
      "AccessControlBadConfirmation()": [
        {
          "details": "The caller of a function is not the expected one. NOTE: Don't confuse with {AccessControlUnauthorizedAccount}."
        }
      ],
      "AccessControlUnauthorizedAccount(address,bytes32)": [
        {
          "details": "The `account` is missing a role."
        }
      ],
      "AddressEmptyCode(address)": [
        {
          "details": "There's no code at `target` (it is not a contract)."
        }
      ],
      "CheckpointUnorderedInsertion()": [
        {
          "details": "A value was attempted to be inserted on a past checkpoint."
        }
      ],
      "ECDSAInvalidSignature()": [
        {
          "details": "The signature is invalid."
        }
      ],
      "ECDSAInvalidSignatureLength(uint256)": [
        {
          "details": "The signature has an invalid length."
        }
      ],
      "ECDSAInvalidSignatureS(bytes32)": [
        {
          "details": "The signature has an S value that is in the upper half order."
        }
      ],
      "ERC5805FutureLookup(uint256,uint48)": [
        {
          "details": "Lookup to future votes is not available."
        }
      ],
      "ERC6372InconsistentClock()": [
        {
          "details": "The clock was incorrectly modified."
        }
      ],
      "ERC7984InvalidReceiver(address)": [
        {
          "details": "The given receiver `receiver` is invalid for transfers."
        }
      ],
      "ERC7984InvalidSender(address)": [
        {
          "details": "The given sender `sender` is invalid for transfers."
        }
      ],
      "ERC7984RwaSelfRecoveryNotAllowed()": [
        {
          "details": "The operation failed because the lost account is the same as the new account."
        }
      ],
      "ERC7984UnauthorizedCaller(address)": [
        {
          "details": "The given caller `caller` is not authorized for the current operation."
        }
      ],
      "ERC7984UnauthorizedSpender(address,address)": [
        {
          "details": "The given holder `holder` is not authorized to spend on behalf of `spender`."
        }
      ],
      "ERC7984UnauthorizedUseOfEncryptedAmount(bytes32,address)": [
        {
          "details": "The caller `user` does not have access to the encrypted amount `amount`. NOTE: Try using the equivalent transfer function with an input proof."
        }
      ],
      "EnforcedPause()": [
        {
          "details": "The operation failed because the contract is paused."
        }
      ],
      "ExpectedPause()": [
        {
          "details": "The operation failed because the contract is not paused."
        }
      ],
      "FailedCall()": [
        {
          "details": "A call to an address target failed. The target may have reverted."
        }
      ],
      "InvalidAccountNonce(address,uint256)": [
        {
          "details": "The nonce used for an `account` is not the expected current nonce."
        }
      ],
      "SafeCastOverflowedUintDowncast(uint8,uint256)": [
        {
          "details": "Value doesn't fit in a uint of `bits` size."
        }
      ],
      "Unauthorized()": [
        {
          "details": "Thrown when an account tries to set a `newObserver` for a given `account` without proper authority."
        }
      ],
      "UserRestricted(address)": [
        {
          "details": "The operation failed because the user account is restricted."
        }
      ],
      "VotesExpiredSignature(uint256)": [
        {
          "details": "The signature used has expired."
        }
      ]
    },
    "events": {
      "AmountDiscloseRequested(bytes32,address)": {
        "details": "Emitted when an encrypted amount `encryptedAmount` is requested for disclosure by `requester`."
      },
      "AmountDisclosed(bytes32,uint64)": {
        "details": "Emitted when an encrypted amount is disclosed. Accounts with access to the encrypted amount `encryptedAmount` that is also accessible to this contract should be able to disclose the amount. This functionality is implementation specific."
      },
      "ConfidentialTransfer(address,address,bytes32)": {
        "details": "Emitted when a confidential transfer is made from `from` to `to` of encrypted amount `amount`."
      },
      "DelegateChanged(address,address,address)": {
        "details": "Emitted when an account changes their delegate."
      },
      "DelegateVotesChanged(address,bytes32,bytes32)": {
        "details": "Emitted when a token transfer or delegate change results in changes to a delegate's number of voting units."
      },
      "EIP712DomainChanged()": {
        "details": "MAY be emitted to signal that the domain could have changed."
      },
      "ERC7984ObserverAccessObserverSet(address,address,address)": {
        "details": "Emitted when the observer is changed for the given account `account`."
      },
      "OperatorSet(address,address,uint48)": {
        "details": "Emitted when the expiration timestamp for an operator `operator` is updated for a given `holder`. The operator may move any amount of tokens on behalf of the holder until the timestamp `until`."
      },
      "Paused(address)": {
        "details": "Emitted when the pause is triggered by `account`."
      },
      "RoleAdminChanged(bytes32,bytes32,bytes32)": {
        "details": "Emitted when `newAdminRole` is set as ``role``'s admin role, replacing `previousAdminRole` `DEFAULT_ADMIN_ROLE` is the starting admin for all roles, despite {RoleAdminChanged} not being emitted to signal this."
      },
      "RoleGranted(bytes32,address,address)": {
        "details": "Emitted when `account` is granted `role`. `sender` is the account that originated the contract call. This account bears the admin role (for the granted role). Expected in cases where the role was granted using the internal {AccessControl-_grantRole}."
      },
      "RoleRevoked(bytes32,address,address)": {
        "details": "Emitted when `account` is revoked `role`. `sender` is the account that originated the contract call:   - if using `revokeRole`, it is the admin role bearer   - if using `renounceRole`, it is the role bearer (i.e. `account`)"
      },
      "TokensFrozen(address,bytes32)": {
        "details": "Emitted when a confidential amount of token is frozen for an account"
      },
      "TokensRecovered(address,address,bytes32)": {
        "details": "Emitted when the balance `amount` of `lostAccount` is recovered to `newAccount`."
      },
      "Unpaused(address)": {
        "details": "Emitted when the pause is lifted by `account`."
      },
      "UserRestrictionUpdated(address,uint8)": {
        "details": "Emitted when a user account's restriction is updated."
      }
    },
    "kind": "dev",
    "methods": {
      "CLOCK_MODE()": {
        "details": "Machine-readable description of the clock as specified in ERC-6372."
      },
      "addAgent(address)": {
        "details": "Adds agent."
      },
      "blockUser(address)": {
        "details": "Blocks a user account."
      },
      "canTransact(address)": {
        "details": "Returns whether a user account is allowed to receive or send tokens. Default implementation only disallows explicitly BLOCKED accounts (i.e. a blocklist)."
      },
      "clock()": {
        "details": "Clock used for flagging checkpoints. Can be overridden to implement timestamp based checkpoints (and voting), in which case {CLOCK_MODE} should be overridden as well to match."
      },
      "confidentialAvailable(address)": {
        "details": "Returns the confidential available (unfrozen) balance of an account. Gives ACL allowance to `account`."
      },
      "confidentialBalanceOf(address)": {
        "details": "Returns the confidential balance of the account `account`."
      },
      "confidentialBurn(address,bytes32)": {
        "details": "Burns confidential amount of tokens from account."
      },
      "confidentialBurn(address,bytes32,bytes)": {
        "details": "Burns confidential amount of tokens from account with proof."
      },
      "confidentialFrozen(address)": {
        "details": "Returns the confidential frozen balance of an account."
      },
      "confidentialMint(address,bytes32)": {
        "details": "Mints confidential amount of tokens to account."
      },
      "confidentialMint(address,bytes32,bytes)": {
        "details": "Mints confidential amount of tokens to account with proof."
      },
      "confidentialTransfer(address,bytes32)": {
        "details": "Similar to {confidentialTransfer-address-externalEuint64-bytes} but without an input proof. The caller *must* already be allowed by ACL for the given `amount`."
      },
      "confidentialTransfer(address,bytes32,bytes)": {
        "details": "Transfers the encrypted amount `encryptedAmount` to `to` with the given input proof `inputProof`. Returns the encrypted amount that was actually transferred."
      },
      "confidentialTransferAndCall(address,bytes32,bytes)": {
        "details": "Similar to {confidentialTransfer-address-euint64} but with a callback to `to` after the transfer."
      },
      "confidentialTransferAndCall(address,bytes32,bytes,bytes)": {
        "details": "Similar to {confidentialTransfer-address-externalEuint64-bytes} but with a callback to `to` after the transfer. The callback is made to the {IERC7984Receiver-onConfidentialTransferReceived} function on the to address with the actual transferred amount (may differ from the given `encryptedAmount`) and the given data `data`."
      },
      "confidentialTransferFrom(address,address,bytes32)": {
        "details": "Similar to {confidentialTransferFrom-address-address-externalEuint64-bytes} but without an input proof. The caller *must* be already allowed by ACL for the given `amount`."
      },
      "confidentialTransferFrom(address,address,bytes32,bytes)": {
        "details": "Transfers the encrypted amount `encryptedAmount` from `from` to `to` with the given input proof `inputProof`. `msg.sender` must be either `from` or an operator for `from`. Returns the encrypted amount that was actually transferred."
      },
      "confidentialTransferFromAndCall(address,address,bytes32,bytes)": {
        "details": "Similar to {confidentialTransferFrom-address-address-euint64} but with a callback to `to` after the transfer."
      },
      "confidentialTransferFromAndCall(address,address,bytes32,bytes,bytes)": {
        "details": "Similar to {confidentialTransferFrom-address-address-externalEuint64-bytes} but with a callback to `to` after the transfer."
      },
      "contractURI()": {
        "details": "Returns the contract URI. See https://eips.ethereum.org/EIPS/eip-7572[ERC-7572] for details."
      },
      "delegate(address)": {
        "details": "Delegates votes from the sender to `delegatee`."
      },
      "delegateBySig(address,uint256,uint256,uint8,bytes32,bytes32)": {
        "details": "Delegates votes from an EOA to `delegatee` via an ECDSA signature."
      },
      "delegates(address)": {
        "details": "Returns the delegate that `account` has chosen."
      },
      "discloseEncryptedAmount(bytes32,uint64,bytes)": {
        "details": "Publicly discloses an encrypted value with a given decryption proof. Emits the {AmountDisclosed} event. NOTE: May not be tied to a prior request via {requestDiscloseEncryptedAmount}."
      },
      "eip712Domain()": {
        "details": "returns the fields and values that describe the domain separator used by this contract for EIP-712 signature."
      },
      "forceConfidentialTransferFrom(address,address,bytes32)": {
        "details": "Force transfer callable by the role {AGENT_ROLE} which transfers tokens from `from` to `to` and bypasses the {ERC7984Restricted} (only on from) and https://docs.openzeppelin.com/contracts/api/utils#pausable[`++Pausable++`] checks. Frozen tokens are not transferred and must be unfrozen first."
      },
      "forceConfidentialTransferFrom(address,address,bytes32,bytes)": {
        "details": "Variant of {forceConfidentialTransferFrom-address-address-euint64} with an input proof."
      },
      "getHandleAllowance(bytes32,address,bool)": {
        "details": "Get handle access for the given handle `handle`. Access will be given to the account `account` with the given persistence flag. NOTE: This function call is validated by {_validateHandleAllowance}."
      },
      "getPastTotalSupply(uint256)": {
        "details": "Returns the total supply of votes available at a specific moment in the past. If the {clock} is configured to use block numbers, this will return the value at the end of the corresponding block. NOTE: This value is the sum of all available votes, which is not necessarily the sum of all delegated votes. Votes that have not been delegated are still part of total supply, even though they would not participate in a vote. Requirements: - `timepoint` must be in the past. If operating using block numbers, the block must be already mined."
      },
      "getPastVotes(address,uint256)": {
        "details": "Returns the amount of votes that `account` had at a specific moment in the past. If the {clock} is configured to use block numbers, this will return the value at the end of the corresponding block. Requirements: - `timepoint` must be in the past. If operating using block numbers, the block must be already mined."
      },
      "getRestriction(address)": {
        "details": "Returns the restriction of a user account."
      },
      "getRoleAdmin(bytes32)": {
        "details": "Returns the admin role that controls `role`. See {grantRole} and {revokeRole}. To change a role's admin, use {_setRoleAdmin}."
      },
      "getVotes(address)": {
        "details": "Returns the current amount of votes that `account` has."
      },
      "grantRole(bytes32,address)": {
        "details": "Grants `role` to `account`. If `account` had not been already granted `role`, emits a {RoleGranted} event. Requirements: - the caller must have ``role``'s admin role. May emit a {RoleGranted} event."
      },
      "hasRole(bytes32,address)": {
        "details": "Returns `true` if `account` has been granted `role`."
      },
      "isAdmin(address)": {
        "details": "Returns true if has admin role, false otherwise."
      },
      "isAgent(address)": {
        "details": "Returns true if agent, false otherwise."
      },
      "isOperator(address,address)": {
        "details": "Returns true if `spender` is currently an operator for `holder`."
      },
      "multicall(bytes[])": {
        "custom:oz-upgrades-unsafe-allow-reachable": "delegatecall",
        "details": "Receives and executes a batch of function calls on this contract."
      },
      "name()": {
        "details": "Returns the name of the token."
      },
      "nonces(address)": {
        "details": "Returns the next unused nonce for an address."
      },
      "observer(address)": {
        "details": "Returns the observer for the given account `account`."
      },
      "pause()": {
        "details": "Pauses contract."
      },
      "paused()": {
        "details": "Returns true if the contract is paused, and false otherwise."
      },
      "recoverAddress(address,address)": {
        "details": "Recovers the address of a lost account to a new account."
      },
      "removeAgent(address)": {
        "details": "Removes agent."
      },
      "renounceRole(bytes32,address)": {
        "details": "Revokes `role` from the calling account. Roles are often managed via {grantRole} and {revokeRole}: this function's purpose is to provide a mechanism for accounts to lose their privileges if they are compromised (such as when a trusted device is misplaced). If the calling account had been revoked `role`, emits a {RoleRevoked} event. Requirements: - the caller must be `callerConfirmation`. May emit a {RoleRevoked} event."
      },
      "requestDiscloseEncryptedAmount(bytes32)": {
        "details": "Starts the process to disclose an encrypted amount `encryptedAmount` publicly by making it publicly decryptable. Emits the {AmountDiscloseRequested} event. NOTE: Both `msg.sender` and `address(this)` must have permission to access the encrypted amount `encryptedAmount` to request disclosure of the encrypted amount `encryptedAmount`."
      },
      "revokeRole(bytes32,address)": {
        "details": "Revokes `role` from `account`. If `account` had been granted `role`, emits a {RoleRevoked} event. Requirements: - the caller must have ``role``'s admin role. May emit a {RoleRevoked} event."
      },
      "setConfidentialFrozen(address,bytes32)": {
        "details": "Sets confidential frozen for an account."
      },
      "setConfidentialFrozen(address,bytes32,bytes)": {
        "details": "Sets confidential frozen for an account with proof."
      },
      "setObserver(address,address)": {
        "details": "Sets the observer for the given account `account` to `newObserver`. Can be called by the account or the existing observer to abdicate the observer role (may only set to `address(0)`)."
      },
      "setOperator(address,uint48)": {
        "details": "See {IERC7984-setOperator}. Operators are given ACL allowance (ability to decrypt) for the transferred amount of transfers they initiate."
      },
      "symbol()": {
        "details": "Returns the symbol of the token."
      },
      "unblockUser(address)": {
        "details": "Unblocks a user account."
      },
      "unpause()": {
        "details": "Unpauses contract."
      }
    },
    "title": "CharterShares — a confidential share registry for a private company",
    "version": 1
  },
  "userdoc": {
    "errors": {
      "InvalidKMSSignatures()": [
        {
          "notice": "Returned if the returned KMS signatures are not valid."
        }
      ],
      "SenderNotAllowedToUseHandle(bytes32,address)": [
        {
          "notice": "Returned if the sender is not allowed to use the handle."
        }
      ],
      "ZamaProtocolUnsupported()": [
        {
          "notice": "Returned if the Zama protocol is not supported on the current chain"
        }
      ]
    },
    "events": {
      "PublicDecryptionVerified(bytes32[],bytes)": {
        "notice": "This event is emitted when public decryption has been successfully verified."
      }
    },
    "kind": "user",
    "methods": {
      "allowBalanceAccess(address)": {
        "notice": "Grants the calling module transient (same-transaction) ACL access to `account`'s encrypted balance and returns the balance handle. Used by the distributor to compute pro-rata payouts on encrypted holdings."
      },
      "decimals()": {
        "notice": "Shares are whole units — no decimals."
      },
      "finalizeSupplyDisclosure(uint64,bytes)": {
        "notice": "Finalizes a supply disclosure with the KMS decryption proof. Anyone may relay the proof; forged cleartexts revert in {FHE.checkSignatures}."
      },
      "isModule(address)": {
        "notice": "Registered protocol modules (distributor, resolutions) allowed to receive scoped access to encrypted handles held by this contract."
      },
      "recordTimepoint()": {
        "notice": "Clock value (block number) at which the record supply was finalized."
      },
      "requestSupplyDisclosure()": {
        "notice": "Starts public disclosure of the current total supply through the decryption oracle. The cleartext comes back via {finalizeSupplyDisclosure} with a KMS proof verified on-chain."
      },
      "setModule(address,bool)": {
        "notice": "Registers or removes a protocol module (distributor, resolutions)."
      },
      "totalSharesOnRecord()": {
        "notice": "Total issued shares as last disclosed through the decryption oracle."
      }
    },
    "notice": "Company shares as an ERC7984 confidential token. Individual holdings are encrypted on-chain; only the holder (and an observer they appoint, e.g. an auditor) can decrypt them. Compliance controls (agent mint/burn, transfer restrictions, freezing, forced transfers, pause) come from ERC7984Rwa. Checkpointed encrypted voting power (ERC7984Votes) backs shareholder resolutions. The total number of issued shares can be disclosed publicly through the Zama decryption oracle with an on-chain KMS proof (\"verifiable total, hidden individual holdings\"). The disclosed total is the record supply used by distribution modules for pro-rata payout math on encrypted balances.",
    "version": 1
  },
  "storageLayout": {
    "storage": [
      {
        "astId": 43141,
        "contract": "contracts/CharterShares.sol:CharterShares",
        "label": "_balances",
        "offset": 0,
        "slot": "0",
        "type": "t_mapping(t_address,t_userDefinedValueType(euint64)58978)"
      },
      {
        "astId": 43147,
        "contract": "contracts/CharterShares.sol:CharterShares",
        "label": "_operators",
        "offset": 0,
        "slot": "1",
        "type": "t_mapping(t_address,t_mapping(t_address,t_uint48))"
      },
      {
        "astId": 43150,
        "contract": "contracts/CharterShares.sol:CharterShares",
        "label": "_totalSupply",
        "offset": 0,
        "slot": "2",
        "type": "t_userDefinedValueType(euint64)58978"
      },
      {
        "astId": 43152,
        "contract": "contracts/CharterShares.sol:CharterShares",
        "label": "_name",
        "offset": 0,
        "slot": "3",
        "type": "t_string_storage"
      },
      {
        "astId": 43154,
        "contract": "contracts/CharterShares.sol:CharterShares",
        "label": "_symbol",
        "offset": 0,
        "slot": "4",
        "type": "t_string_storage"
      },
      {
        "astId": 43156,
        "contract": "contracts/CharterShares.sol:CharterShares",
        "label": "_contractURI",
        "offset": 0,
        "slot": "5",
        "type": "t_string_storage"
      },
      {
        "astId": 44193,
        "contract": "contracts/CharterShares.sol:CharterShares",
        "label": "_frozenBalances",
        "offset": 0,
        "slot": "6",
        "type": "t_mapping(t_address,t_userDefinedValueType(euint64)58978)"
      },
      {
        "astId": 44582,
        "contract": "contracts/CharterShares.sol:CharterShares",
        "label": "_restrictions",
        "offset": 0,
        "slot": "7",
        "type": "t_mapping(t_address,t_enum(Restriction)44577)"
      },
      {
        "astId": 48754,
        "contract": "contracts/CharterShares.sol:CharterShares",
        "label": "_paused",
        "offset": 0,
        "slot": "8",
        "type": "t_bool"
      },
      {
        "astId": 46740,
        "contract": "contracts/CharterShares.sol:CharterShares",
        "label": "_roles",
        "offset": 0,
        "slot": "9",
        "type": "t_mapping(t_bytes32,t_struct(RoleData)46735_storage)"
      },
      {
        "astId": 44370,
        "contract": "contracts/CharterShares.sol:CharterShares",
        "label": "_observers",
        "offset": 0,
        "slot": "10",
        "type": "t_mapping(t_address,t_address)"
      },
      {
        "astId": 48639,
        "contract": "contracts/CharterShares.sol:CharterShares",
        "label": "_nonces",
        "offset": 0,
        "slot": "11",
        "type": "t_mapping(t_address,t_uint256)"
      },
      {
        "astId": 51200,
        "contract": "contracts/CharterShares.sol:CharterShares",
        "label": "_nameFallback",
        "offset": 0,
        "slot": "12",
        "type": "t_string_storage"
      },
      {
        "astId": 51202,
        "contract": "contracts/CharterShares.sol:CharterShares",
        "label": "_versionFallback",
        "offset": 0,
        "slot": "13",
        "type": "t_string_storage"
      },
      {
        "astId": 42200,
        "contract": "contracts/CharterShares.sol:CharterShares",
        "label": "_delegatee",
        "offset": 0,
        "slot": "14",
        "type": "t_mapping(t_address,t_address)"
      },
      {
        "astId": 42205,
        "contract": "contracts/CharterShares.sol:CharterShares",
        "label": "_delegateCheckpoints",
        "offset": 0,
        "slot": "15",
        "type": "t_mapping(t_address,t_struct(TraceEuint64)46464_storage)"
      },
      {
        "astId": 42208,
        "contract": "contracts/CharterShares.sol:CharterShares",
        "label": "_totalCheckpoints",
        "offset": 0,
        "slot": "16",
        "type": "t_struct(TraceEuint64)46464_storage"
      },
      {
        "astId": 58173,
        "contract": "contracts/CharterShares.sol:CharterShares",
        "label": "isModule",
        "offset": 0,
        "slot": "17",
        "type": "t_mapping(t_address,t_bool)"
      },
      {
        "astId": 58176,
        "contract": "contracts/CharterShares.sol:CharterShares",
        "label": "totalSharesOnRecord",
        "offset": 0,
        "slot": "18",
        "type": "t_uint64"
      },
      {
        "astId": 58179,
        "contract": "contracts/CharterShares.sol:CharterShares",
        "label": "recordTimepoint",
        "offset": 8,
        "slot": "18",
        "type": "t_uint48"
      },
      {
        "astId": 58182,
        "contract": "contracts/CharterShares.sol:CharterShares",
        "label": "_pendingSupplyHandle",
        "offset": 0,
        "slot": "19",
        "type": "t_userDefinedValueType(euint64)58978"
      }
    ],
    "types": {
      "t_address": {
        "encoding": "inplace",
        "label": "address",
        "numberOfBytes": "20"
      },
      "t_array(t_struct(Checkpoint256)55181_storage)dyn_storage": {
        "base": "t_struct(Checkpoint256)55181_storage",
        "encoding": "dynamic_array",
        "label": "struct Checkpoints.Checkpoint256[]",
        "numberOfBytes": "32"
      },
      "t_bool": {
        "encoding": "inplace",
        "label": "bool",
        "numberOfBytes": "1"
      },
      "t_bytes32": {
        "encoding": "inplace",
        "label": "bytes32",
        "numberOfBytes": "32"
      },
      "t_enum(Restriction)44577": {
        "encoding": "inplace",
        "label": "enum ERC7984Restricted.Restriction",
        "numberOfBytes": "1"
      },
      "t_mapping(t_address,t_address)": {
        "encoding": "mapping",
        "key": "t_address",
        "label": "mapping(address => address)",
        "numberOfBytes": "32",
        "value": "t_address"
      },
      "t_mapping(t_address,t_bool)": {
        "encoding": "mapping",
        "key": "t_address",
        "label": "mapping(address => bool)",
        "numberOfBytes": "32",
        "value": "t_bool"
      },
      "t_mapping(t_address,t_enum(Restriction)44577)": {
        "encoding": "mapping",
        "key": "t_address",
        "label": "mapping(address => enum ERC7984Restricted.Restriction)",
        "numberOfBytes": "32",
        "value": "t_enum(Restriction)44577"
      },
      "t_mapping(t_address,t_mapping(t_address,t_uint48))": {
        "encoding": "mapping",
        "key": "t_address",
        "label": "mapping(address => mapping(address => uint48))",
        "numberOfBytes": "32",
        "value": "t_mapping(t_address,t_uint48)"
      },
      "t_mapping(t_address,t_struct(TraceEuint64)46464_storage)": {
        "encoding": "mapping",
        "key": "t_address",
        "label": "mapping(address => struct CheckpointsConfidential.TraceEuint64)",
        "numberOfBytes": "32",
        "value": "t_struct(TraceEuint64)46464_storage"
      },
      "t_mapping(t_address,t_uint256)": {
        "encoding": "mapping",
        "key": "t_address",
        "label": "mapping(address => uint256)",
        "numberOfBytes": "32",
        "value": "t_uint256"
      },
      "t_mapping(t_address,t_uint48)": {
        "encoding": "mapping",
        "key": "t_address",
        "label": "mapping(address => uint48)",
        "numberOfBytes": "32",
        "value": "t_uint48"
      },
      "t_mapping(t_address,t_userDefinedValueType(euint64)58978)": {
        "encoding": "mapping",
        "key": "t_address",
        "label": "mapping(address => euint64)",
        "numberOfBytes": "32",
        "value": "t_userDefinedValueType(euint64)58978"
      },
      "t_mapping(t_bytes32,t_struct(RoleData)46735_storage)": {
        "encoding": "mapping",
        "key": "t_bytes32",
        "label": "mapping(bytes32 => struct AccessControl.RoleData)",
        "numberOfBytes": "32",
        "value": "t_struct(RoleData)46735_storage"
      },
      "t_string_storage": {
        "encoding": "bytes",
        "label": "string",
        "numberOfBytes": "32"
      },
      "t_struct(Checkpoint256)55181_storage": {
        "encoding": "inplace",
        "label": "struct Checkpoints.Checkpoint256",
        "members": [
          {
            "astId": 55178,
            "contract": "contracts/CharterShares.sol:CharterShares",
            "label": "_key",
            "offset": 0,
            "slot": "0",
            "type": "t_uint256"
          },
          {
            "astId": 55180,
            "contract": "contracts/CharterShares.sol:CharterShares",
            "label": "_value",
            "offset": 0,
            "slot": "1",
            "type": "t_uint256"
          }
        ],
        "numberOfBytes": "64"
      },
      "t_struct(RoleData)46735_storage": {
        "encoding": "inplace",
        "label": "struct AccessControl.RoleData",
        "members": [
          {
            "astId": 46732,
            "contract": "contracts/CharterShares.sol:CharterShares",
            "label": "hasRole",
            "offset": 0,
            "slot": "0",
            "type": "t_mapping(t_address,t_bool)"
          },
          {
            "astId": 46734,
            "contract": "contracts/CharterShares.sol:CharterShares",
            "label": "adminRole",
            "offset": 0,
            "slot": "1",
            "type": "t_bytes32"
          }
        ],
        "numberOfBytes": "64"
      },
      "t_struct(Trace256)55176_storage": {
        "encoding": "inplace",
        "label": "struct Checkpoints.Trace256",
        "members": [
          {
            "astId": 55175,
            "contract": "contracts/CharterShares.sol:CharterShares",
            "label": "_checkpoints",
            "offset": 0,
            "slot": "0",
            "type": "t_array(t_struct(Checkpoint256)55181_storage)dyn_storage"
          }
        ],
        "numberOfBytes": "32"
      },
      "t_struct(TraceEuint64)46464_storage": {
        "encoding": "inplace",
        "label": "struct CheckpointsConfidential.TraceEuint64",
        "members": [
          {
            "astId": 46463,
            "contract": "contracts/CharterShares.sol:CharterShares",
            "label": "_inner",
            "offset": 0,
            "slot": "0",
            "type": "t_struct(Trace256)55176_storage"
          }
        ],
        "numberOfBytes": "32"
      },
      "t_uint256": {
        "encoding": "inplace",
        "label": "uint256",
        "numberOfBytes": "32"
      },
      "t_uint48": {
        "encoding": "inplace",
        "label": "uint48",
        "numberOfBytes": "6"
      },
      "t_uint64": {
        "encoding": "inplace",
        "label": "uint64",
        "numberOfBytes": "8"
      },
      "t_userDefinedValueType(euint64)58978": {
        "encoding": "inplace",
        "label": "euint64",
        "numberOfBytes": "32"
      }
    }
  }
}