{
  "address": "0xEc3f25b2efd5cA61c4A0206Fce8BC119d647a666",
  "abi": [
    {
      "inputs": [
        {
          "internalType": "contract IERC7984",
          "name": "underlying",
          "type": "address"
        },
        {
          "internalType": "string",
          "name": "name_",
          "type": "string"
        },
        {
          "internalType": "string",
          "name": "symbol_",
          "type": "string"
        },
        {
          "internalType": "address",
          "name": "initialOwner",
          "type": "address"
        }
      ],
      "stateMutability": "nonpayable",
      "type": "constructor"
    },
    {
      "inputs": [],
      "name": "CheckpointUnorderedInsertion",
      "type": "error"
    },
    {
      "inputs": [],
      "name": "ECDSAInvalidSignature",
      "type": "error"
    },
    {
      "inputs": [
        {
          "internalType": "uint256",
          "name": "length",
          "type": "uint256"
        }
      ],
      "name": "ECDSAInvalidSignatureLength",
      "type": "error"
    },
    {
      "inputs": [
        {
          "internalType": "bytes32",
          "name": "s",
          "type": "bytes32"
        }
      ],
      "name": "ECDSAInvalidSignatureS",
      "type": "error"
    },
    {
      "inputs": [
        {
          "internalType": "uint256",
          "name": "timepoint",
          "type": "uint256"
        },
        {
          "internalType": "uint48",
          "name": "clock",
          "type": "uint48"
        }
      ],
      "name": "ERC5805FutureLookup",
      "type": "error"
    },
    {
      "inputs": [],
      "name": "ERC6372InconsistentClock",
      "type": "error"
    },
    {
      "inputs": [
        {
          "internalType": "address",
          "name": "receiver",
          "type": "address"
        }
      ],
      "name": "ERC7984InvalidReceiver",
      "type": "error"
    },
    {
      "inputs": [
        {
          "internalType": "address",
          "name": "sender",
          "type": "address"
        }
      ],
      "name": "ERC7984InvalidSender",
      "type": "error"
    },
    {
      "inputs": [
        {
          "internalType": "address",
          "name": "caller",
          "type": "address"
        }
      ],
      "name": "ERC7984UnauthorizedCaller",
      "type": "error"
    },
    {
      "inputs": [
        {
          "internalType": "address",
          "name": "holder",
          "type": "address"
        },
        {
          "internalType": "address",
          "name": "spender",
          "type": "address"
        }
      ],
      "name": "ERC7984UnauthorizedSpender",
      "type": "error"
    },
    {
      "inputs": [
        {
          "internalType": "euint64",
          "name": "amount",
          "type": "bytes32"
        },
        {
          "internalType": "address",
          "name": "user",
          "type": "address"
        }
      ],
      "name": "ERC7984UnauthorizedUseOfEncryptedAmount",
      "type": "error"
    },
    {
      "inputs": [
        {
          "internalType": "bytes32",
          "name": "handle",
          "type": "bytes32"
        },
        {
          "internalType": "address",
          "name": "account",
          "type": "address"
        }
      ],
      "name": "HandleAccessManagerNotAllowed",
      "type": "error"
    },
    {
      "inputs": [
        {
          "internalType": "address",
          "name": "account",
          "type": "address"
        },
        {
          "internalType": "uint256",
          "name": "currentNonce",
          "type": "uint256"
        }
      ],
      "name": "InvalidAccountNonce",
      "type": "error"
    },
    {
      "inputs": [],
      "name": "InvalidKMSSignatures",
      "type": "error"
    },
    {
      "inputs": [],
      "name": "InvalidShortString",
      "type": "error"
    },
    {
      "inputs": [
        {
          "internalType": "address",
          "name": "owner",
          "type": "address"
        }
      ],
      "name": "OwnableInvalidOwner",
      "type": "error"
    },
    {
      "inputs": [
        {
          "internalType": "address",
          "name": "account",
          "type": "address"
        }
      ],
      "name": "OwnableUnauthorizedAccount",
      "type": "error"
    },
    {
      "inputs": [],
      "name": "ReentrancyGuardReentrantCall",
      "type": "error"
    },
    {
      "inputs": [
        {
          "internalType": "uint8",
          "name": "bits",
          "type": "uint8"
        },
        {
          "internalType": "uint256",
          "name": "value",
          "type": "uint256"
        }
      ],
      "name": "SafeCastOverflowedUintDowncast",
      "type": "error"
    },
    {
      "inputs": [
        {
          "internalType": "bytes32",
          "name": "handle",
          "type": "bytes32"
        },
        {
          "internalType": "address",
          "name": "sender",
          "type": "address"
        }
      ],
      "name": "SenderNotAllowedToUseHandle",
      "type": "error"
    },
    {
      "inputs": [
        {
          "internalType": "string",
          "name": "str",
          "type": "string"
        }
      ],
      "name": "StringTooLong",
      "type": "error"
    },
    {
      "inputs": [
        {
          "internalType": "uint256",
          "name": "expiry",
          "type": "uint256"
        }
      ],
      "name": "VotesExpiredSignature",
      "type": "error"
    },
    {
      "inputs": [
        {
          "internalType": "address",
          "name": "module",
          "type": "address"
        }
      ],
      "name": "VotesWrapperInvalidModule",
      "type": "error"
    },
    {
      "inputs": [],
      "name": "VotesWrapperInvalidUnderlying",
      "type": "error"
    },
    {
      "inputs": [],
      "name": "VotesWrapperNonTransferable",
      "type": "error"
    },
    {
      "inputs": [],
      "name": "ZamaProtocolUnsupported",
      "type": "error"
    },
    {
      "anonymous": false,
      "inputs": [
        {
          "indexed": true,
          "internalType": "euint64",
          "name": "encryptedAmount",
          "type": "bytes32"
        },
        {
          "indexed": true,
          "internalType": "address",
          "name": "requester",
          "type": "address"
        }
      ],
      "name": "AmountDiscloseRequested",
      "type": "event"
    },
    {
      "anonymous": false,
      "inputs": [
        {
          "indexed": true,
          "internalType": "euint64",
          "name": "encryptedAmount",
          "type": "bytes32"
        },
        {
          "indexed": false,
          "internalType": "uint64",
          "name": "amount",
          "type": "uint64"
        }
      ],
      "name": "AmountDisclosed",
      "type": "event"
    },
    {
      "anonymous": false,
      "inputs": [
        {
          "indexed": true,
          "internalType": "address",
          "name": "from",
          "type": "address"
        },
        {
          "indexed": true,
          "internalType": "address",
          "name": "to",
          "type": "address"
        },
        {
          "indexed": true,
          "internalType": "euint64",
          "name": "amount",
          "type": "bytes32"
        }
      ],
      "name": "ConfidentialTransfer",
      "type": "event"
    },
    {
      "anonymous": false,
      "inputs": [
        {
          "indexed": true,
          "internalType": "address",
          "name": "delegator",
          "type": "address"
        },
        {
          "indexed": true,
          "internalType": "address",
          "name": "fromDelegate",
          "type": "address"
        },
        {
          "indexed": true,
          "internalType": "address",
          "name": "toDelegate",
          "type": "address"
        }
      ],
      "name": "DelegateChanged",
      "type": "event"
    },
    {
      "anonymous": false,
      "inputs": [
        {
          "indexed": true,
          "internalType": "address",
          "name": "delegate",
          "type": "address"
        },
        {
          "indexed": false,
          "internalType": "euint64",
          "name": "previousVotes",
          "type": "bytes32"
        },
        {
          "indexed": false,
          "internalType": "euint64",
          "name": "newVotes",
          "type": "bytes32"
        }
      ],
      "name": "DelegateVotesChanged",
      "type": "event"
    },
    {
      "anonymous": false,
      "inputs": [
        {
          "indexed": true,
          "internalType": "address",
          "name": "account",
          "type": "address"
        },
        {
          "indexed": false,
          "internalType": "euint64",
          "name": "encryptedAmount",
          "type": "bytes32"
        }
      ],
      "name": "Deposited",
      "type": "event"
    },
    {
      "anonymous": false,
      "inputs": [],
      "name": "EIP712DomainChanged",
      "type": "event"
    },
    {
      "anonymous": false,
      "inputs": [
        {
          "indexed": true,
          "internalType": "address",
          "name": "holder",
          "type": "address"
        },
        {
          "indexed": true,
          "internalType": "address",
          "name": "operator",
          "type": "address"
        },
        {
          "indexed": false,
          "internalType": "uint48",
          "name": "until",
          "type": "uint48"
        }
      ],
      "name": "OperatorSet",
      "type": "event"
    },
    {
      "anonymous": false,
      "inputs": [
        {
          "indexed": true,
          "internalType": "address",
          "name": "previousOwner",
          "type": "address"
        },
        {
          "indexed": true,
          "internalType": "address",
          "name": "newOwner",
          "type": "address"
        }
      ],
      "name": "OwnershipTransferred",
      "type": "event"
    },
    {
      "anonymous": false,
      "inputs": [
        {
          "indexed": false,
          "internalType": "bytes32[]",
          "name": "handlesList",
          "type": "bytes32[]"
        },
        {
          "indexed": false,
          "internalType": "bytes",
          "name": "abiEncodedCleartexts",
          "type": "bytes"
        }
      ],
      "name": "PublicDecryptionVerified",
      "type": "event"
    },
    {
      "anonymous": false,
      "inputs": [
        {
          "indexed": true,
          "internalType": "address",
          "name": "module",
          "type": "address"
        },
        {
          "indexed": false,
          "internalType": "bool",
          "name": "enabled",
          "type": "bool"
        }
      ],
      "name": "VoteModuleSet",
      "type": "event"
    },
    {
      "anonymous": false,
      "inputs": [
        {
          "indexed": true,
          "internalType": "address",
          "name": "account",
          "type": "address"
        },
        {
          "indexed": false,
          "internalType": "euint64",
          "name": "encryptedAmount",
          "type": "bytes32"
        }
      ],
      "name": "Withdrawn",
      "type": "event"
    },
    {
      "inputs": [],
      "name": "CLOCK_MODE",
      "outputs": [
        {
          "internalType": "string",
          "name": "",
          "type": "string"
        }
      ],
      "stateMutability": "view",
      "type": "function"
    },
    {
      "inputs": [],
      "name": "UNDERLYING",
      "outputs": [
        {
          "internalType": "contract IERC7984",
          "name": "",
          "type": "address"
        }
      ],
      "stateMutability": "view",
      "type": "function"
    },
    {
      "inputs": [],
      "name": "clock",
      "outputs": [
        {
          "internalType": "uint48",
          "name": "",
          "type": "uint48"
        }
      ],
      "stateMutability": "view",
      "type": "function"
    },
    {
      "inputs": [
        {
          "internalType": "address",
          "name": "account",
          "type": "address"
        }
      ],
      "name": "confidentialBalanceOf",
      "outputs": [
        {
          "internalType": "euint64",
          "name": "",
          "type": "bytes32"
        }
      ],
      "stateMutability": "view",
      "type": "function"
    },
    {
      "inputs": [],
      "name": "confidentialProtocolId",
      "outputs": [
        {
          "internalType": "uint256",
          "name": "",
          "type": "uint256"
        }
      ],
      "stateMutability": "view",
      "type": "function"
    },
    {
      "inputs": [],
      "name": "confidentialTotalSupply",
      "outputs": [
        {
          "internalType": "euint64",
          "name": "",
          "type": "bytes32"
        }
      ],
      "stateMutability": "view",
      "type": "function"
    },
    {
      "inputs": [
        {
          "internalType": "address",
          "name": "to",
          "type": "address"
        },
        {
          "internalType": "externalEuint64",
          "name": "encryptedAmount",
          "type": "bytes32"
        },
        {
          "internalType": "bytes",
          "name": "inputProof",
          "type": "bytes"
        }
      ],
      "name": "confidentialTransfer",
      "outputs": [
        {
          "internalType": "euint64",
          "name": "",
          "type": "bytes32"
        }
      ],
      "stateMutability": "nonpayable",
      "type": "function"
    },
    {
      "inputs": [
        {
          "internalType": "address",
          "name": "to",
          "type": "address"
        },
        {
          "internalType": "euint64",
          "name": "amount",
          "type": "bytes32"
        }
      ],
      "name": "confidentialTransfer",
      "outputs": [
        {
          "internalType": "euint64",
          "name": "",
          "type": "bytes32"
        }
      ],
      "stateMutability": "nonpayable",
      "type": "function"
    },
    {
      "inputs": [
        {
          "internalType": "address",
          "name": "to",
          "type": "address"
        },
        {
          "internalType": "euint64",
          "name": "amount",
          "type": "bytes32"
        },
        {
          "internalType": "bytes",
          "name": "data",
          "type": "bytes"
        }
      ],
      "name": "confidentialTransferAndCall",
      "outputs": [
        {
          "internalType": "euint64",
          "name": "",
          "type": "bytes32"
        }
      ],
      "stateMutability": "nonpayable",
      "type": "function"
    },
    {
      "inputs": [
        {
          "internalType": "address",
          "name": "to",
          "type": "address"
        },
        {
          "internalType": "externalEuint64",
          "name": "encryptedAmount",
          "type": "bytes32"
        },
        {
          "internalType": "bytes",
          "name": "inputProof",
          "type": "bytes"
        },
        {
          "internalType": "bytes",
          "name": "data",
          "type": "bytes"
        }
      ],
      "name": "confidentialTransferAndCall",
      "outputs": [
        {
          "internalType": "euint64",
          "name": "",
          "type": "bytes32"
        }
      ],
      "stateMutability": "nonpayable",
      "type": "function"
    },
    {
      "inputs": [
        {
          "internalType": "address",
          "name": "from",
          "type": "address"
        },
        {
          "internalType": "address",
          "name": "to",
          "type": "address"
        },
        {
          "internalType": "externalEuint64",
          "name": "encryptedAmount",
          "type": "bytes32"
        },
        {
          "internalType": "bytes",
          "name": "inputProof",
          "type": "bytes"
        }
      ],
      "name": "confidentialTransferFrom",
      "outputs": [
        {
          "internalType": "euint64",
          "name": "",
          "type": "bytes32"
        }
      ],
      "stateMutability": "nonpayable",
      "type": "function"
    },
    {
      "inputs": [
        {
          "internalType": "address",
          "name": "from",
          "type": "address"
        },
        {
          "internalType": "address",
          "name": "to",
          "type": "address"
        },
        {
          "internalType": "euint64",
          "name": "amount",
          "type": "bytes32"
        }
      ],
      "name": "confidentialTransferFrom",
      "outputs": [
        {
          "internalType": "euint64",
          "name": "",
          "type": "bytes32"
        }
      ],
      "stateMutability": "nonpayable",
      "type": "function"
    },
    {
      "inputs": [
        {
          "internalType": "address",
          "name": "from",
          "type": "address"
        },
        {
          "internalType": "address",
          "name": "to",
          "type": "address"
        },
        {
          "internalType": "externalEuint64",
          "name": "encryptedAmount",
          "type": "bytes32"
        },
        {
          "internalType": "bytes",
          "name": "inputProof",
          "type": "bytes"
        },
        {
          "internalType": "bytes",
          "name": "data",
          "type": "bytes"
        }
      ],
      "name": "confidentialTransferFromAndCall",
      "outputs": [
        {
          "internalType": "euint64",
          "name": "",
          "type": "bytes32"
        }
      ],
      "stateMutability": "nonpayable",
      "type": "function"
    },
    {
      "inputs": [
        {
          "internalType": "address",
          "name": "from",
          "type": "address"
        },
        {
          "internalType": "address",
          "name": "to",
          "type": "address"
        },
        {
          "internalType": "euint64",
          "name": "amount",
          "type": "bytes32"
        },
        {
          "internalType": "bytes",
          "name": "data",
          "type": "bytes"
        }
      ],
      "name": "confidentialTransferFromAndCall",
      "outputs": [
        {
          "internalType": "euint64",
          "name": "",
          "type": "bytes32"
        }
      ],
      "stateMutability": "nonpayable",
      "type": "function"
    },
    {
      "inputs": [],
      "name": "contractURI",
      "outputs": [
        {
          "internalType": "string",
          "name": "",
          "type": "string"
        }
      ],
      "stateMutability": "view",
      "type": "function"
    },
    {
      "inputs": [],
      "name": "decimals",
      "outputs": [
        {
          "internalType": "uint8",
          "name": "",
          "type": "uint8"
        }
      ],
      "stateMutability": "view",
      "type": "function"
    },
    {
      "inputs": [
        {
          "internalType": "address",
          "name": "delegatee",
          "type": "address"
        }
      ],
      "name": "delegate",
      "outputs": [],
      "stateMutability": "nonpayable",
      "type": "function"
    },
    {
      "inputs": [
        {
          "internalType": "address",
          "name": "delegatee",
          "type": "address"
        },
        {
          "internalType": "uint256",
          "name": "nonce",
          "type": "uint256"
        },
        {
          "internalType": "uint256",
          "name": "expiry",
          "type": "uint256"
        },
        {
          "internalType": "uint8",
          "name": "v",
          "type": "uint8"
        },
        {
          "internalType": "bytes32",
          "name": "r",
          "type": "bytes32"
        },
        {
          "internalType": "bytes32",
          "name": "s",
          "type": "bytes32"
        }
      ],
      "name": "delegateBySig",
      "outputs": [],
      "stateMutability": "nonpayable",
      "type": "function"
    },
    {
      "inputs": [
        {
          "internalType": "address",
          "name": "account",
          "type": "address"
        }
      ],
      "name": "delegates",
      "outputs": [
        {
          "internalType": "address",
          "name": "",
          "type": "address"
        }
      ],
      "stateMutability": "view",
      "type": "function"
    },
    {
      "inputs": [
        {
          "internalType": "externalEuint64",
          "name": "encryptedAmount",
          "type": "bytes32"
        },
        {
          "internalType": "bytes",
          "name": "inputProof",
          "type": "bytes"
        }
      ],
      "name": "deposit",
      "outputs": [
        {
          "internalType": "euint64",
          "name": "deposited",
          "type": "bytes32"
        }
      ],
      "stateMutability": "nonpayable",
      "type": "function"
    },
    {
      "inputs": [
        {
          "internalType": "euint64",
          "name": "encryptedAmount",
          "type": "bytes32"
        },
        {
          "internalType": "uint64",
          "name": "cleartextAmount",
          "type": "uint64"
        },
        {
          "internalType": "bytes",
          "name": "decryptionProof",
          "type": "bytes"
        }
      ],
      "name": "discloseEncryptedAmount",
      "outputs": [],
      "stateMutability": "nonpayable",
      "type": "function"
    },
    {
      "inputs": [],
      "name": "eip712Domain",
      "outputs": [
        {
          "internalType": "bytes1",
          "name": "fields",
          "type": "bytes1"
        },
        {
          "internalType": "string",
          "name": "name",
          "type": "string"
        },
        {
          "internalType": "string",
          "name": "version",
          "type": "string"
        },
        {
          "internalType": "uint256",
          "name": "chainId",
          "type": "uint256"
        },
        {
          "internalType": "address",
          "name": "verifyingContract",
          "type": "address"
        },
        {
          "internalType": "bytes32",
          "name": "salt",
          "type": "bytes32"
        },
        {
          "internalType": "uint256[]",
          "name": "extensions",
          "type": "uint256[]"
        }
      ],
      "stateMutability": "view",
      "type": "function"
    },
    {
      "inputs": [
        {
          "internalType": "bytes32",
          "name": "handle",
          "type": "bytes32"
        },
        {
          "internalType": "address",
          "name": "account",
          "type": "address"
        },
        {
          "internalType": "bool",
          "name": "persistent",
          "type": "bool"
        }
      ],
      "name": "getHandleAllowance",
      "outputs": [],
      "stateMutability": "nonpayable",
      "type": "function"
    },
    {
      "inputs": [
        {
          "internalType": "uint256",
          "name": "timepoint",
          "type": "uint256"
        }
      ],
      "name": "getPastTotalSupply",
      "outputs": [
        {
          "internalType": "euint64",
          "name": "",
          "type": "bytes32"
        }
      ],
      "stateMutability": "view",
      "type": "function"
    },
    {
      "inputs": [
        {
          "internalType": "address",
          "name": "account",
          "type": "address"
        },
        {
          "internalType": "uint256",
          "name": "timepoint",
          "type": "uint256"
        }
      ],
      "name": "getPastVotes",
      "outputs": [
        {
          "internalType": "euint64",
          "name": "",
          "type": "bytes32"
        }
      ],
      "stateMutability": "view",
      "type": "function"
    },
    {
      "inputs": [
        {
          "internalType": "address",
          "name": "account",
          "type": "address"
        }
      ],
      "name": "getVotes",
      "outputs": [
        {
          "internalType": "euint64",
          "name": "",
          "type": "bytes32"
        }
      ],
      "stateMutability": "view",
      "type": "function"
    },
    {
      "inputs": [
        {
          "internalType": "address",
          "name": "holder",
          "type": "address"
        },
        {
          "internalType": "address",
          "name": "spender",
          "type": "address"
        }
      ],
      "name": "isOperator",
      "outputs": [
        {
          "internalType": "bool",
          "name": "",
          "type": "bool"
        }
      ],
      "stateMutability": "view",
      "type": "function"
    },
    {
      "inputs": [
        {
          "internalType": "address",
          "name": "module",
          "type": "address"
        }
      ],
      "name": "isVoteModule",
      "outputs": [
        {
          "internalType": "bool",
          "name": "",
          "type": "bool"
        }
      ],
      "stateMutability": "view",
      "type": "function"
    },
    {
      "inputs": [],
      "name": "name",
      "outputs": [
        {
          "internalType": "string",
          "name": "",
          "type": "string"
        }
      ],
      "stateMutability": "view",
      "type": "function"
    },
    {
      "inputs": [
        {
          "internalType": "address",
          "name": "owner",
          "type": "address"
        }
      ],
      "name": "nonces",
      "outputs": [
        {
          "internalType": "uint256",
          "name": "",
          "type": "uint256"
        }
      ],
      "stateMutability": "view",
      "type": "function"
    },
    {
      "inputs": [],
      "name": "owner",
      "outputs": [
        {
          "internalType": "address",
          "name": "",
          "type": "address"
        }
      ],
      "stateMutability": "view",
      "type": "function"
    },
    {
      "inputs": [],
      "name": "renounceOwnership",
      "outputs": [],
      "stateMutability": "nonpayable",
      "type": "function"
    },
    {
      "inputs": [
        {
          "internalType": "euint64",
          "name": "encryptedAmount",
          "type": "bytes32"
        }
      ],
      "name": "requestDiscloseEncryptedAmount",
      "outputs": [],
      "stateMutability": "nonpayable",
      "type": "function"
    },
    {
      "inputs": [
        {
          "internalType": "address",
          "name": "operator",
          "type": "address"
        },
        {
          "internalType": "uint48",
          "name": "until",
          "type": "uint48"
        }
      ],
      "name": "setOperator",
      "outputs": [],
      "stateMutability": "nonpayable",
      "type": "function"
    },
    {
      "inputs": [
        {
          "internalType": "address",
          "name": "module",
          "type": "address"
        },
        {
          "internalType": "bool",
          "name": "enabled",
          "type": "bool"
        }
      ],
      "name": "setVoteModule",
      "outputs": [],
      "stateMutability": "nonpayable",
      "type": "function"
    },
    {
      "inputs": [
        {
          "internalType": "bytes4",
          "name": "interfaceId",
          "type": "bytes4"
        }
      ],
      "name": "supportsInterface",
      "outputs": [
        {
          "internalType": "bool",
          "name": "",
          "type": "bool"
        }
      ],
      "stateMutability": "view",
      "type": "function"
    },
    {
      "inputs": [],
      "name": "symbol",
      "outputs": [
        {
          "internalType": "string",
          "name": "",
          "type": "string"
        }
      ],
      "stateMutability": "view",
      "type": "function"
    },
    {
      "inputs": [
        {
          "internalType": "address",
          "name": "newOwner",
          "type": "address"
        }
      ],
      "name": "transferOwnership",
      "outputs": [],
      "stateMutability": "nonpayable",
      "type": "function"
    },
    {
      "inputs": [
        {
          "internalType": "externalEuint64",
          "name": "encryptedAmount",
          "type": "bytes32"
        },
        {
          "internalType": "bytes",
          "name": "inputProof",
          "type": "bytes"
        }
      ],
      "name": "withdraw",
      "outputs": [
        {
          "internalType": "euint64",
          "name": "withdrawn",
          "type": "bytes32"
        }
      ],
      "stateMutability": "nonpayable",
      "type": "function"
    }
  ],
  "transactionHash": "0x0ffde7f3e85f6ca409b727a7bf271dc4522a0cd34874dee0141a65718d2b036d",
  "args": [
    "0xb6B08dC3014D944231E01Ad5a0292Efeea859112",
    "Wrapped Confidential USD Votes",
    "wmcUSD-V",
    "0x04045Ca68BEF611adBD76e58C028cEFf4a3d640D"
  ],
  "numDeployments": 1,
  "solcInputHash": "e178d49472cf940db6a1343a352ead67",
  "bytecode": "0x610180604052348015610010575f5ffd5b50604051613f3d380380613f3d83398101604081905261002f916105b2565b8083604051806040016040528060018152602001603160f81b815250858560405180602001604052805f81525061007261006d6101e660201b60201c565b610395565b600361007e84826106c0565b50600461008b83826106c0565b50600561009882826106c0565b506100aa925084915060079050610441565b610120526100b9816008610441565b61014052815160208084019190912060e052815190820120610100524660a05261014560e05161010051604080517f8b73c3c69bb8fe3d512ecc4cf759cc79239f7b179b0ffacaa9a75d522b39400f60208201529081019290925260608201524660808201523060a08201525f9060c00160405160208183030381529060405280519060200120905090565b60805250503060c0526001600160a01b03811661017c57604051631e4fbdf760e01b81525f60048201526024015b60405180910390fd5b61018581610473565b5060017f9b779b17422d0df92223018b32b4d1fa46e071723d6817e2486d003becc55f00556001600160a01b0384166101d1576040516302275ee760e51b815260040160405180910390fd5b5050506001600160a01b0316610160526107d2565b604080516060810182525f80825260208201819052918101919091524660010361027f575060408051606080820183525f8083526020808401829052928401528251908101835273ca2e8f1f656cd25c01f05d0b243ab1ecd4a8ffb6815273d82385dada1ae3e969447f20a3164f6213100e75918101919091527377627828a55156b04ac0dc0eb30467f1a552bb039181019190915290565b4662aa36a7036102fe575060408051606080820183525f8083526020808401829052928401528251908101835273f0ffdc93b7e186bc2f8cb3daa75d86d1930a433d81527392c920834ec8941d2c77d188936e1f7a6f49c1279181019190915273be0e383937d564d7ff0bc3b46c51f0bf8d5c311a9181019190915290565b46617a690361037c575060408051606080820183525f808352602080840182905292840152825190810183527350157cffd6bbfa2dece204a89ec419c23ef5755d815273e3a9105a3a932253a70f126eb1e3b589c643dd249181019190915273901f8942346f7ab3a01f6d7613119bca447bb0309181019190915290565b6040516373cac13b60e01b815260040160405180910390fd5b80517f9e7b61f58c47dc699ac88507c4f5bb9f121c03808c5676a8078fe583e464970080546001600160a01b03199081166001600160a01b039384161790915560208301517f9e7b61f58c47dc699ac88507c4f5bb9f121c03808c5676a8078fe583e46497018054831691841691909117905560408301517f9e7b61f58c47dc699ac88507c4f5bb9f121c03808c5676a8078fe583e46497028054909216921691909117905550565b50565b5f60208351101561045c57610455836104c4565b905061046d565b8161046784826106c0565b5060ff90505b92915050565b600c80546001600160a01b038381166001600160a01b0319831681179093556040519116919082907f8be0079c531659141344cd1fd0a4f28419497f9722a3daafe3b4186f6b6457e0905f90a35050565b5f5f829050601f815111156104ee578260405163305a27a960e01b8152600401610173919061077a565b80516104f9826107af565b179392505050565b6001600160a01b038116811461043e575f5ffd5b634e487b7160e01b5f52604160045260245ffd5b5f82601f830112610538575f5ffd5b81516001600160401b0381111561055157610551610515565b604051601f8201601f19908116603f011681016001600160401b038111828210171561057f5761057f610515565b604052818152838201602001851015610596575f5ffd5b8160208501602083015e5f918101602001919091529392505050565b5f5f5f5f608085870312156105c5575f5ffd5b84516105d081610501565b60208601519094506001600160401b038111156105eb575f5ffd5b6105f787828801610529565b604087015190945090506001600160401b03811115610614575f5ffd5b61062087828801610529565b925050606085015161063181610501565b939692955090935050565b600181811c9082168061065057607f821691505b60208210810361066e57634e487b7160e01b5f52602260045260245ffd5b50919050565b601f8211156106bb57805f5260205f20601f840160051c810160208510156106995750805b601f840160051c820191505b818110156106b8575f81556001016106a5565b50505b505050565b81516001600160401b038111156106d9576106d9610515565b6106ed816106e7845461063c565b84610674565b6020601f82116001811461071f575f83156107085750848201515b5f19600385901b1c1916600184901b1784556106b8565b5f84815260208120601f198516915b8281101561074e578785015182556020948501946001909201910161072e565b508482101561076b57868401515f19600387901b60f8161c191681555b50505050600190811b01905550565b602081525f82518060208401528060208501604085015e5f604082850101526040601f19601f83011684010191505092915050565b8051602080830151919081101561066e575f1960209190910360031b1b16919050565b60805160a05160c05160e051610100516101205161014051610160516136ed6108505f395f818161053f01528181610788015281816109390152818161097a01528181611144015261118b01525f61175d01525f61173001525f6121d501525f6121ad01525f61210801525f61213201525f61215c01526136ed5ff3fe608060405234801561000f575f5ffd5b506004361061029d575f3560e01c80638da5cb5b11610171578063c5d664c6116100d2578063e064b9bb11610088578063e8a3d4851161006e578063e8a3d485146105d3578063eb3155b5146105db578063f2fde38b146105ee575f5ffd5b8063e064b9bb146105ad578063e29973fc146105c0575f5ffd5b8063d4febb96116100b8578063d4febb9614610574578063d806180614610587578063de6421191461059a575f5ffd5b8063c5d664c61461053a578063c7b8a75e14610561575f5ffd5b80639dfb70fe11610127578063b1af281e1161010d578063b1af281e14610501578063b6363cf214610514578063c3cda52014610527575f5ffd5b80639dfb70fe146104cc5780639f1a799c146104df575f5ffd5b806391ddadf41161015757806391ddadf41461049257806395d89b41146104b15780639ab24eb0146104b9575f5ffd5b80638da5cb5b1461046e5780638e539e8c1461047f575f5ffd5b80634bf5d7e91161021b5780635c19a95c116101d15780637ecebe00116101b75780637ecebe001461042357806384b0196e1461044b5780638927b03014610466575f5ffd5b80635c19a95c14610408578063715018a61461041b575f5ffd5b8063540952271161020157806354095227146103aa578063587cde1e146103b25780635bebed7e146103f5575f5ffd5b80634bf5d7e91461038f578063537d3c5014610397575f5ffd5b8063313ce5671161027057806334c457431161025657806334c45743146103565780633a46b1a8146103695780634a2e35ba1461037c575f5ffd5b8063313ce56714610314578063344ff1011461032e575f5ffd5b806301ffc9a7146102a157806306d4a799146102c957806306fdde03146102de5780632fb74e62146102f3575b5f5ffd5b6102b46102af366004612ec1565b610601565b60405190151581526020015b60405180910390f35b6102dc6102d7366004612f10565b610637565b005b6102e66106a2565b6040516102c09190612f7b565b610306610301366004612fcb565b610732565b6040519081526020016102c0565b61031c610785565b60405160ff90911681526020016102c0565b61030661033c366004613021565b6001600160a01b03165f9081526020819052604090205490565b61030661036436600461303a565b61080b565b6103066103773660046130d3565b6108a3565b61030661038a3660046130fb565b6108dc565b6102e6610a4f565b6103066103a5366004612fcb565b610ac7565b610306610b14565b6103dd6103c0366004613021565b6001600160a01b039081165f908152600960205260409020541690565b6040516001600160a01b0390911681526020016102c0565b6103066104033660046130d3565b610b1e565b6102dc610416366004613021565b610b69565b6102dc610b76565b610306610431366004613021565b6001600160a01b03165f9081526006602052604090205490565b610453610b89565b6040516102c09796959493929190613143565b610306610bcb565b600c546001600160a01b03166103dd565b61030661048d3660046131d9565b610bd4565b61049a610bf1565b60405165ffffffffffff90911681526020016102c0565b6102e6610bfa565b6103066104c7366004613021565b610c09565b6102dc6104da3660046131f0565b610c29565b6102b46104ed366004613021565b600d6020525f908152604090205460ff1681565b6102dc61050f366004613225565b610ce4565b6102b4610522366004613271565b610dda565b6102dc6105353660046132a7565b610e2c565b6103dd7f000000000000000000000000000000000000000000000000000000000000000081565b61030661056f3660046132fd565b610ee8565b6102dc610582366004613367565b610f7f565b6102dc6105953660046131d9565b610f8e565b6103066105a836600461339b565b611006565b6103066105bb3660046132fd565b611056565b6103066105ce3660046130fb565b6110f3565b6102e661123e565b6103066105e9366004613424565b61124d565b6102dc6105fc366004613021565b6112ee565b5f6001600160e01b031982166312563ca960e21b148061063157506301ffc9a760e01b6001600160e01b03198316145b92915050565b335f908152600d602052604090205460ff16838390916106815760405163772141a960e11b815260048101929092526001600160a01b031660248201526044015b60405180910390fd5b50508015610698576106938383611328565b505050565b6106938383611393565b6060600380546106b19061345e565b80601f01602080910402602001604051908101604052809291908181526020018280546106dd9061345e565b80156107285780601f106106ff57610100808354040283529160200191610728565b820191905f5260205f20905b81548152906001019060200180831161070b57829003601f168201915b5050505050905090565b5f61077c33866107778787878080601f0160208091040260200160405190810160405280939291908181526020018383808284375f920191909152506113d992505050565b61143f565b95945050505050565b5f7f00000000000000000000000000000000000000000000000000000000000000006001600160a01b031663313ce5676040518163ffffffff1660e01b8152600401602060405180830381865afa1580156107e2573d5f5f3e3d5ffd5b505050506040513d601f19601f820116820180604052508101906108069190613496565b905090565b5f6108168833610dda565b8833909161084a57604051630f3e596760e31b81526001600160a01b03928316600482015291166024820152604401610678565b505061089788886108908989898080601f0160208091040260200160405190810160405280939291908181526020018383808284375f920191909152506113d992505050565b86866114bd565b98975050505050505050565b5f6108d56108b083611520565b6001600160a01b0385165f908152600a602052604090209065ffffffffffff1661156e565b9392505050565b5f6108e5611579565b5f6109258585858080601f0160208091040260200160405190810160405280939291908181526020018383808284375f920191909152506113d992505050565b905061093133826115a7565b915061095d827f00000000000000000000000000000000000000000000000000000000000000006115e8565b50604051632df5f6bf60e11b8152336004820152602481018390527f00000000000000000000000000000000000000000000000000000000000000006001600160a01b031690635bebed7e906044016020604051808303815f875af11580156109c8573d5f5f3e3d5ffd5b505050506040513d601f19601f820116820180604052508101906109ec91906134b1565b60405181815290925033907f6ecbc70c26b02b821204839571ea973742fdc445dbfd00b71c513370f5d458ad906020015b60405180910390a2506108d560017f9b779b17422d0df92223018b32b4d1fa46e071723d6817e2486d003becc55f0055565b6060610a5961160b565b65ffffffffffff16610a69610bf1565b65ffffffffffff1614610a8f576040516301bfc1c560e61b815260040160405180910390fd5b5060408051808201909152601d81527f6d6f64653d626c6f636b6e756d6265722666726f6d3d64656661756c74000000602082015290565b5f610ad28433611615565b84339091610b05576040516367cfe80560e01b815260048101929092526001600160a01b03166024820152604401610678565b505061077c33868686866114bd565b5f61080660025490565b5f610b298233611615565b82339091610b5c576040516367cfe80560e01b815260048101929092526001600160a01b03166024820152604401610678565b50506108d533848461143f565b610b733382611620565b50565b610b7e61169e565b610b875f6116cb565b565b5f6060805f5f5f6060610b9a611729565b610ba2611756565b604080515f80825260208201909252600f60f81b9b939a50919850469750309650945092509050565b5f610806611783565b5f610631610be183611520565b600b9065ffffffffffff1661156e565b5f61080661160b565b6060600480546106b19061345e565b6001600160a01b0381165f908152600a60205260408120610631906117b7565b610c3161169e565b6001600160a01b03821615801590610c5a5750801580610c5a57506001600160a01b0382163b15155b8290610c8557604051636b45236f60e01b81526001600160a01b039091166004820152602401610678565b506001600160a01b0382165f818152600d6020908152604091829020805460ff191685151590811790915591519182527fd47d733e0e7d32a970780bab2882e157e2344e26a9f1acbae21c10ab05656405910160405180910390a25050565b6040805160018082528183019092525f916020808301908036833701905050905084815f81518110610d1857610d186134c8565b6020026020010181815250505f84604051602001610d46919067ffffffffffffffff91909116815260200190565b60408051601f198184030181526020601f87018190048102840181019092528583529250610d9291849184919088908890819084018382808284375f920191909152506117c192505050565b60405167ffffffffffffffff8616815286907f83bbbc07896439e5d950a6cead04cbc676180af7a61cecf43f5296475057f571906020015b60405180910390a2505050505050565b5f816001600160a01b0316836001600160a01b031614806108d55750506001600160a01b039182165f90815260016020908152604080832093909416825291909152205465ffffffffffff1642111590565b83421115610e5057604051632341d78760e11b815260048101859052602401610678565b604080517fe48329057bfd03d55e49b547132e39cffd9c1820ad7b9d4c5307691425d15adf60208201526001600160a01b0388169181019190915260608101869052608081018590525f90610ec990610ec19060a0016040516020818303038152906040528051906020012061182c565b858585611858565b9050610ed58187611884565b610edf8188611620565b50505050505050565b5f610ef38433611615565b84339091610f26576040516367cfe80560e01b815260048101929092526001600160a01b03166024820152604401610678565b5050610f328633610dda565b86339091610f6657604051630f3e596760e31b81526001600160a01b03928316600482015291166024820152604401610678565b5050610f7586868686866114bd565b9695505050505050565b610f8a3383836118d6565b5050565b610f988133611615565b81339091610fcb576040516367cfe80560e01b815260048101929092526001600160a01b03166024820152604401610678565b5050610fd68161194d565b50604051339082907f189c3bfae2e5ce7726b29d57bb6ed0f1a7ebcd153a863ff5ecb6cd998064c98c905f90a350565b5f61104b33886108908989898080601f0160208091040260200160405190810160405280939291908181526020018383808284375f920191909152506113d992505050565b979650505050505050565b5f6110618633610dda565b8633909161109557604051630f3e596760e31b81526001600160a01b03928316600482015291166024820152604401610678565b50505f6110dc87876107778888888080601f0160208091040260200160405190810160405280939291908181526020018383808284375f920191909152506113d992505050565b90506110e881336115e8565b509695505050505050565b5f6110fc611579565b5f61113c8585858080601f0160208091040260200160405190810160405280939291908181526020018383808284375f920191909152506113d992505050565b9050611168817f00000000000000000000000000000000000000000000000000000000000000006115e8565b5060405163eb3155b560e01b8152336004820152306024820152604481018290527f00000000000000000000000000000000000000000000000000000000000000006001600160a01b03169063eb3155b5906064016020604051808303815f875af11580156111d9573d5f5f3e3d5ffd5b505050506040513d601f19601f820116820180604052508101906111fd91906134b1565b9150611209338361196c565b60405181815290925033907f07c395f9699f5c4d4e90df65ab0ea5d135089f597219b61c81445b8785c75b5890602001610a1d565b6060600580546106b19061345e565b5f6112588233611615565b8233909161128b576040516367cfe80560e01b815260048101929092526001600160a01b03166024820152604401610678565b50506112978433610dda565b843390916112cb57604051630f3e596760e31b81526001600160a01b03928316600482015291166024820152604401610678565b50505f6112d985858561143f565b90506112e581336115e8565b50949350505050565b6112f661169e565b6001600160a01b03811661131f57604051631e4fbdf760e01b81525f6004820152602401610678565b610b73816116cb565b5f5160206136c15f395f51905f528054604051635ca4b5b160e11b8152600481018590526001600160a01b0384811660248301529091169063b9496b62906044015b5f604051808303815f87803b158015611381575f5ffd5b505af1158015610edf573d5f5f3e3d5ffd5b5f5160206136c15f395f51905f528054604051630f8e573b60e21b8152600481018590526001600160a01b03848116602483015290911690633e395cec9060440161136a565b5f81515f146113f5576113ee838360056119ad565b9050610631565b825f81900361140f576114075f611aba565b915050610631565b6114198133611ad0565b6113ee57604051630276b5d960e01b815260048101829052336024820152604401610678565b5f806001600160a01b0385166114745760405163ee457ebf60e01b81526001600160a01b039091166004820152602401610678565b505f6001600160a01b0384166114a957604051638d51880160e01b81526001600160a01b039091166004820152602401610678565b506114b5848484611b54565b949350505050565b5f5f6114ca87878761143f565b90505f6114db338989858989611b9a565b90505f6114fb888a6114f6856114f05f611aba565b88611c91565b611b54565b90506115078382611cd0565b935061151384336115e8565b5050505095945050505050565b5f5f61152a610bf1565b90508065ffffffffffff16831061156557604051637669fc0f60e11b81526004810184905265ffffffffffff82166024820152604401610678565b6108d583611cfe565b5f6108d58383611d30565b611581611dce565b60027f9b779b17422d0df92223018b32b4d1fa46e071723d6817e2486d003becc55f0055565b5f806001600160a01b0384166115dc5760405163ee457ebf60e01b81526001600160a01b039091166004820152602401610678565b506108d5835f84611b54565b5f826115fa576115f75f611aba565b92505b6116048383611393565b5090919050565b5f61080643611cfe565b5f6108d58383611ad0565b6001600160a01b038281165f81815260096020526040808220805486861673ffffffffffffffffffffffffffffffffffffffff19821681179092559151919094169392849290917f3134e8a2e6d97e929a7e54011ea5485d7d196dd5f0ba4d4ef95803e8e3fc257f9190a4610693818361169986611e10565b611e2d565b600c546001600160a01b03163314610b875760405163118cdaa760e01b8152336004820152602401610678565b600c80546001600160a01b0383811673ffffffffffffffffffffffffffffffffffffffff19831681179093556040519116919082907f8be0079c531659141344cd1fd0a4f28419497f9722a3daafe3b4186f6b6457e0905f90a35050565b60606108067f00000000000000000000000000000000000000000000000000000000000000006007611f8c565b60606108067f00000000000000000000000000000000000000000000000000000000000000006008611f8c565b5f466001036117925750600190565b4662aa36a7036117a3575061271190565b46617a69036117b257505f1990565b505f90565b5f6106318261202e565b5f6117cd848484612058565b9050806117ed5760405163cf6c44e960e01b815260040160405180910390fd5b7fc6366bab028b8d033cb362cfd1f2f3457ef4e92fc738b6788b90d5a7846367a0848460405161181e929190613516565b60405180910390a150505050565b5f6106316118386120fc565b8360405161190160f01b8152600281019290925260228201526042902090565b5f5f5f5f61186888888888612225565b92509250925061187882826122ed565b50909695505050505050565b6001600160a01b0382165f908152600660205260409020805460018101909155818114610693576040516301d4b62360e61b81526001600160a01b038416600482015260248101829052604401610678565b6001600160a01b038381165f81815260016020908152604080832094871680845294825291829020805465ffffffffffff191665ffffffffffff871690811790915591519182527f921a218a75d18e8ec5704851e6b234a85725b21a2521ce889622c35dedc1fa12910160405180910390a3505050565b5f8161195f5761195c5f611aba565b91505b611968826123a5565b5090565b5f806001600160a01b0384166119a157604051638d51880160e01b81526001600160a01b039091166004820152602401610678565b506108d55f8484611b54565b7f9e7b61f58c47dc699ac88507c4f5bb9f121c03808c5676a8078fe583e46497015460405163045fc19560e11b81525f915f5160206136c15f395f51905f52916001600160a01b03909116906308bf832a90611a1390889033908990899060040161356e565b6020604051808303815f875af1158015611a2f573d5f5f3e3d5ffd5b505050506040513d601f19601f82011682018060405250810190611a5391906134b1565b8154604051630f8e573b60e21b8152600481018390523360248201529193506001600160a01b031690633e395cec906044015f604051808303815f87803b158015611a9c575f5ffd5b505af1158015611aae573d5f5f3e3d5ffd5b50505050509392505050565b5f6106318267ffffffffffffffff166005612423565b5f805f5160206136c15f395f51905f5280546040516382027b6d60e01b8152600481018790526001600160a01b0386811660248301529293509116906382027b6d90604401602060405180830381865afa158015611b30573d5f5f3e3d5ffd5b505050506040513d601f19601f820116820180604052508101906114b591906135a4565b5f6001600160a01b0384161580611b7257506001600160a01b038316155b611b8f57604051632615b44160e21b815260040160405180910390fd5b6114b58484846124c5565b5f6001600160a01b0385163b15611c87576040516346083bfd60e01b81526001600160a01b038616906346083bfd90611bdf908a908a908990899089906004016135bf565b6020604051808303815f875af1925050508015611c19575060408051601f3d908101601f19168201909252611c16918101906134b1565b60015b611c80573d808015611c46576040519150601f19603f3d011682016040523d82523d5f602084013e611c4b565b606091505b5080515f03611c7857604051638d51880160e01b81526001600160a01b0387166004820152602401610678565b805181602001fd5b9050610f75565b611c8060016124de565b5f83611ca357611ca05f6124de565b93505b82611cb457611cb15f611aba565b92505b81611cc557611cc25f611aba565b91505b6114b58484846124f9565b5f82611ce257611cdf5f611aba565b92505b81611cf357611cf05f611aba565b91505b6108d583835f612586565b5f65ffffffffffff821115611968576040516306dfcc6560e41b81526030600482015260248101839052604401610678565b81545f9081816005811115611d83575f611d498461264c565b611d539085613628565b5f88815260209020909150600282020154861015611d7357809150611d81565b611d7e81600161363b565b92505b505b5f611d90878785856127b1565b90508015611dc257611db987611da7600184613628565b5f918252602090912060029091020190565b6001015461104b565b5f979650505050505050565b7f9b779b17422d0df92223018b32b4d1fa46e071723d6817e2486d003becc55f0054600203610b8757604051633ee5aeb560e01b815260040160405180910390fd5b6001600160a01b0381165f90815260208190526040812054610631565b5f826001600160a01b0316846001600160a01b031614158015611e4f57508115155b15611f86576001600160a01b03841615611ef057506001600160a01b0383165f908152600a6020526040812090611e8f83611e89846117b7565b90611cd0565b9050611e9a81612803565b505f611ea6838361281f565b60408051828152602081018590529192506001600160a01b038816917fe6b394e3516d0a313961eb80cd405f50443cde338bc1f7e961a362f4203bfef0910160405180910390a250505b6001600160a01b03831615611f8657506001600160a01b0382165f908152600a6020526040812090611f2b83611f25846117b7565b9061283c565b9050611f3681612803565b505f611f42838361281f565b60408051828152602081018590529192506001600160a01b038716917fe6b394e3516d0a313961eb80cd405f50443cde338bc1f7e961a362f4203bfef09101610dca565b50505050565b606060ff8314611f9f576113ee8361286a565b818054611fab9061345e565b80601f0160208091040260200160405190810160405280929190818152602001828054611fd79061345e565b80156120225780601f10611ff957610100808354040283529160200191612022565b820191905f5260205f20905b81548152906001019060200180831161200557829003601f168201915b50505050509050610631565b80545f9080156120505761204783611da7600184613628565b600101546108d5565b5f9392505050565b7f9e7b61f58c47dc699ac88507c4f5bb9f121c03808c5676a8078fe583e4649702546040516378542ead60e01b81525f915f5160206136c15f395f51905f52916001600160a01b03909116906378542ead906120bc9088908890889060040161364e565b6020604051808303815f875af11580156120d8573d5f5f3e3d5ffd5b505050506040513d601f19601f8201168201806040525081019061077c91906135a4565b5f306001600160a01b037f00000000000000000000000000000000000000000000000000000000000000001614801561215457507f000000000000000000000000000000000000000000000000000000000000000046145b1561217e57507f000000000000000000000000000000000000000000000000000000000000000090565b610806604080517f8b73c3c69bb8fe3d512ecc4cf759cc79239f7b179b0ffacaa9a75d522b39400f60208201527f0000000000000000000000000000000000000000000000000000000000000000918101919091527f000000000000000000000000000000000000000000000000000000000000000060608201524660808201523060a08201525f9060c00160405160208183030381529060405280519060200120905090565b5f80807f7fffffffffffffffffffffffffffffff5d576e7357a4501ddfe92f46681b20a084111561225e57505f915060039050826122e3565b604080515f808252602082018084528a905260ff891692820192909252606081018790526080810186905260019060a0016020604051602081039080840390855afa1580156122af573d5f5f3e3d5ffd5b5050604051601f1901519150506001600160a01b0381166122da57505f9250600191508290506122e3565b92505f91508190505b9450945094915050565b5f8260038111156123005761230061353a565b03612309575050565b600182600381111561231d5761231d61353a565b0361233b5760405163f645eedf60e01b815260040160405180910390fd5b600282600381111561234f5761234f61353a565b036123705760405163fce698f760e01b815260048101829052602401610678565b60038260038111156123845761238461353a565b03610f8a576040516335e2f38360e21b815260048101829052602401610678565b6040805160018082528183019092525f5160206136c15f395f51905f52915f91906020808301908036833701905050905082815f815181106123e9576123e96134c8565b60209081029190910101528154604051637d6e912360e11b81526001600160a01b039091169063fadd22469061136a908490600401613686565b7f9e7b61f58c47dc699ac88507c4f5bb9f121c03808c5676a8078fe583e464970154604051639cd07acb60e01b81525f915f5160206136c15f395f51905f52916001600160a01b0390911690639cd07acb906124859087908790600401613698565b6020604051808303815f875af11580156124a1573d5f5f3e3d5ffd5b505050506040513d601f19601f820116820180604052508101906114b591906134b1565b5f6124d18484846128a7565b90506108d5848483612a58565b5f610631826124ed575f6124f0565b60015b60ff165f612423565b5f805f5160206136c15f395f51905f526001810154604051637702dcff60e01b81526004810188905260248101879052604481018690529192506001600160a01b031690637702dcff906064016020604051808303815f875af1158015612562573d5f5f3e3d5ffd5b505050506040513d601f19601f8201168201806040525081019061077c91906134b1565b5f5f82156125995750600160f81b61259c565b505f5b7f9e7b61f58c47dc699ac88507c4f5bb9f121c03808c5676a8078fe583e4649701546040516303056db360e31b815260048101879052602481018690526001600160f81b0319831660448201525f5160206136c15f395f51905f52916001600160a01b03169063182b6d98906064015b6020604051808303815f875af1158015612628573d5f5f3e3d5ffd5b505050506040513d601f19601f82011682018060405250810190610f7591906134b1565b5f60018211612659575090565b816001700100000000000000000000000000000000821061267f5760809190911c9060401b5b68010000000000000000821061269a5760409190911c9060201b5b64010000000082106126b15760209190911c9060101b5b6201000082106126c65760109190911c9060081b5b61010082106126da5760089190911c9060041b5b601082106126ed5760049190911c9060021b5b600482106126f95760011b5b600302600190811c90818581612711576127116136ac565b048201901c90506001818581612729576127296136ac565b048201901c90506001818581612741576127416136ac565b048201901c90506001818581612759576127596136ac565b048201901c90506001818581612771576127716136ac565b048201901c90506001818581612789576127896136ac565b048201901c90506127a88185816127a2576127a26136ac565b04821190565b90039392505050565b5f5b818310156127fb575f600283851804838516015f87815260209020909150859060028302015411156127e7578092506127f5565b6127f281600161363b565b93505b506127b3565b509392505050565b5f81612815576128125f611aba565b91505b6119688230611328565b5f5f6112e561282c610bf1565b859065ffffffffffff1685612abf565b5f8261284e5761284b5f611aba565b92505b8161285f5761285c5f611aba565b91505b6108d583835f612adc565b60605f61287683612b66565b6040805160208082528183019092529192505f91906020820181803683375050509182525060208101929092525090565b5f80806001600160a01b0386166128dd576128c460025485612b8d565b90925090506128d281612803565b506002819055612935565b6001600160a01b0386165f908152602081905260409020546128ff8186612bd7565b909350915061290d82612803565b506129188288612c3c565b50506001600160a01b0386165f9081526020819052604090208190555b61294882856129435f611aba565b611c91565b92506001600160a01b03851661297a5761296460025484611cd0565b905061296f81612803565b5060028190556129ce565b6001600160a01b0385165f9081526020819052604090205461299c908461283c565b90506129a781612803565b506129b28186612c3c565b506001600160a01b0385165f9081526020819052604090208190555b6001600160a01b038616156129e9576129e78387612c3c565b505b6001600160a01b03851615612a0457612a028386612c3c565b505b612a0d83612803565b5082856001600160a01b0316876001600160a01b03167f67500e8d0ed826d2194f514dd0d8124f35648ab6e3fb5e6ed867134cffe661e960405160405180910390a450509392505050565b6001600160a01b0383161580612a7557506001600160a01b038216155b15612a8e57612a8c600b612a87610b14565b61281f565b505b6001600160a01b038381165f9081526009602052604080822054858416835291205461069392918216911683611e2d565b5f808080612ace878787612c58565b909890975095505050505050565b5f5f8215612aef5750600160f81b612af2565b505f5b7f9e7b61f58c47dc699ac88507c4f5bb9f121c03808c5676a8078fe583e46497015460405163022f65e760e31b815260048101879052602481018690526001600160f81b0319831660448201525f5160206136c15f395f51905f52916001600160a01b03169063117b2f389060640161260c565b5f60ff8216601f81111561063157604051632cd44ac360e21b815260040160405180910390fd5b5f8083612ba857612b9e60016124de565b8391509150612bd0565b5f612bb3858561283c565b9050612bbf8186612c72565b9250612bcc838287611c91565b9150505b9250929050565b5f8083612c135782612bf757612bed60016124de565b8491509150612bd0565b612c01835f612ca0565b612c0a5f611aba565b91509150612bd0565b612c1d8484612c72565b9150612c3382612c2d8686611cd0565b86611c91565b90509250929050565b5f82612c4e57612c4b5f611aba565b92505b6116048383611328565b5f80612c65858585612cc8565b915091505b935093915050565b5f82612c8457612c815f611aba565b92505b81612c9557612c925f611aba565b91505b6108d583835f612dad565b5f82612cb257612caf5f611aba565b92505b6108d58367ffffffffffffffff84166001612e37565b82545f9081908015612d69575f612ce487611da7600185613628565b805460018201549192509087821115612d1057604051632520601d60e01b815260040160405180910390fd5b878203612d235760018301879055612d5b565b6040805180820190915288815260208082018981528b5460018181018e555f8e81529390932093516002909102909301928355519101555b9450859350612c6a92505050565b50506040805180820190915283815260208082018481528654600181810189555f898152938420945160029092029094019081559051920191909155905081612c6a565b5f5f8215612dc05750600160f81b612dc3565b505f5b7f9e7b61f58c47dc699ac88507c4f5bb9f121c03808c5676a8078fe583e464970154604051631391547f60e01b815260048101879052602481018690526001600160f81b0319831660448201525f5160206136c15f395f51905f52916001600160a01b031690631391547f9060640161260c565b5f5f8215612e4a5750600160f81b612e4d565b505f5b7f9e7b61f58c47dc699ac88507c4f5bb9f121c03808c5676a8078fe583e46497015460405163f77f3f1d60e01b815260048101879052602481018690526001600160f81b0319831660448201525f5160206136c15f395f51905f52916001600160a01b03169063f77f3f1d9060640161260c565b5f60208284031215612ed1575f5ffd5b81356001600160e01b0319811681146108d5575f5ffd5b80356001600160a01b0381168114612efe575f5ffd5b919050565b8015158114610b73575f5ffd5b5f5f5f60608486031215612f22575f5ffd5b83359250612f3260208501612ee8565b91506040840135612f4281612f03565b809150509250925092565b5f81518084528060208401602086015e5f602082860101526020601f19601f83011685010191505092915050565b602081525f6108d56020830184612f4d565b5f5f83601f840112612f9d575f5ffd5b50813567ffffffffffffffff811115612fb4575f5ffd5b602083019150836020828501011115612bd0575f5ffd5b5f5f5f5f60608587031215612fde575f5ffd5b612fe785612ee8565b935060208501359250604085013567ffffffffffffffff811115613009575f5ffd5b61301587828801612f8d565b95989497509550505050565b5f60208284031215613031575f5ffd5b6108d582612ee8565b5f5f5f5f5f5f5f60a0888a031215613050575f5ffd5b61305988612ee8565b965061306760208901612ee8565b955060408801359450606088013567ffffffffffffffff811115613089575f5ffd5b6130958a828b01612f8d565b909550935050608088013567ffffffffffffffff8111156130b4575f5ffd5b6130c08a828b01612f8d565b989b979a50959850939692959293505050565b5f5f604083850312156130e4575f5ffd5b6130ed83612ee8565b946020939093013593505050565b5f5f5f6040848603121561310d575f5ffd5b83359250602084013567ffffffffffffffff81111561312a575f5ffd5b61313686828701612f8d565b9497909650939450505050565b60ff60f81b8816815260e060208201525f61316160e0830189612f4d565b82810360408401526131738189612f4d565b606084018890526001600160a01b038716608085015260a0840186905283810360c0850152845180825260208087019350909101905f5b818110156131c85783518352602093840193909201916001016131aa565b50909b9a5050505050505050505050565b5f602082840312156131e9575f5ffd5b5035919050565b5f5f60408385031215613201575f5ffd5b61320a83612ee8565b9150602083013561321a81612f03565b809150509250929050565b5f5f5f5f60608587031215613238575f5ffd5b84359350602085013567ffffffffffffffff81168114613256575f5ffd5b9250604085013567ffffffffffffffff811115613009575f5ffd5b5f5f60408385031215613282575f5ffd5b61328b83612ee8565b9150612c3360208401612ee8565b60ff81168114610b73575f5ffd5b5f5f5f5f5f5f60c087890312156132bc575f5ffd5b6132c587612ee8565b9550602087013594506040870135935060608701356132e381613299565b9598949750929560808101359460a0909101359350915050565b5f5f5f5f5f60808688031215613311575f5ffd5b61331a86612ee8565b945061332860208701612ee8565b935060408601359250606086013567ffffffffffffffff81111561334a575f5ffd5b61335688828901612f8d565b969995985093965092949392505050565b5f5f60408385031215613378575f5ffd5b61338183612ee8565b9150602083013565ffffffffffff8116811461321a575f5ffd5b5f5f5f5f5f5f608087890312156133b0575f5ffd5b6133b987612ee8565b955060208701359450604087013567ffffffffffffffff8111156133db575f5ffd5b6133e789828a01612f8d565b909550935050606087013567ffffffffffffffff811115613406575f5ffd5b61341289828a01612f8d565b979a9699509497509295939492505050565b5f5f5f60608486031215613436575f5ffd5b61343f84612ee8565b925061344d60208501612ee8565b929592945050506040919091013590565b600181811c9082168061347257607f821691505b60208210810361349057634e487b7160e01b5f52602260045260245ffd5b50919050565b5f602082840312156134a6575f5ffd5b81516108d581613299565b5f602082840312156134c1575f5ffd5b5051919050565b634e487b7160e01b5f52603260045260245ffd5b5f8151808452602084019350602083015f5b8281101561350c5781518652602095860195909101906001016134ee565b5093949350505050565b604081525f61352860408301856134dc565b828103602084015261077c8185612f4d565b634e487b7160e01b5f52602160045260245ffd5b6054811061356a57634e487b7160e01b5f52602160045260245ffd5b9052565b8481526001600160a01b0384166020820152608060408201525f6135956080830185612f4d565b905061077c606083018461354e565b5f602082840312156135b4575f5ffd5b81516108d581612f03565b6001600160a01b03861681526001600160a01b038516602082015283604082015260806060820152816080820152818360a08301375f81830160a090810191909152601f909201601f19160101949350505050565b634e487b7160e01b5f52601160045260245ffd5b8181038181111561063157610631613614565b8082018082111561063157610631613614565b606081525f61366060608301866134dc565b82810360208401526136728186612f4d565b90508281036040840152610f758185612f4d565b602081525f6108d560208301846134dc565b828152604081016108d5602083018461354e565b634e487b7160e01b5f52601260045260245ffdfe9e7b61f58c47dc699ac88507c4f5bb9f121c03808c5676a8078fe583e4649700a164736f6c634300081b000a",
  "devdoc": {
    "details": "This is a standalone token wrapper, not a Charter module. The owner may authorize vote modules to obtain transient access to handles held by this contract. Authorized modules are a confidentiality trust decision because the inherited handle allowance API is not handle-scoped.",
    "errors": {
      "CheckpointUnorderedInsertion()": [
        {
          "details": "A value was attempted to be inserted on a past checkpoint."
        }
      ],
      "ECDSAInvalidSignature()": [
        {
          "details": "The signature is invalid."
        }
      ],
      "ECDSAInvalidSignatureLength(uint256)": [
        {
          "details": "The signature has an invalid length."
        }
      ],
      "ECDSAInvalidSignatureS(bytes32)": [
        {
          "details": "The signature has an S value that is in the upper half order."
        }
      ],
      "ERC5805FutureLookup(uint256,uint48)": [
        {
          "details": "Lookup to future votes is not available."
        }
      ],
      "ERC6372InconsistentClock()": [
        {
          "details": "The clock was incorrectly modified."
        }
      ],
      "ERC7984InvalidReceiver(address)": [
        {
          "details": "The given receiver `receiver` is invalid for transfers."
        }
      ],
      "ERC7984InvalidSender(address)": [
        {
          "details": "The given sender `sender` is invalid for transfers."
        }
      ],
      "ERC7984UnauthorizedCaller(address)": [
        {
          "details": "The given caller `caller` is not authorized for the current operation."
        }
      ],
      "ERC7984UnauthorizedSpender(address,address)": [
        {
          "details": "The given holder `holder` is not authorized to spend on behalf of `spender`."
        }
      ],
      "ERC7984UnauthorizedUseOfEncryptedAmount(bytes32,address)": [
        {
          "details": "The caller `user` does not have access to the encrypted amount `amount`. NOTE: Try using the equivalent transfer function with an input proof."
        }
      ],
      "InvalidAccountNonce(address,uint256)": [
        {
          "details": "The nonce used for an `account` is not the expected current nonce."
        }
      ],
      "OwnableInvalidOwner(address)": [
        {
          "details": "The owner is not a valid owner account. (eg. `address(0)`)"
        }
      ],
      "OwnableUnauthorizedAccount(address)": [
        {
          "details": "The caller account is not authorized to perform an operation."
        }
      ],
      "ReentrancyGuardReentrantCall()": [
        {
          "details": "Unauthorized reentrant call."
        }
      ],
      "SafeCastOverflowedUintDowncast(uint8,uint256)": [
        {
          "details": "Value doesn't fit in a uint of `bits` size."
        }
      ],
      "VotesExpiredSignature(uint256)": [
        {
          "details": "The signature used has expired."
        }
      ]
    },
    "events": {
      "AmountDiscloseRequested(bytes32,address)": {
        "details": "Emitted when an encrypted amount `encryptedAmount` is requested for disclosure by `requester`."
      },
      "AmountDisclosed(bytes32,uint64)": {
        "details": "Emitted when an encrypted amount is disclosed. Accounts with access to the encrypted amount `encryptedAmount` that is also accessible to this contract should be able to disclose the amount. This functionality is implementation specific."
      },
      "ConfidentialTransfer(address,address,bytes32)": {
        "details": "Emitted when a confidential transfer is made from `from` to `to` of encrypted amount `amount`."
      },
      "DelegateChanged(address,address,address)": {
        "details": "Emitted when an account changes their delegate."
      },
      "DelegateVotesChanged(address,bytes32,bytes32)": {
        "details": "Emitted when a token transfer or delegate change results in changes to a delegate's number of voting units."
      },
      "EIP712DomainChanged()": {
        "details": "MAY be emitted to signal that the domain could have changed."
      },
      "OperatorSet(address,address,uint48)": {
        "details": "Emitted when the expiration timestamp for an operator `operator` is updated for a given `holder`. The operator may move any amount of tokens on behalf of the holder until the timestamp `until`."
      }
    },
    "kind": "dev",
    "methods": {
      "CLOCK_MODE()": {
        "details": "Machine-readable description of the clock as specified in ERC-6372."
      },
      "clock()": {
        "details": "Clock used for flagging checkpoints. Can be overridden to implement timestamp based checkpoints (and voting), in which case {CLOCK_MODE} should be overridden as well to match."
      },
      "confidentialBalanceOf(address)": {
        "details": "Returns the confidential balance of the account `account`."
      },
      "confidentialTotalSupply()": {
        "details": "Returns the confidential total supply of the token."
      },
      "confidentialTransfer(address,bytes32)": {
        "details": "Similar to {confidentialTransfer-address-externalEuint64-bytes} but without an input proof. The caller *must* already be allowed by ACL for the given `amount`."
      },
      "confidentialTransfer(address,bytes32,bytes)": {
        "details": "Transfers the encrypted amount `encryptedAmount` to `to` with the given input proof `inputProof`. Returns the encrypted amount that was actually transferred."
      },
      "confidentialTransferAndCall(address,bytes32,bytes)": {
        "details": "Similar to {confidentialTransfer-address-euint64} but with a callback to `to` after the transfer."
      },
      "confidentialTransferAndCall(address,bytes32,bytes,bytes)": {
        "details": "Similar to {confidentialTransfer-address-externalEuint64-bytes} but with a callback to `to` after the transfer. The callback is made to the {IERC7984Receiver-onConfidentialTransferReceived} function on the to address with the actual transferred amount (may differ from the given `encryptedAmount`) and the given data `data`."
      },
      "confidentialTransferFrom(address,address,bytes32)": {
        "details": "Similar to {confidentialTransferFrom-address-address-externalEuint64-bytes} but without an input proof. The caller *must* be already allowed by ACL for the given `amount`."
      },
      "confidentialTransferFrom(address,address,bytes32,bytes)": {
        "details": "Transfers the encrypted amount `encryptedAmount` from `from` to `to` with the given input proof `inputProof`. `msg.sender` must be either `from` or an operator for `from`. Returns the encrypted amount that was actually transferred."
      },
      "confidentialTransferFromAndCall(address,address,bytes32,bytes)": {
        "details": "Similar to {confidentialTransferFrom-address-address-euint64} but with a callback to `to` after the transfer."
      },
      "confidentialTransferFromAndCall(address,address,bytes32,bytes,bytes)": {
        "details": "Similar to {confidentialTransferFrom-address-address-externalEuint64-bytes} but with a callback to `to` after the transfer."
      },
      "contractURI()": {
        "details": "Returns the contract URI. See https://eips.ethereum.org/EIPS/eip-7572[ERC-7572] for details."
      },
      "delegate(address)": {
        "details": "Delegates votes from the sender to `delegatee`."
      },
      "delegateBySig(address,uint256,uint256,uint8,bytes32,bytes32)": {
        "details": "Delegates votes from an EOA to `delegatee` via an ECDSA signature."
      },
      "delegates(address)": {
        "details": "Returns the delegate that `account` has chosen."
      },
      "deposit(bytes32,bytes)": {
        "details": "The caller must have approved this wrapper as an operator on the underlying token."
      },
      "discloseEncryptedAmount(bytes32,uint64,bytes)": {
        "details": "Publicly discloses an encrypted value with a given decryption proof. Emits the {AmountDisclosed} event. NOTE: May not be tied to a prior request via {requestDiscloseEncryptedAmount}."
      },
      "eip712Domain()": {
        "details": "returns the fields and values that describe the domain separator used by this contract for EIP-712 signature."
      },
      "getHandleAllowance(bytes32,address,bool)": {
        "details": "Get handle access for the given handle `handle`. Access will be given to the account `account` with the given persistence flag. NOTE: This function call is validated by {_validateHandleAllowance}."
      },
      "getPastTotalSupply(uint256)": {
        "details": "Returns the total supply of votes available at a specific moment in the past. If the {clock} is configured to use block numbers, this will return the value at the end of the corresponding block. NOTE: This value is the sum of all available votes, which is not necessarily the sum of all delegated votes. Votes that have not been delegated are still part of total supply, even though they would not participate in a vote. Requirements: - `timepoint` must be in the past. If operating using block numbers, the block must be already mined."
      },
      "getPastVotes(address,uint256)": {
        "details": "Returns the amount of votes that `account` had at a specific moment in the past. If the {clock} is configured to use block numbers, this will return the value at the end of the corresponding block. Requirements: - `timepoint` must be in the past. If operating using block numbers, the block must be already mined."
      },
      "getVotes(address)": {
        "details": "Returns the current amount of votes that `account` has."
      },
      "isOperator(address,address)": {
        "details": "Returns true if `spender` is currently an operator for `holder`."
      },
      "name()": {
        "details": "Returns the name of the token."
      },
      "nonces(address)": {
        "details": "Returns the next unused nonce for an address."
      },
      "owner()": {
        "details": "Returns the address of the current owner."
      },
      "renounceOwnership()": {
        "details": "Leaves the contract without owner. It will not be possible to call `onlyOwner` functions. Can only be called by the current owner. NOTE: Renouncing ownership will leave the contract without an owner, thereby disabling any functionality that is only available to the owner."
      },
      "requestDiscloseEncryptedAmount(bytes32)": {
        "details": "Starts the process to disclose an encrypted amount `encryptedAmount` publicly by making it publicly decryptable. Emits the {AmountDiscloseRequested} event. NOTE: Both `msg.sender` and `address(this)` must have permission to access the encrypted amount `encryptedAmount` to request disclosure of the encrypted amount `encryptedAmount`."
      },
      "setOperator(address,uint48)": {
        "details": "See {IERC7984-setOperator}. Operators are given ACL allowance (ability to decrypt) for the transferred amount of transfers they initiate."
      },
      "supportsInterface(bytes4)": {
        "details": "Returns true if this contract implements the interface defined by `interfaceId`. See the corresponding https://eips.ethereum.org/EIPS/eip-165#how-interfaces-are-identified[ERC section] to learn more about how these ids are created. This function call must use less than 30 000 gas."
      },
      "symbol()": {
        "details": "Returns the symbol of the token."
      },
      "transferOwnership(address)": {
        "details": "Transfers ownership of the contract to a new account (`newOwner`). Can only be called by the current owner."
      }
    },
    "title": "ConfidentialVotesWrapper - checkpointed voting units for an ERC-7984 token",
    "version": 1
  },
  "userdoc": {
    "errors": {
      "InvalidKMSSignatures()": [
        {
          "notice": "Returned if the returned KMS signatures are not valid."
        }
      ],
      "SenderNotAllowedToUseHandle(bytes32,address)": [
        {
          "notice": "Returned if the sender is not allowed to use the handle."
        }
      ],
      "ZamaProtocolUnsupported()": [
        {
          "notice": "Returned if the Zama protocol is not supported on the current chain"
        }
      ]
    },
    "events": {
      "PublicDecryptionVerified(bytes32[],bytes)": {
        "notice": "This event is emitted when public decryption has been successfully verified."
      }
    },
    "kind": "user",
    "methods": {
      "decimals()": {
        "notice": "Mirrors the underlying token's display precision."
      },
      "deposit(bytes32,bytes)": {
        "notice": "Pulls an encrypted amount from the caller and mints the amount actually received."
      },
      "setVoteModule(address,bool)": {
        "notice": "Enables or disables a contract that consumes encrypted vote checkpoints."
      },
      "withdraw(bytes32,bytes)": {
        "notice": "Burns an encrypted amount of the caller's voting units and returns the same amount of underlying tokens from escrow."
      }
    },
    "notice": "Escrows one confidential token and mints matching, non-transferable ERC7984Votes units. Deposit and withdrawal accounts and transaction timing are public, while amounts and voting weights remain encrypted. Holders must approve this contract as an operator on the underlying token before depositing.",
    "version": 1
  },
  "storageLayout": {
    "storage": [
      {
        "astId": 43916,
        "contract": "contracts/ConfidentialVotesWrapper.sol:ConfidentialVotesWrapper",
        "label": "_balances",
        "offset": 0,
        "slot": "0",
        "type": "t_mapping(t_address,t_userDefinedValueType(euint64)65443)"
      },
      {
        "astId": 43922,
        "contract": "contracts/ConfidentialVotesWrapper.sol:ConfidentialVotesWrapper",
        "label": "_operators",
        "offset": 0,
        "slot": "1",
        "type": "t_mapping(t_address,t_mapping(t_address,t_uint48))"
      },
      {
        "astId": 43925,
        "contract": "contracts/ConfidentialVotesWrapper.sol:ConfidentialVotesWrapper",
        "label": "_totalSupply",
        "offset": 0,
        "slot": "2",
        "type": "t_userDefinedValueType(euint64)65443"
      },
      {
        "astId": 43927,
        "contract": "contracts/ConfidentialVotesWrapper.sol:ConfidentialVotesWrapper",
        "label": "_name",
        "offset": 0,
        "slot": "3",
        "type": "t_string_storage"
      },
      {
        "astId": 43929,
        "contract": "contracts/ConfidentialVotesWrapper.sol:ConfidentialVotesWrapper",
        "label": "_symbol",
        "offset": 0,
        "slot": "4",
        "type": "t_string_storage"
      },
      {
        "astId": 43931,
        "contract": "contracts/ConfidentialVotesWrapper.sol:ConfidentialVotesWrapper",
        "label": "_contractURI",
        "offset": 0,
        "slot": "5",
        "type": "t_string_storage"
      },
      {
        "astId": 49562,
        "contract": "contracts/ConfidentialVotesWrapper.sol:ConfidentialVotesWrapper",
        "label": "_nonces",
        "offset": 0,
        "slot": "6",
        "type": "t_mapping(t_address,t_uint256)"
      },
      {
        "astId": 52236,
        "contract": "contracts/ConfidentialVotesWrapper.sol:ConfidentialVotesWrapper",
        "label": "_nameFallback",
        "offset": 0,
        "slot": "7",
        "type": "t_string_storage"
      },
      {
        "astId": 52238,
        "contract": "contracts/ConfidentialVotesWrapper.sol:ConfidentialVotesWrapper",
        "label": "_versionFallback",
        "offset": 0,
        "slot": "8",
        "type": "t_string_storage"
      },
      {
        "astId": 42975,
        "contract": "contracts/ConfidentialVotesWrapper.sol:ConfidentialVotesWrapper",
        "label": "_delegatee",
        "offset": 0,
        "slot": "9",
        "type": "t_mapping(t_address,t_address)"
      },
      {
        "astId": 42980,
        "contract": "contracts/ConfidentialVotesWrapper.sol:ConfidentialVotesWrapper",
        "label": "_delegateCheckpoints",
        "offset": 0,
        "slot": "10",
        "type": "t_mapping(t_address,t_struct(TraceEuint64)47239_storage)"
      },
      {
        "astId": 42983,
        "contract": "contracts/ConfidentialVotesWrapper.sol:ConfidentialVotesWrapper",
        "label": "_totalCheckpoints",
        "offset": 0,
        "slot": "11",
        "type": "t_struct(TraceEuint64)47239_storage"
      },
      {
        "astId": 47876,
        "contract": "contracts/ConfidentialVotesWrapper.sol:ConfidentialVotesWrapper",
        "label": "_owner",
        "offset": 0,
        "slot": "12",
        "type": "t_address"
      },
      {
        "astId": 62632,
        "contract": "contracts/ConfidentialVotesWrapper.sol:ConfidentialVotesWrapper",
        "label": "isVoteModule",
        "offset": 0,
        "slot": "13",
        "type": "t_mapping(t_address,t_bool)"
      }
    ],
    "types": {
      "t_address": {
        "encoding": "inplace",
        "label": "address",
        "numberOfBytes": "20"
      },
      "t_array(t_struct(Checkpoint256)56217_storage)dyn_storage": {
        "base": "t_struct(Checkpoint256)56217_storage",
        "encoding": "dynamic_array",
        "label": "struct Checkpoints.Checkpoint256[]",
        "numberOfBytes": "32"
      },
      "t_bool": {
        "encoding": "inplace",
        "label": "bool",
        "numberOfBytes": "1"
      },
      "t_mapping(t_address,t_address)": {
        "encoding": "mapping",
        "key": "t_address",
        "label": "mapping(address => address)",
        "numberOfBytes": "32",
        "value": "t_address"
      },
      "t_mapping(t_address,t_bool)": {
        "encoding": "mapping",
        "key": "t_address",
        "label": "mapping(address => bool)",
        "numberOfBytes": "32",
        "value": "t_bool"
      },
      "t_mapping(t_address,t_mapping(t_address,t_uint48))": {
        "encoding": "mapping",
        "key": "t_address",
        "label": "mapping(address => mapping(address => uint48))",
        "numberOfBytes": "32",
        "value": "t_mapping(t_address,t_uint48)"
      },
      "t_mapping(t_address,t_struct(TraceEuint64)47239_storage)": {
        "encoding": "mapping",
        "key": "t_address",
        "label": "mapping(address => struct CheckpointsConfidential.TraceEuint64)",
        "numberOfBytes": "32",
        "value": "t_struct(TraceEuint64)47239_storage"
      },
      "t_mapping(t_address,t_uint256)": {
        "encoding": "mapping",
        "key": "t_address",
        "label": "mapping(address => uint256)",
        "numberOfBytes": "32",
        "value": "t_uint256"
      },
      "t_mapping(t_address,t_uint48)": {
        "encoding": "mapping",
        "key": "t_address",
        "label": "mapping(address => uint48)",
        "numberOfBytes": "32",
        "value": "t_uint48"
      },
      "t_mapping(t_address,t_userDefinedValueType(euint64)65443)": {
        "encoding": "mapping",
        "key": "t_address",
        "label": "mapping(address => euint64)",
        "numberOfBytes": "32",
        "value": "t_userDefinedValueType(euint64)65443"
      },
      "t_string_storage": {
        "encoding": "bytes",
        "label": "string",
        "numberOfBytes": "32"
      },
      "t_struct(Checkpoint256)56217_storage": {
        "encoding": "inplace",
        "label": "struct Checkpoints.Checkpoint256",
        "members": [
          {
            "astId": 56214,
            "contract": "contracts/ConfidentialVotesWrapper.sol:ConfidentialVotesWrapper",
            "label": "_key",
            "offset": 0,
            "slot": "0",
            "type": "t_uint256"
          },
          {
            "astId": 56216,
            "contract": "contracts/ConfidentialVotesWrapper.sol:ConfidentialVotesWrapper",
            "label": "_value",
            "offset": 0,
            "slot": "1",
            "type": "t_uint256"
          }
        ],
        "numberOfBytes": "64"
      },
      "t_struct(Trace256)56212_storage": {
        "encoding": "inplace",
        "label": "struct Checkpoints.Trace256",
        "members": [
          {
            "astId": 56211,
            "contract": "contracts/ConfidentialVotesWrapper.sol:ConfidentialVotesWrapper",
            "label": "_checkpoints",
            "offset": 0,
            "slot": "0",
            "type": "t_array(t_struct(Checkpoint256)56217_storage)dyn_storage"
          }
        ],
        "numberOfBytes": "32"
      },
      "t_struct(TraceEuint64)47239_storage": {
        "encoding": "inplace",
        "label": "struct CheckpointsConfidential.TraceEuint64",
        "members": [
          {
            "astId": 47238,
            "contract": "contracts/ConfidentialVotesWrapper.sol:ConfidentialVotesWrapper",
            "label": "_inner",
            "offset": 0,
            "slot": "0",
            "type": "t_struct(Trace256)56212_storage"
          }
        ],
        "numberOfBytes": "32"
      },
      "t_uint256": {
        "encoding": "inplace",
        "label": "uint256",
        "numberOfBytes": "32"
      },
      "t_uint48": {
        "encoding": "inplace",
        "label": "uint48",
        "numberOfBytes": "6"
      },
      "t_userDefinedValueType(euint64)65443": {
        "encoding": "inplace",
        "label": "euint64",
        "numberOfBytes": "32"
      }
    }
  }
}