{
  "address": "0xaA489e8daAfb7568d34B937dFEcFF6D0D0Ef1c76",
  "abi": [
    {
      "inputs": [
        {
          "internalType": "contract IConfidentialVotes",
          "name": "votes",
          "type": "address"
        },
        {
          "internalType": "uint32",
          "name": "minVoters",
          "type": "uint32"
        }
      ],
      "stateMutability": "nonpayable",
      "type": "constructor"
    },
    {
      "inputs": [],
      "name": "InvalidKMSSignatures",
      "type": "error"
    },
    {
      "inputs": [
        {
          "internalType": "bytes32",
          "name": "handle",
          "type": "bytes32"
        },
        {
          "internalType": "address",
          "name": "sender",
          "type": "address"
        }
      ],
      "name": "SenderNotAllowedToUseHandle",
      "type": "error"
    },
    {
      "inputs": [
        {
          "internalType": "uint256",
          "name": "id",
          "type": "uint256"
        }
      ],
      "name": "VotesResolutionAlreadyResolved",
      "type": "error"
    },
    {
      "inputs": [
        {
          "internalType": "uint256",
          "name": "id",
          "type": "uint256"
        },
        {
          "internalType": "address",
          "name": "voter",
          "type": "address"
        }
      ],
      "name": "VotesResolutionAlreadyVoted",
      "type": "error"
    },
    {
      "inputs": [],
      "name": "VotesResolutionBadConfiguration",
      "type": "error"
    },
    {
      "inputs": [
        {
          "internalType": "address",
          "name": "caller",
          "type": "address"
        }
      ],
      "name": "VotesResolutionCannotPropose",
      "type": "error"
    },
    {
      "inputs": [
        {
          "internalType": "uint256",
          "name": "id",
          "type": "uint256"
        }
      ],
      "name": "VotesResolutionNoTallyRequested",
      "type": "error"
    },
    {
      "inputs": [
        {
          "internalType": "address",
          "name": "voter",
          "type": "address"
        }
      ],
      "name": "VotesResolutionNoVotingPower",
      "type": "error"
    },
    {
      "inputs": [
        {
          "internalType": "uint256",
          "name": "id",
          "type": "uint256"
        }
      ],
      "name": "VotesResolutionQuorumNotReached",
      "type": "error"
    },
    {
      "inputs": [
        {
          "internalType": "uint256",
          "name": "id",
          "type": "uint256"
        }
      ],
      "name": "VotesResolutionTallyAlreadyRequested",
      "type": "error"
    },
    {
      "inputs": [
        {
          "internalType": "uint256",
          "name": "id",
          "type": "uint256"
        }
      ],
      "name": "VotesResolutionVotingClosed",
      "type": "error"
    },
    {
      "inputs": [
        {
          "internalType": "uint256",
          "name": "id",
          "type": "uint256"
        }
      ],
      "name": "VotesResolutionVotingNotEnded",
      "type": "error"
    },
    {
      "inputs": [
        {
          "internalType": "uint256",
          "name": "id",
          "type": "uint256"
        }
      ],
      "name": "VotesResolutionVotingNotStarted",
      "type": "error"
    },
    {
      "inputs": [],
      "name": "VotesResolutionVotingPeriodTooShort",
      "type": "error"
    },
    {
      "inputs": [],
      "name": "ZamaProtocolUnsupported",
      "type": "error"
    },
    {
      "anonymous": false,
      "inputs": [
        {
          "indexed": false,
          "internalType": "bytes32[]",
          "name": "handlesList",
          "type": "bytes32[]"
        },
        {
          "indexed": false,
          "internalType": "bytes",
          "name": "abiEncodedCleartexts",
          "type": "bytes"
        }
      ],
      "name": "PublicDecryptionVerified",
      "type": "event"
    },
    {
      "anonymous": false,
      "inputs": [
        {
          "indexed": true,
          "internalType": "uint256",
          "name": "id",
          "type": "uint256"
        },
        {
          "indexed": true,
          "internalType": "address",
          "name": "proposer",
          "type": "address"
        },
        {
          "indexed": false,
          "internalType": "string",
          "name": "description",
          "type": "string"
        },
        {
          "indexed": false,
          "internalType": "uint48",
          "name": "deadline",
          "type": "uint48"
        }
      ],
      "name": "ResolutionProposed",
      "type": "event"
    },
    {
      "anonymous": false,
      "inputs": [
        {
          "indexed": true,
          "internalType": "uint256",
          "name": "id",
          "type": "uint256"
        },
        {
          "indexed": false,
          "internalType": "bool",
          "name": "passed",
          "type": "bool"
        },
        {
          "indexed": false,
          "internalType": "bool",
          "name": "quorumReached",
          "type": "bool"
        }
      ],
      "name": "ResolutionSettled",
      "type": "event"
    },
    {
      "anonymous": false,
      "inputs": [
        {
          "indexed": true,
          "internalType": "uint256",
          "name": "id",
          "type": "uint256"
        }
      ],
      "name": "TallyRequested",
      "type": "event"
    },
    {
      "anonymous": false,
      "inputs": [
        {
          "indexed": true,
          "internalType": "uint256",
          "name": "id",
          "type": "uint256"
        },
        {
          "indexed": false,
          "internalType": "address",
          "name": "voter",
          "type": "address"
        }
      ],
      "name": "VoteCast",
      "type": "event"
    },
    {
      "inputs": [],
      "name": "MIN_VOTERS",
      "outputs": [
        {
          "internalType": "uint32",
          "name": "",
          "type": "uint32"
        }
      ],
      "stateMutability": "view",
      "type": "function"
    },
    {
      "inputs": [],
      "name": "VOTES",
      "outputs": [
        {
          "internalType": "contract IConfidentialVotes",
          "name": "",
          "type": "address"
        }
      ],
      "stateMutability": "view",
      "type": "function"
    },
    {
      "inputs": [
        {
          "internalType": "address",
          "name": "account",
          "type": "address"
        }
      ],
      "name": "canPropose",
      "outputs": [
        {
          "internalType": "bool",
          "name": "",
          "type": "bool"
        }
      ],
      "stateMutability": "view",
      "type": "function"
    },
    {
      "inputs": [
        {
          "internalType": "uint256",
          "name": "id",
          "type": "uint256"
        },
        {
          "internalType": "externalEbool",
          "name": "encryptedSupport",
          "type": "bytes32"
        },
        {
          "internalType": "bytes",
          "name": "inputProof",
          "type": "bytes"
        }
      ],
      "name": "castVote",
      "outputs": [],
      "stateMutability": "nonpayable",
      "type": "function"
    },
    {
      "inputs": [],
      "name": "confidentialProtocolId",
      "outputs": [
        {
          "internalType": "uint256",
          "name": "",
          "type": "uint256"
        }
      ],
      "stateMutability": "view",
      "type": "function"
    },
    {
      "inputs": [
        {
          "internalType": "uint256",
          "name": "id",
          "type": "uint256"
        }
      ],
      "name": "getResolution",
      "outputs": [
        {
          "components": [
            {
              "internalType": "address",
              "name": "proposer",
              "type": "address"
            },
            {
              "internalType": "string",
              "name": "description",
              "type": "string"
            },
            {
              "internalType": "uint48",
              "name": "snapshot",
              "type": "uint48"
            },
            {
              "internalType": "uint48",
              "name": "deadline",
              "type": "uint48"
            },
            {
              "internalType": "euint64",
              "name": "forVotes",
              "type": "bytes32"
            },
            {
              "internalType": "euint64",
              "name": "againstVotes",
              "type": "bytes32"
            },
            {
              "internalType": "ebool",
              "name": "passedHandle",
              "type": "bytes32"
            },
            {
              "internalType": "uint32",
              "name": "voterCount",
              "type": "uint32"
            },
            {
              "internalType": "bool",
              "name": "quorumReached",
              "type": "bool"
            },
            {
              "internalType": "bool",
              "name": "tallyRequested",
              "type": "bool"
            },
            {
              "internalType": "bool",
              "name": "resolved",
              "type": "bool"
            },
            {
              "internalType": "bool",
              "name": "passed",
              "type": "bool"
            }
          ],
          "internalType": "struct ConfidentialVotesResolution.Resolution",
          "name": "",
          "type": "tuple"
        }
      ],
      "stateMutability": "view",
      "type": "function"
    },
    {
      "inputs": [
        {
          "internalType": "uint256",
          "name": "resolutionId",
          "type": "uint256"
        },
        {
          "internalType": "address",
          "name": "voter",
          "type": "address"
        }
      ],
      "name": "hasVoted",
      "outputs": [
        {
          "internalType": "bool",
          "name": "",
          "type": "bool"
        }
      ],
      "stateMutability": "view",
      "type": "function"
    },
    {
      "inputs": [
        {
          "internalType": "string",
          "name": "description",
          "type": "string"
        },
        {
          "internalType": "uint48",
          "name": "votingPeriod",
          "type": "uint48"
        }
      ],
      "name": "propose",
      "outputs": [
        {
          "internalType": "uint256",
          "name": "id",
          "type": "uint256"
        }
      ],
      "stateMutability": "nonpayable",
      "type": "function"
    },
    {
      "inputs": [
        {
          "internalType": "uint256",
          "name": "id",
          "type": "uint256"
        }
      ],
      "name": "requestTally",
      "outputs": [],
      "stateMutability": "nonpayable",
      "type": "function"
    },
    {
      "inputs": [],
      "name": "resolutionCount",
      "outputs": [
        {
          "internalType": "uint256",
          "name": "",
          "type": "uint256"
        }
      ],
      "stateMutability": "view",
      "type": "function"
    },
    {
      "inputs": [
        {
          "internalType": "uint256",
          "name": "id",
          "type": "uint256"
        },
        {
          "internalType": "bool",
          "name": "passedClear",
          "type": "bool"
        },
        {
          "internalType": "bytes",
          "name": "decryptionProof",
          "type": "bytes"
        }
      ],
      "name": "settle",
      "outputs": [],
      "stateMutability": "nonpayable",
      "type": "function"
    }
  ],
  "transactionHash": "0x1e0e826ed9b24ac2b76454298e473edbd4175d60d60ecd68b0ae6944bccb705e",
  "args": [
    "0xEc3f25b2efd5cA61c4A0206Fce8BC119d647a666",
    3
  ],
  "numDeployments": 1,
  "solcInputHash": "e178d49472cf940db6a1343a352ead67",
  "bytecode": "0x60c060405234801561000f575f5ffd5b5060405161224838038061224883398101604081905261002e916102e7565b6100e2610039610138565b80517f9e7b61f58c47dc699ac88507c4f5bb9f121c03808c5676a8078fe583e464970080546001600160a01b03199081166001600160a01b039384161790915560208301517f9e7b61f58c47dc699ac88507c4f5bb9f121c03808c5676a8078fe583e46497018054831691841691909117905560408301517f9e7b61f58c47dc699ac88507c4f5bb9f121c03808c5676a8078fe583e46497028054909216921691909117905550565b6001600160a01b038216158015906100ff57505f8163ffffffff16115b61011c57604051631dd51ecf60e11b815260040160405180910390fd5b6001600160a01b0390911660805263ffffffff1660a052610332565b604080516060810182525f8082526020820181905291810191909152466001036101d1575060408051606080820183525f8083526020808401829052928401528251908101835273ca2e8f1f656cd25c01f05d0b243ab1ecd4a8ffb6815273d82385dada1ae3e969447f20a3164f6213100e75918101919091527377627828a55156b04ac0dc0eb30467f1a552bb039181019190915290565b4662aa36a703610250575060408051606080820183525f8083526020808401829052928401528251908101835273f0ffdc93b7e186bc2f8cb3daa75d86d1930a433d81527392c920834ec8941d2c77d188936e1f7a6f49c1279181019190915273be0e383937d564d7ff0bc3b46c51f0bf8d5c311a9181019190915290565b46617a69036102ce575060408051606080820183525f808352602080840182905292840152825190810183527350157cffd6bbfa2dece204a89ec419c23ef5755d815273e3a9105a3a932253a70f126eb1e3b589c643dd249181019190915273901f8942346f7ab3a01f6d7613119bca447bb0309181019190915290565b6040516373cac13b60e01b815260040160405180910390fd5b5f5f604083850312156102f8575f5ffd5b82516001600160a01b038116811461030e575f5ffd5b602084015190925063ffffffff81168114610327575f5ffd5b809150509250929050565b60805160a051611eb66103925f395f8181610176015261036a01525f81816101e5015281816102610152818161048a0152818161064b015281816106fd0152818161078e0152818161087a01528181610a540152610b0d0152611eb65ff3fe608060405234801561000f575f5ffd5b50600436106100c4575f3560e01c80638589c7a51161007d578063d565a53311610058578063d565a533146101ad578063ddf443de146101cd578063e4b4a727146101e0575f5ffd5b80638589c7a5146101565780638927b03014610169578063d1791ae014610171575f5ffd5b80633e0ec2ba116100ad5780633e0ec2ba146100f357806342b4632e146101065780634385963214610129575f5ffd5b8063244c54d3146100c85780633d0f9034146100dd575b5f5ffd5b6100db6100d636600461182e565b61021f565b005b5f545b6040519081526020015b60405180910390f35b6100e06101013660046118a0565b610429565b610119610114366004611907565b610647565b60405190151581526020016100ea565b610119610137366004611922565b600160209081525f928352604080842090915290825290205460ff1681565b6100db610164366004611950565b610856565b6100e0610c4d565b6101987f000000000000000000000000000000000000000000000000000000000000000081565b60405163ffffffff90911681526020016100ea565b6101c06101bb36600461182e565b610c5b565b6040516100ea91906119cd565b6100db6101db366004611abe565b610e33565b6102077f000000000000000000000000000000000000000000000000000000000000000081565b6040516001600160a01b0390911681526020016100ea565b5f5f828154811061023257610232611afe565b905f5260205f20906007020190508060020160069054906101000a900465ffffffffffff1665ffffffffffff167f00000000000000000000000000000000000000000000000000000000000000006001600160a01b03166391ddadf46040518163ffffffff1660e01b8152600401602060405180830381865afa1580156102bb573d5f5f3e3d5ffd5b505050506040513d601f19601f820116820180604052508101906102df9190611b12565b65ffffffffffff1611829061031357604051630dfc414360e11b815260040161030a91815260200190565b60405180910390fd5b506006810154829065010000000000900460ff1615610347576040516202484160ed1b815260040161030a91815260200190565b5060068101805465ff0000000000198116650100000000001790915563ffffffff7f000000000000000000000000000000000000000000000000000000000000000081169116106103de5760068101805464ff000000001916640100000000179055600381015460048201545f916103be9161101a565b90506103c981611051565b506103d381611071565b5060058201556103fb565b60068101805467ffff000000000000191666010000000000001790555b60405182907f7196a4e3b3615b2f623182062dc3661a53bfbe70ea4c1f634bc51957b5bca5ce905f90a25050565b5f61043333610647565b339061045e5760405163016cfcb760e41b81526001600160a01b03909116600482015260240161030a565b505f8265ffffffffffff16116104875760405163c86de8a160e01b815260040160405180910390fd5b5f7f00000000000000000000000000000000000000000000000000000000000000006001600160a01b03166391ddadf46040518163ffffffff1660e01b8152600401602060405180830381865afa1580156104e4573d5f5f3e3d5ffd5b505050506040513d601f19601f820116820180604052508101906105089190611b12565b5f8054600181018083558280529094509192509081908490811061052e5761052e611afe565b5f918252602090912060079091020180547fffffffffffffffffffffffff00000000000000000000000000000000000000001633178155905060018101610576868883611bc5565b5060028101805465ffffffffffff191665ffffffffffff841617905561059c8483611c93565b8160020160066101000a81548165ffffffffffff021916908365ffffffffffff1602179055505f6105cc5f61108c565b90506105d7816110a2565b5060038201819055600482018190556002820154604051339186917fc4c11b7d14b44cc95b0119270b67434008ab7336dd02a85f943a9f9ebab7383891610635918c918c91660100000000000090910465ffffffffffff1690611cb1565b60405180910390a35050509392505050565b5f5f7f00000000000000000000000000000000000000000000000000000000000000006001600160a01b03166391ddadf46040518163ffffffff1660e01b8152600401602060405180830381865afa1580156106a5573d5f5f3e3d5ffd5b505050506040513d601f19601f820116820180604052508101906106c99190611b12565b905065ffffffffffff811615806107745750604051632c3e6f0f60e11b81526001600160a01b0380851660048301819052917f00000000000000000000000000000000000000000000000000000000000000009091169063587cde1e90602401602060405180830381865afa158015610744573d5f5f3e3d5ffd5b505050506040513d601f19601f820116820180604052508101906107689190611cf0565b6001600160a01b031614155b1561078157505f92915050565b61084f6001600160a01b037f000000000000000000000000000000000000000000000000000000000000000016633a46b1a8856107bf600186611d0b565b6040517fffffffff0000000000000000000000000000000000000000000000000000000060e085901b1681526001600160a01b03909216600483015265ffffffffffff166024820152604401602060405180830381865afa158015610826573d5f5f3e3d5ffd5b505050506040513d601f19601f8201168201806040525081019061084a9190611d29565b151590565b9392505050565b5f5f858154811061086957610869611afe565b905f5260205f20906007020190505f7f00000000000000000000000000000000000000000000000000000000000000006001600160a01b03166391ddadf46040518163ffffffff1660e01b8152600401602060405180830381865afa1580156108d4573d5f5f3e3d5ffd5b505050506040513d601f19601f820116820180604052508101906108f89190611b12565b6002830154909150869065ffffffffffff908116908316116109305760405163221cc62560e21b815260040161030a91815260200190565b506002820154869065ffffffffffff66010000000000009091048116908316111561097157604051634ceb7ff960e01b815260040161030a91815260200190565b505f8681526001602090815260408083203380855292529091205487919060ff16156109c25760405163523c624f60e01b815260048101929092526001600160a01b0316602482015260440161030a565b50505f8681526001602081815260408084203385529091528220805460ff19168217905560068401805491929091610a0190849063ffffffff16611d40565b825463ffffffff9182166101009390930a9283029190920219909116179055506002820154604051630748d63560e31b815233600482015265ffffffffffff90911660248201525f906001600160a01b037f00000000000000000000000000000000000000000000000000000000000000001690633a46b1a890604401602060405180830381865afa158015610a99573d5f5f3e3d5ffd5b505050506040513d601f19601f82011682018060405250810190610abd9190611d29565b90503381610aea57604051635f480c9560e01b81526001600160a01b03909116600482015260240161030a565b506040516306d4a79960e01b8152600481018290523060248201525f60448201527f00000000000000000000000000000000000000000000000000000000000000006001600160a01b0316906306d4a799906064015f604051808303815f87803b158015610b56575f5ffd5b505af1158015610b68573d5f5f3e3d5ffd5b505050505f610bac8787878080601f0160208091040260200160405190810160405280939291908181526020018383808284375f920191909152506110b192505050565b90505f610bb85f61108c565b9050610bd28560030154610bcd848685611116565b61115d565b60038601556004850154610beb90610bcd848487611116565b60048601556003850154610bfe906110a2565b50610c0c85600401546110a2565b5060405133815289907ff1003b73c437642c0460aee9cd9628b0b8c447b66e6c7c905531b9c644214a119060200160405180910390a2505050505050505050565b5f610c5661118b565b905090565b60408051610180810182525f8082526060602083018190529282018190529181018290526080810182905260a0810182905260c0810182905260e081018290526101008101829052610120810182905261014081018290526101608101919091525f8281548110610cce57610cce611afe565b5f91825260209182902060408051610180810190915260079092020180546001600160a01b031682526001810180549293919291840191610d0e90611b41565b80601f0160208091040260200160405190810160405280929190818152602001828054610d3a90611b41565b8015610d855780601f10610d5c57610100808354040283529160200191610d85565b820191905f5260205f20905b815481529060010190602001808311610d6857829003601f168201915b5050509183525050600282015465ffffffffffff80821660208401526601000000000000918290041660408301526003830154606083015260048301546080830152600583015460a083015260069092015463ffffffff811660c083015260ff64010000000082048116151560e08401526501000000000082048116151561010084015292810483161515610120830152670100000000000000900490911615156101409091015292915050565b5f5f8581548110610e4657610e46611afe565b905f5260205f20906007020190508060060160059054906101000a900460ff168590610e88576040516362d0cce960e01b815260040161030a91815260200190565b5060068101548590640100000000900460ff16610ebb5760405163fe0070f760e01b815260040161030a91815260200190565b50600681015485906601000000000000900460ff1615610ef157604051630a04a04560e11b815260040161030a91815260200190565b506040805160018082528183019092525f91602080830190803683370190505090508160050154815f81518110610f2a57610f2a611afe565b602002602001018181525050610f928186604051602001610f4f911515815260200190565b60408051601f198184030181526020601f8901819004810284018101909252878352919088908890819084018382808284375f920191909152506111bf92505050565b60068201805466ff00000000000019871515670100000000000000021667ffff0000000000001990911617660100000000000017905560405186907fa378725ea49490e184bc0e2339186de0b8a71c1b19d0ad0502bbe15bb3f8d3999061100a90889060019091151582521515602082015260400190565b60405180910390a2505050505050565b5f8261102c576110295f61108c565b92505b8161103d5761103a5f61108c565b91505b61104883835f61122a565b90505b92915050565b5f81611063576110605f611312565b91505b61106d823061132d565b5090565b5f81611083576110805f611312565b91505b61106d826113a1565b5f61104b8267ffffffffffffffff16600561141f565b5f81611063576110605f61108c565b5f81515f146110cc576110c583835f6114c1565b905061104b565b825f8190036110e6576110de5f611312565b91505061104b565b6110f081336115ce565b6110c557604051630276b5d960e01b81526004810182905233602482015260440161030a565b5f83611128576111255f611312565b93505b82611139576111365f61108c565b92505b8161114a576111475f61108c565b91505b611155848484611652565b949350505050565b5f8261116f5761116c5f61108c565b92505b816111805761117d5f61108c565b91505b61104883835f6116e8565b5f4660010361119a5750600190565b4662aa36a7036111ab575061271190565b46617a69036111ba57505f1990565b505f90565b5f6111cb84848461178a565b9050806111eb5760405163cf6c44e960e01b815260040160405180910390fd5b7fc6366bab028b8d033cb362cfd1f2f3457ef4e92fc738b6788b90d5a7846367a0848460405161121c929190611d96565b60405180910390a150505050565b5f5f821561123d5750600160f81b611240565b505f5b7f9e7b61f58c47dc699ac88507c4f5bb9f121c03808c5676a8078fe583e4649701546040516385362ee760e01b815260048101879052602481018690527fff00000000000000000000000000000000000000000000000000000000000000831660448201525f516020611e8a5f395f51905f52916001600160a01b0316906385362ee7906064015b6020604051808303815f875af11580156112e4573d5f5f3e3d5ffd5b505050506040513d601f19601f820116820180604052508101906113089190611d29565b9695505050505050565b5f61104b82611321575f611324565b60015b60ff165f61141f565b5f516020611e8a5f395f51905f528054604051635ca4b5b160e11b8152600481018590526001600160a01b0384811660248301529091169063b9496b62906044015b5f604051808303815f87803b158015611386575f5ffd5b505af1158015611398573d5f5f3e3d5ffd5b50505050505050565b6040805160018082528183019092525f516020611e8a5f395f51905f52915f91906020808301908036833701905050905082815f815181106113e5576113e5611afe565b60209081029190910101528154604051637d6e912360e11b81526001600160a01b039091169063fadd22469061136f908490600401611dba565b7f9e7b61f58c47dc699ac88507c4f5bb9f121c03808c5676a8078fe583e464970154604051639cd07acb60e01b81525f915f516020611e8a5f395f51905f52916001600160a01b0390911690639cd07acb906114819087908790600401611dec565b6020604051808303815f875af115801561149d573d5f5f3e3d5ffd5b505050506040513d601f19601f820116820180604052508101906111559190611d29565b7f9e7b61f58c47dc699ac88507c4f5bb9f121c03808c5676a8078fe583e46497015460405163045fc19560e11b81525f915f516020611e8a5f395f51905f52916001600160a01b03909116906308bf832a90611527908890339089908990600401611e00565b6020604051808303815f875af1158015611543573d5f5f3e3d5ffd5b505050506040513d601f19601f820116820180604052508101906115679190611d29565b8154604051630f8e573b60e21b8152600481018390523360248201529193506001600160a01b031690633e395cec906044015f604051808303815f87803b1580156115b0575f5ffd5b505af11580156115c2573d5f5f3e3d5ffd5b50505050509392505050565b5f805f516020611e8a5f395f51905f5280546040516382027b6d60e01b8152600481018790526001600160a01b0386811660248301529293509116906382027b6d90604401602060405180830381865afa15801561162e573d5f5f3e3d5ffd5b505050506040513d601f19601f820116820180604052508101906111559190611e36565b5f805f516020611e8a5f395f51905f526001810154604051637702dcff60e01b81526004810188905260248101879052604481018690529192506001600160a01b031690637702dcff906064016020604051808303815f875af11580156116bb573d5f5f3e3d5ffd5b505050506040513d601f19601f820116820180604052508101906116df9190611d29565b95945050505050565b5f5f82156116fb5750600160f81b6116fe565b505f5b7f9e7b61f58c47dc699ac88507c4f5bb9f121c03808c5676a8078fe583e46497015460405163022f65e760e31b815260048101879052602481018690527fff00000000000000000000000000000000000000000000000000000000000000831660448201525f516020611e8a5f395f51905f52916001600160a01b03169063117b2f38906064016112c8565b7f9e7b61f58c47dc699ac88507c4f5bb9f121c03808c5676a8078fe583e4649702546040516378542ead60e01b81525f915f516020611e8a5f395f51905f52916001600160a01b03909116906378542ead906117ee90889088908890600401611e51565b6020604051808303815f875af115801561180a573d5f5f3e3d5ffd5b505050506040513d601f19601f820116820180604052508101906116df9190611e36565b5f6020828403121561183e575f5ffd5b5035919050565b5f5f83601f840112611855575f5ffd5b50813567ffffffffffffffff81111561186c575f5ffd5b602083019150836020828501011115611883575f5ffd5b9250929050565b65ffffffffffff8116811461189d575f5ffd5b50565b5f5f5f604084860312156118b2575f5ffd5b833567ffffffffffffffff8111156118c8575f5ffd5b6118d486828701611845565b90945092505060208401356118e88161188a565b809150509250925092565b6001600160a01b038116811461189d575f5ffd5b5f60208284031215611917575f5ffd5b813561084f816118f3565b5f5f60408385031215611933575f5ffd5b823591506020830135611945816118f3565b809150509250929050565b5f5f5f5f60608587031215611963575f5ffd5b8435935060208501359250604085013567ffffffffffffffff811115611987575f5ffd5b61199387828801611845565b95989497509550505050565b5f81518084528060208401602086015e5f602082860101526020601f19601f83011685010191505092915050565b602081526119e76020820183516001600160a01b03169052565b5f60208301516101806040840152611a036101a084018261199f565b90506040840151611a1e606085018265ffffffffffff169052565b50606084015165ffffffffffff8116608085015250608084015160a084015260a084015160c084015260c084015160e084015260e0840151611a6961010085018263ffffffff169052565b50610100840151801515610120850152506101208401518015156101408501525061014084015180151561016085015250610160840151801515610180850152509392505050565b801515811461189d575f5ffd5b5f5f5f5f60608587031215611ad1575f5ffd5b843593506020850135611ae381611ab1565b9250604085013567ffffffffffffffff811115611987575f5ffd5b634e487b7160e01b5f52603260045260245ffd5b5f60208284031215611b22575f5ffd5b815161084f8161188a565b634e487b7160e01b5f52604160045260245ffd5b600181811c90821680611b5557607f821691505b602082108103611b7357634e487b7160e01b5f52602260045260245ffd5b50919050565b601f821115611bc057805f5260205f20601f840160051c81016020851015611b9e5750805b601f840160051c820191505b81811015611bbd575f8155600101611baa565b50505b505050565b67ffffffffffffffff831115611bdd57611bdd611b2d565b611bf183611beb8354611b41565b83611b79565b5f601f841160018114611c22575f8515611c0b5750838201355b5f19600387901b1c1916600186901b178355611bbd565b5f83815260208120601f198716915b82811015611c515786850135825560209485019460019092019101611c31565b5086821015611c6d575f1960f88860031b161c19848701351681555b505060018560011b0183555050505050565b634e487b7160e01b5f52601160045260245ffd5b65ffffffffffff818116838216019081111561104b5761104b611c7f565b60408152826040820152828460608301375f606084830101525f6060601f19601f860116830101905065ffffffffffff83166020830152949350505050565b5f60208284031215611d00575f5ffd5b815161084f816118f3565b65ffffffffffff828116828216039081111561104b5761104b611c7f565b5f60208284031215611d39575f5ffd5b5051919050565b63ffffffff818116838216019081111561104b5761104b611c7f565b5f8151808452602084019350602083015f5b82811015611d8c578151865260209586019590910190600101611d6e565b5093949350505050565b604081525f611da86040830185611d5c565b82810360208401526116df818561199f565b602081525f6110486020830184611d5c565b60548110611de857634e487b7160e01b5f52602160045260245ffd5b9052565b8281526040810161084f6020830184611dcc565b8481526001600160a01b0384166020820152608060408201525f611e27608083018561199f565b90506116df6060830184611dcc565b5f60208284031215611e46575f5ffd5b815161084f81611ab1565b606081525f611e636060830186611d5c565b8281036020840152611e75818661199f565b90508281036040840152611308818561199f56fe9e7b61f58c47dc699ac88507c4f5bb9f121c03808c5676a8078fe583e4649700a164736f6c634300081b000a",
  "devdoc": {
    "kind": "dev",
    "methods": {},
    "title": "ConfidentialVotesResolution - outcome-only voting for a confidential votes token",
    "version": 1
  },
  "userdoc": {
    "errors": {
      "InvalidKMSSignatures()": [
        {
          "notice": "Returned if the returned KMS signatures are not valid."
        }
      ],
      "SenderNotAllowedToUseHandle(bytes32,address)": [
        {
          "notice": "Returned if the sender is not allowed to use the handle."
        }
      ],
      "ZamaProtocolUnsupported()": [
        {
          "notice": "Returned if the Zama protocol is not supported on the current chain"
        }
      ]
    },
    "events": {
      "PublicDecryptionVerified(bytes32[],bytes)": {
        "notice": "This event is emitted when public decryption has been successfully verified."
      }
    },
    "kind": "user",
    "methods": {
      "canPropose(address)": {
        "notice": "True when `account` has activated self-delegated voting power."
      },
      "castVote(uint256,bytes32,bytes)": {
        "notice": "Adds an encrypted for/against vote weighted by the caller's snapshot units."
      },
      "propose(string,uint48)": {
        "notice": "Opens a resolution whose voting power snapshots at the current token clock."
      },
      "requestTally(uint256)": {
        "notice": "After voting, requests public decryption of only the pass/fail result when quorum was reached. A non-quorate resolution resolves false without decrypting any tally."
      },
      "settle(uint256,bool,bytes)": {
        "notice": "Verifies and stores the publicly decrypted outcome. Anyone may relay the proof."
      }
    },
    "notice": "A narrow, token-agnostic form of CharterResolutionsV3 for checkpointed confidential voting units. Proposal text, proposer, voters, timing, voter count, quorum status, and the final pass/fail result are public. Vote direction, individual weight, and aggregate totals remain encrypted; only the pass/fail handle is made publicly decryptable.",
    "version": 1
  },
  "storageLayout": {
    "storage": [
      {
        "astId": 61931,
        "contract": "contracts/ConfidentialVotesResolution.sol:ConfidentialVotesResolution",
        "label": "_resolutions",
        "offset": 0,
        "slot": "0",
        "type": "t_array(t_struct(Resolution)61922_storage)dyn_storage"
      },
      {
        "astId": 61937,
        "contract": "contracts/ConfidentialVotesResolution.sol:ConfidentialVotesResolution",
        "label": "hasVoted",
        "offset": 0,
        "slot": "1",
        "type": "t_mapping(t_uint256,t_mapping(t_address,t_bool))"
      }
    ],
    "types": {
      "t_address": {
        "encoding": "inplace",
        "label": "address",
        "numberOfBytes": "20"
      },
      "t_array(t_struct(Resolution)61922_storage)dyn_storage": {
        "base": "t_struct(Resolution)61922_storage",
        "encoding": "dynamic_array",
        "label": "struct ConfidentialVotesResolution.Resolution[]",
        "numberOfBytes": "32"
      },
      "t_bool": {
        "encoding": "inplace",
        "label": "bool",
        "numberOfBytes": "1"
      },
      "t_mapping(t_address,t_bool)": {
        "encoding": "mapping",
        "key": "t_address",
        "label": "mapping(address => bool)",
        "numberOfBytes": "32",
        "value": "t_bool"
      },
      "t_mapping(t_uint256,t_mapping(t_address,t_bool))": {
        "encoding": "mapping",
        "key": "t_uint256",
        "label": "mapping(uint256 => mapping(address => bool))",
        "numberOfBytes": "32",
        "value": "t_mapping(t_address,t_bool)"
      },
      "t_string_storage": {
        "encoding": "bytes",
        "label": "string",
        "numberOfBytes": "32"
      },
      "t_struct(Resolution)61922_storage": {
        "encoding": "inplace",
        "label": "struct ConfidentialVotesResolution.Resolution",
        "members": [
          {
            "astId": 61896,
            "contract": "contracts/ConfidentialVotesResolution.sol:ConfidentialVotesResolution",
            "label": "proposer",
            "offset": 0,
            "slot": "0",
            "type": "t_address"
          },
          {
            "astId": 61898,
            "contract": "contracts/ConfidentialVotesResolution.sol:ConfidentialVotesResolution",
            "label": "description",
            "offset": 0,
            "slot": "1",
            "type": "t_string_storage"
          },
          {
            "astId": 61900,
            "contract": "contracts/ConfidentialVotesResolution.sol:ConfidentialVotesResolution",
            "label": "snapshot",
            "offset": 0,
            "slot": "2",
            "type": "t_uint48"
          },
          {
            "astId": 61902,
            "contract": "contracts/ConfidentialVotesResolution.sol:ConfidentialVotesResolution",
            "label": "deadline",
            "offset": 6,
            "slot": "2",
            "type": "t_uint48"
          },
          {
            "astId": 61905,
            "contract": "contracts/ConfidentialVotesResolution.sol:ConfidentialVotesResolution",
            "label": "forVotes",
            "offset": 0,
            "slot": "3",
            "type": "t_userDefinedValueType(euint64)65443"
          },
          {
            "astId": 61908,
            "contract": "contracts/ConfidentialVotesResolution.sol:ConfidentialVotesResolution",
            "label": "againstVotes",
            "offset": 0,
            "slot": "4",
            "type": "t_userDefinedValueType(euint64)65443"
          },
          {
            "astId": 61911,
            "contract": "contracts/ConfidentialVotesResolution.sol:ConfidentialVotesResolution",
            "label": "passedHandle",
            "offset": 0,
            "slot": "5",
            "type": "t_userDefinedValueType(ebool)65427"
          },
          {
            "astId": 61913,
            "contract": "contracts/ConfidentialVotesResolution.sol:ConfidentialVotesResolution",
            "label": "voterCount",
            "offset": 0,
            "slot": "6",
            "type": "t_uint32"
          },
          {
            "astId": 61915,
            "contract": "contracts/ConfidentialVotesResolution.sol:ConfidentialVotesResolution",
            "label": "quorumReached",
            "offset": 4,
            "slot": "6",
            "type": "t_bool"
          },
          {
            "astId": 61917,
            "contract": "contracts/ConfidentialVotesResolution.sol:ConfidentialVotesResolution",
            "label": "tallyRequested",
            "offset": 5,
            "slot": "6",
            "type": "t_bool"
          },
          {
            "astId": 61919,
            "contract": "contracts/ConfidentialVotesResolution.sol:ConfidentialVotesResolution",
            "label": "resolved",
            "offset": 6,
            "slot": "6",
            "type": "t_bool"
          },
          {
            "astId": 61921,
            "contract": "contracts/ConfidentialVotesResolution.sol:ConfidentialVotesResolution",
            "label": "passed",
            "offset": 7,
            "slot": "6",
            "type": "t_bool"
          }
        ],
        "numberOfBytes": "224"
      },
      "t_uint256": {
        "encoding": "inplace",
        "label": "uint256",
        "numberOfBytes": "32"
      },
      "t_uint32": {
        "encoding": "inplace",
        "label": "uint32",
        "numberOfBytes": "4"
      },
      "t_uint48": {
        "encoding": "inplace",
        "label": "uint48",
        "numberOfBytes": "6"
      },
      "t_userDefinedValueType(ebool)65427": {
        "encoding": "inplace",
        "label": "ebool",
        "numberOfBytes": "32"
      },
      "t_userDefinedValueType(euint64)65443": {
        "encoding": "inplace",
        "label": "euint64",
        "numberOfBytes": "32"
      }
    }
  }
}